:020000041000EA
:1000000000000110E5000010FD5400101531001033
:1000100001550010035500100555001000000000A8
:100020000000000000000000000000000755001064
:100030000955001000000000AB300010C560001032
:100040000F5500100F5500100F5500100F550010E0
:100050000F5500100F5500108D5F00100F55001048
:100060000F5500100F5500100F5500100F550010C0
:100070000F550010000000000F5500100F55001024
:100080000F5500100F5500100F5500100F550010A0
:100090000F5500100F5500100F5500100F55001090
:1000A0000F5500100F5500100F5500100F55001080
:1000B000F9430010154900100F5500100F5500109E
:1000C0000F5500100F5500100F5500100F55001060
:1000D0000F5500100F5500100F5500100F55001050
:1000E0000F55001000200649064A914204D0914263
:1000F00002D208600431FAD303488047034800471E
:10010000807C001068990010DD580010E962001032
:1001100008B547F68040074BC1F200001B1A062BBA
:1001200000D808BD40F20003C0F20003002BF8D055
:100130009847F6E7837C001008B547F6804047F6FD
:100140008043C1F20000C1F200031B1A9B1003EBB5
:10015000D373591000D108BD40F20002C0F2000272
:10016000002AF8D09047F6E710B547F68044C1F270
:100170000004237873B9FFF7CBFF40F20003C0F20D
:1001800000032BB147F68430C1F20000AFF30080CA
:100190000123237010BD00BF08B540F20003C0F278
:1001A00000034BB147F6843047F68441C1F20000AA
:1001B000C1F20001AFF3008047F6C030C1F2000089
:1001C00003682BB140F20003C0F2000303B198476B
:1001D000BDE80840FFF7B0BF80B400AF024B1B681A
:1001E0001846BD4680BC70479C7C001080B582B02C
:1001F00000AF0F4B1B6803F101020D4B1A6002F0B8
:1002000057FB78607B685B6C03F1FF327B685A6454
:100210007B685B6C002B05D17B681A6C7B685A6429
:1002200002F0DCFB02F0C4FE07F10807BD4680BD0A
:100230009C7C001080B584B000AFF860B9601346B4
:10024000FB80FB68002B02D14FF0FF3314E0B8684D
:1002500000F018F80346002B02D04FF0FF330BE0FC
:10026000FB6818464FF00801BA6801F0E3FDFB682F
:10027000FA885A824FF00003184607F11007BD466E
:1002800080BD00BF80B586B000AF786002F010FB83
:100290000346002B01D002F065F91A4B3B613B6924
:1002A0005B687B6119E07B69A3F10803FB60FB6875
:1002B000184679684FF0060200F0A8FC0346002BB0
:1002C00008D102F0F5FA0346002B01D002F05CF9E8
:1002D000FB6811E07B691B687B613B6903F10402E9
:1002E0007B699A42DFD102F0E3FA0346002B01D08A
:1002F00002F04AF94FF00003184607F11807BD460F
:1003000080BD00BF447C001080B586B000AF78602F
:100310000B467B807B68002B0DD14FF00003FB73F5
:100320002E482F492F4A4FF0C90301F07FF9FB7B7C
:10033000DBB2002BFBD04FF000037B617B685B8A54
:1003400003F01003002B1AD17B681B6A002B0FD01F
:100350007B681B6A7868984778617B69002B07D0B7
:100360007B68214819467A6901F060F97B692FE0C2
:100370007B685B8A43F010039AB27B685A827B6881
:100380005B8A03F00803002B08D07B689B8A03F08C
:100390000803002B02D06FF0060319E07B685B6A4C
:1003A0003B613B69002B05D07A883B697868114630
:1003B000984778617B69002B03D07B6913F1060FA6
:1003C00005D17B8843F008039AB27B689A827B69E7
:1003D000184607F11807BD4680BD00BF686D0010C4
:1003E000886D0010F06D0010986D001080B586B01B
:1003F00000AF78607B68002B0DD14FF00003FB73DA
:1004000012481349134A40F2031301F00FF9FB7B22
:10041000DBB2002BFBD07B689B6A3B613B69002B06
:1004200003D03B697868984778617B69002B03D0DB
:100430007B6913F1060F03D17B684FF000029A82AB
:100440007B69184607F11807BD4680BD686D00102E
:10045000886D0010E06D001090B587B000AFF860B7
:10046000B9607A603B60FB68002B0DD14FF0000350
:10047000FB7412481249134A40F24F1301F0D6F8A8
:10048000FB7CDBB2002BFBD0FB681B6B7B617B69C9
:10049000002B07D07C69F868B9687A683B68A04788
:1004A000034605E06FF0050000F0DAFA4FF00003B4
:1004B000184607F11C07BD4690BD00BF686D0010CF
:1004C000886D0010D06D001080B483B000AF7860EC
:1004D0007B681B687A6852685A607B685B687A68D8
:1004E00012681A607B687A685A607B685A687B6811
:1004F0001A6007F10C07BD4680BC704780B483B01A
:1005000000AF78607B681A687B689A4214BF00234A
:100510000123DBB2184607F10C07BD4680BC7047CB
:1005200080B584B000AF2E48FFF7E8FF0346002BEC
:1005300051D102F0A3FDF86000F086FA0346002BCB
:1005400011D02848284901F071F84FF00003FB70E2
:1005500026482749244A4FF0480301F067F8FB7802
:10056000DBB2002BFBD0F86802F08CFD02F086FDB8
:10057000B8601B48FFF7C2FF0346002B1CD1184B85
:100580001B68A3F110037B607B6803F1100318461E
:10059000FFF79AFF7B681B6F002B03D07B681B6FF4
:1005A00078689847786801F071FD0346012B07D100
:1005B000B86802F067FD0EE0B86802F063FD0AE07B
:1005C000B86802F05FFD7B685B6A184601F028FBA3
:1005D000786801F00DFD07F11007BD4680BD00BF32
:1005E0004C980010006E0010506E0010246E001029
:1005F000446E001080B582B000AF7860044B1B6879
:10060000002B02D0024B1B689847FFF789FFF5E7E4
:10061000187E001080B584B004AF0B4B00934FF4EC
:10062000807301934FF01F0302934FF02003039355
:1006300006480749074A4FF0000302F0EDF8034867
:1006400002F040F9BD4680BD187D0010A07C00106E
:10065000486E0010F505001080B483B000AF7860DC
:100660007B687A685A607B685A687B681A6007F111
:100670000C07BD4680BC704780B483B000AF786083
:1006800039607B685B683A681A607B685A683B68C7
:100690005A607B683A685A603B687A681A6007F16A
:1006A0000C07BD4680BC704780B483B000AF786053
:1006B0007B681A687B689A4214BF00230123DBB26F
:1006C000184607F10C07BD4680BC704780B582B064
:1006D00000AF78607B6803F110031846FFF7BCFF9A
:1006E0004FF00003184607F10807BD4680BD00BF64
:1006F00080B586B000AFF860B9601346FB71B8688A
:1007000002F004FAFB79002B02D0012B08D035E06F
:10071000BB6803F11003F8681946FFF7ADFF2DE041
:10072000FB681B687B6119E07B69A3F110033B61E7
:10073000BB6893F831203B6993F831309A420AD272
:100740003B6903F11002BB6803F110031046194620
:10075000FFF792FF06E07B691B687B617A69FB68A3
:100760009A42E1D17A69FB689A4206D1BB6803F1EB
:100770001003F8681946FFF77FFF00BF4FF0000332
:10078000184607F11807BD4680BD00BF80B584B08C
:1007900000AF78607B681B68A3F11003FB60F8680A
:1007A00002F0ECF94FF00003184607F11007BD46C0
:1007B00080BD00BF80B586B000AFF860B9607A60D8
:1007C000FB70FB68002B0DD14FF00003FB75124846
:1007D0001249134A4FF0C40300F028FFFB7DDBB23F
:1007E000002BFBD0FB6818464FF00101BA6801F0FE
:1007F00021FBFB681846FFF769FF7B689AB2FB682C
:100800001A83FB68FA78DA714FF00003184607F193
:100810001807BD4680BD00BF686E0010886E0010CE
:10082000346F001090B587B000AF786039607B6896
:10083000002B0DD14FF00003FB7346484649474A51
:1008400040F2391300F0F2FEFB7BDBB2002BFBD051
:10085000434B1B68002B04D0414B1B687A68104641
:10086000984702F00BFC04467B681B8B002B0AD0D8
:100870007B681B8B03F1FF339AB27B681A83204697
:1008800002F000FC55E03B68002B05D1204602F049
:10089000F9FB6FF0010357E002F0F0FB786100F024
:1008A000D3F80346002B11D02E482C4900F0BEFE91
:1008B0004FF00003BB7327482B49284A4FF4AC7311
:1008C00000F0B4FEBB7BDBB2002BFBD0786902F0FA
:1008D000D9FB01F0EDFF38613B694FF00002DA62AD
:1008E0007B6803F110027B68DB79104639691A4690
:1008F000FFF7FEFE3B68002B0FDD3B6903F148026A
:100900003B4610464FF000011A4602F003FB3B69DC
:1009100003F14803184602F06DFA204602F0B2FBDC
:1009200001F002FD3B69DB6A002B02D03B69DB6A08
:100930000AE00E4B1B68002B04D00C4B1B687A6836
:10094000104698474FF00003184607F11C07BD46B4
:1009500090BD00BF686E0010886E0010286F0010F8
:100960003C970010986E0010BC6E00103897001075
:10097000B0B582B000AF78601A4B1B68002B04D072
:10098000184B1B687A68104698474FF0000402F035
:1009900075FB05467B6803F110031846FFF784FEDC
:1009A0000346002B08D17B6803F110031846FFF7BC
:1009B000EDFE4FF0010406E07B681B8B03F10103A1
:1009C0009AB27B681A83284602F05CFB012C01D1A5
:1009D00001F0AAFC4FF00003184607F10807BD46D6
:1009E000B0BD00BF3497001080B582B000AF02F0F8
:1009F00045FB7860074B1B78DBB203F10103DAB2E9
:100A0000044B1A70786802F03DFB07F10807BD46F9
:100A100080BD00BF3297001080B582B000AF02F0F9
:100A20002DFB7860074B1B78DBB203F1FF33DAB2A2
:100A3000044B1A70786802F025FB07F10807BD46E1
:100A400080BD00BF3297001080B400AF034B1B780D
:100A5000DBB21846BD4680BC704700BF329700101D
:100A600080B584B000AF7860FFF7EEFF0346002B3F
:100A700003D00A4B7A681A600CE001F019FFF860A5
:100A8000FB68002B03D1054B7A681A6002E0FB6813
:100A90007A68DA6207F11007BD4680BD1C7E00103F
:100AA00080B489B000AFF860B9607A60FB68FB6120
:100AB000BB68DBB27B617B68032B51D9FB6803F019
:100AC0000303002B4CD1FB68BB617B694FEA032217
:100AD0007B6913433B613B694FEA03433A69134324
:100AE0003B611FE0BB693A691A60BB6903F104030B
:100AF000BB61BB693A691A60BB6903F10403BB615E
:100B0000BB693A691A60BB6903F10403BB61BB6945
:100B10003A691A60BB6903F10403BB617B68A3F106
:100B200010037B607B680F2BDCD80AE0BB693A6955
:100B30001A60BB6903F10403BB617B68A3F1040382
:100B40007B607B68032BF1D8BB69FB6108E07B69A4
:100B5000DAB2FB691A70FB6903F10103FB6100E083
:100B600000BF7B68002B0CBF00230123DBB27A6837
:100B700002F1FF327A60002BE9D1FB68184607F1D9
:100B80002407BD4680BC704780B487B000AFF860D2
:100B9000B9607A607B68002B30D0FB687B61BB68F2
:100BA0003B613B691A787B691A707B691B78002B63
:100BB00014BF00230123DBB27A6902F101027A61DA
:100BC0003A6902F101023A61002B10D007E07B691B
:100BD0004FF000021A707B6903F101037B617B68AF
:100BE00003F1FF337B607B68002BF0D106E07B686C
:100BF00003F1FF337B607B68002BD2D1FB68184682
:100C000007F11C07BD4680BC704700BF90B484B09C
:100C100000AFF860B9607A604FF0000423E0FB6831
:100C20001A78BB681B78D31ADBB2DCB263B2002B34
:100C30000CBF00230123DBB2BA6802F10102BA60E3
:100C4000002B13D1FB681B78002B14BF002301235A
:100C5000DBB2FA6802F10102FA60002B06D17B6870
:100C600003F1FF337B607B68002BD8D163B2184659
:100C700007F11007BD4690BC704700BF80B485B037
:100C800000AF78607B68FB6003E0FB6803F1010361
:100C9000FB60FB681B78002BF7D1FA687B68D31ADE
:100CA000184607F11407BD4680BC704780B582B076
:100CB00002AF0B4800F0BAFC0A4800F0B7FC0A4B40
:100CC00000930A484FF001014FF001024FF000037A
:100CD00000F0ACFC064800F0A9FCBD4680BD00BF9A
:100CE000406F00104C6F0010906F0010706F00107C
:100CF0009C6F001080B485B000AF786039603B68AD
:100D00000A2B1BD17B681B681946164BA3FB0123DA
:100D10004FEAD30213464FEA83039B184FEA43037B
:100D2000CA1AFA607B681B681A460E4BA3FB0213B3
:100D30004FEAD3031A467B681A600BE07B681B6896
:100D400003F00F03FB607B681B684FEA13131A461E
:100D50007B681A60FB68184607F11407BD4680BC23
:100D6000704700BFCDCCCCCC90B482B000AF7860DF
:100D70004FF0000410E023464FEA83031B194FEAAB
:100D8000430319467B681B681A788A18A2F130045D
:100D900003F101027B681A607B681B681B78A3F172
:100DA0003003092BE7D92346184607F10807BD464B
:100DB00090BC7047B0B58CB000AFF860B9607A6095
:100DC0003B603C6CBB6C03F04003002B01D0874BB5
:100DD00000E0874BBB62BB6C03F01003002B03D019
:100DE000BB6C23F00103BB64BB6C03F00103002B5D
:100DF00002D04FF0300301E04FF0200387F8273096
:100E00004FF0000387F82F30BB6C03F00203002B78
:100E10001ED07B68002B08DA4FF02D0387F82F30A7
:100E20007B68C3F100037B6012E0BB6C03F004033A
:100E3000002B04D04FF02B0387F82F3008E0BB6C59
:100E400003F00803002B03D04FF0200387F82F3066
:100E50004FF000057B68002B1BD107F130014B19C7
:100E60004FF0300203F81C2C05F1010515E007F1E5
:100E7000040318463968FFF73DFF0346BA6AD318E2
:100E80001A7807F130014B1903F81C2C05F1010504
:100E900000E000BF7B68002BE9D17B6C9D4200DD48
:100EA0007D647B6CE41ABB6C03F01103002B1FD133
:100EB00097F82F30002B11D0002C0FDD04F1FF34F8
:100EC0000CE0FA68BB689A4203D8FB684FF0200236
:100ED0001A70FB6803F10103FB6000E000BF002C07
:100EE000D4BF00230123DBB204F1FF34002BE8D18F
:100EF00097F82F30002B0DD0FA68BB689A4205D8BE
:100F0000FB6897F82F201A7004F1FF34FB6803F197
:100F10000103FB60BB6C03F01003002B23D10BE03B
:100F2000FA68BB689A4203D8FB6897F827201A70C2
:100F3000FB6803F10103FB60002CD4BF00230123F5
:100F4000DBB204F1FF34002BEAD10CE0FA68BB6895
:100F50009A4203D8FB684FF030021A70FB6803F125
:100F60000103FB6000E000BF7B6CAB42D4BF0023F9
:100F70000123DBB27A6C02F1FF327A64002BE5D1F7
:100F80000EE0FA68BB689A4206D807F1300253199E
:100F900013F81C2CFB681A70FB6803F10103FB605B
:100FA000002DD4BF00230123DBB205F1FF35002B58
:100FB000E7D10BE0FA68BB689A4203D8FB684FF0B0
:100FC00020021A70FB6803F10103FB60002CD4BF00
:100FD00000230123DBB204F1FF34002BEAD1FB68CC
:100FE000184607F13007BD46B0BD00BFD06F0010F6
:100FF000E46F001080B592B004AFF860B9607A6019
:101000003B60FB68BB62BB6803F1FF33FA68D3182F
:101010007B627A6AFB689A4280F0B6824FF0FF33B7
:101020007B627A6AFB68D31ABB60ADE27B681B788F
:10103000252B0CD0BA6A7B6A9A4203D87B681A784F
:10104000BB6A1A70BB6A03F10103BB6297E24FF0FF
:101050000003BB777B6803F101037B607B681B782F
:101060002D2B04D1BB7F43F01003BB77F2E77B68E5
:101070001B782B2B04D1BB7F43F00403BB77E9E73C
:101080007B681B78202B04D1BB7F43F00803BB7720
:10109000E0E77B681B78232B04D1BB7F43F0200360
:1010A000BB77D7E77B681B78302B04D1BB7F43F03D
:1010B0000103BB77CEE700BF4FF0FF33BB617B6816
:1010C0001B78A3F13003092B06D807F10403184657
:1010D000FFF74AFEB86118E07B681B782A2B14D111
:1010E0007B6803F101037B603B6803F104023A6013
:1010F0001B68BB61BB69002B07DABB69C3F1000346
:10110000BB61BB7F43F01003BB774FF0FF337B61C4
:101110007B681B782E2B24D17B6803F101037B6055
:101120007B681B78A3F13003092B06D807F1040371
:101130001846FFF719FE78610DE07B681B782A2BB3
:1011400009D17B6803F101037B603B6803F1040272
:101150003A601B687B617B69002B02DA4FF0000369
:101160007B614FF000037B777B681B78682B03D093
:101170007B681B786C2B06D17B681B787B777B6840
:1011800003F101037B604FF00A03FB777B681B7858
:10119000A3F12503532B00F2968101A252F823F00C
:1011A0008B140010C7140010C7140010C7140010CF
:1011B000C7140010C7140010C7140010C714001083
:1011C000C7140010C7140010C7140010C714001073
:1011D000C7140010C7140010C7140010C714001063
:1011E000C7140010C7140010C7140010C714001053
:1011F000C7140010C7140010C7140010C714001043
:10120000C7140010C7140010C7140010C714001032
:10121000C7140010C7140010C7140010C714001022
:10122000C7140010C7140010C7140010C714001012
:10123000C7140010C7140010C7140010C714001002
:10124000C7140010C7140010C7140010C7140010F2
:10125000C7140010C7140010C7140010C7140010E2
:10126000C7140010C7140010C7140010AD140010EC
:10127000C7140010C7140010C7140010C7140010C2
:10128000C7140010C7140010C7140010C7140010B2
:10129000C7140010C7140010F1120010BD14001084
:1012A000C7140010C7140010C7140010C714001092
:1012B000BD140010C7140010C7140010C71400108C
:1012C000C7140010C7140010A51400104D1400100E
:1012D000C7140010C71400106F130010C7140010BB
:1012E0000B150010C7140010C7140010B51400101F
:1012F000BB7F03F01003002B13D10BE0BA6A7B6AAB
:101300009A4203D8BB6A4FF020021A70BB6A03F1FD
:101310000103BB62BB6903F1FF33BB61BB69002BF7
:10132000ECDC3B6803F104023A601B68FB74BA6AA8
:101330007B6A9A4202D8BB6AFA7C1A70BB6A03F1D4
:101340000103BB620BE0BA6A7B6A9A4203D8BB6AAC
:101350004FF020021A70BB6A03F10103BB62BB6944
:1013600003F1FF33BB61BB69002BECDC07E13B6899
:1013700003F104023A601B683B623B6A002B01D117
:101380008F4B3B62386AFFF779FC0346FB627B694F
:10139000002B05DDFA6A7B699A4201DD7B69FB62FD
:1013A000BB7F03F01003002B19D10BE0BA6A7B6AF4
:1013B0009A4203D8BB6A4FF020021A70BB6A03F14D
:1013C0000103BB62BA69FB6A9A42D4BF00230123BE
:1013D000DBB2BA6902F1FF32BA61002BE6D14FF0FD
:1013E00000033B6313E0BA6A7B6A9A4203D83B6A04
:1013F0001A78BB6A1A70BB6A03F10103BB623B6ACD
:1014000003F101033B623B6B03F101033B633A6B66
:10141000FB6A9A42E7DB0BE0BA6A7B6A9A4203D81E
:10142000BB6A4FF020021A70BB6A03F10103BB6272
:10143000BA69FB6A9A42D4BF00230123DBB2BA69BE
:1014400002F1FF32BA61002BE6D198E0BB69B3F13B
:10145000FF3F06D14FF00803BB61BB7F43F00103A0
:10146000BB773B6803F104023A601B68BA7FB96935
:101470000091796901910292B86A796A1A464FF02F
:101480001003FFF797FCB86279E0BA6A7B6A9A4268
:1014900003D8BB6A4FF025021A70BB6A03F101033F
:1014A000BB626CE04FF00803FB772FE0BB7F43F09B
:1014B0004003BB774FF01003FB7727E0BB7F43F07F
:1014C0000203BB7721E0BA6A7B6A9A4203D8BB6AFF
:1014D0004FF025021A70BB6A03F10103BB627B68FF
:1014E0001B78002B0CD0BA6A7B6A9A4203D87B68BF
:1014F0001A78BB6A1A70BB6A03F10103BB623EE053
:101500007B6803F1FF337B6039E000BF7B7F6C2B8E
:101510000AD13B6803F104023A601B687B63BB7F1E
:1015200003F00203002B1DE07B7F682B10D13B688A
:1015300003F104023A601B689BB27B63BB7F03F03C
:101540000203002B0ED07B6B9BB21BB27B6309E0C6
:101550003B6803F104023A601B687B63BB7F03F0C6
:101560000203002B7A6BFB7FB97FB8690090786922
:1015700001900291B86A796AFFF71CFCB8627B6837
:1015800003F101037B6000E000BF7B681B78002B48
:101590007FF44CADBA6A7B6A9A4204D8BB6A4FF0BA
:1015A00000021A7003E07B6A4FF000021A70BA6AF8
:1015B000FB68D31A184607F13807BD4680BD00BF47
:1015C000C86F001080B584B000AF7860114B1B6805
:1015D000FB607868FEF756FEB860BB68002B12D03F
:1015E0000C4B1B68002B04D00A4B1B681846FEF7F7
:1015F000FDFE084BBA681A60064B1B6818464FF090
:101600000301FEF781FEFB68184607F11007BD468F
:1016100080BD00BF207E001080B483B000AF786032
:1016200007F10C07BD4680BC704700BF0FB480B502
:1016300082B000AF07F114033B6010484FF0800107
:101640003A693B68FFF7D6FC03467B600C4B1B688E
:10165000002B03D10948FFF7DFFF08E0084B1B68A8
:1016600018464FF00001054A7B68FEF7F5FE07F1CA
:101670000807BD46BDE8804004B07047247E0010D6
:10168000207E001080B586B000AF7860444B1B68A8
:101690007A689A420DD24FF00003FB7341484249E9
:1016A000424A4FF08103FFF7C1FFFB7BDBB2002B07
:1016B000FBD03F4B1B687A689A420DD34FF0000372
:1016C000BB7338483B49394A4FF08203FFF7AEFFFE
:1016D000BB7BDBB2002BFBD07B685B88002B0DD083
:1016E0004FF000037B732F483349304A4FF0830398
:1016F000FFF79CFF7B7BDBB2002BFBD0284B1A68EB
:101700007B685B68D3187B617A687B699A421ED0DC
:101710007B695B88002B1AD1254B1B687A699A423A
:1017200015D0264B1A687B699A4202D1234B7A68FE
:101730001A607B695A687B685A60194B1A687B6922
:101740005B68D3187968164A12688A1A9A60144B33
:101750001A687B689B68D3183B613A697B689A4238
:1017600019D03B695B88002B15D1144B1A687B6834
:101770009A4202D1114B3A691A607B685A683B69F8
:101780005A60074B1A687B685B68D3183969044A4A
:1017900012688A1A9A6007F11807BD4680BD00BF1B
:1017A000AC7E0010F86F001018700010A8720010C6
:1017B000B07E00103870001064700010B47E00100D
:1017C00080B588B000AF786039607B6803F10303AF
:1017D00023F00303FB613B6823F00303BB6101F0CB
:1017E0004DFC7861FFF730F90346002B11D03A48E1
:1017F0003A49FFF71BFF4FF00003FB7338483949A4
:10180000364A4FF0AE03FFF711FFFB7BDBB2002B34
:10181000FBD0786901F036FCBB69182B50D9BB6945
:10182000A3F11802FB699A424AD3BA69FB69D31A39
:10183000A3F118022C4B1A60FA692C4B1A602B4B3F
:101840001B683B613B694FF4F5521A80264B1B68BD
:1018500003F10C023B695A603B694FF000029A6049
:101860003B694FF000025A80204B1A683B695B6865
:10187000D2181F4B1A601E4B1B684FF4F5521A808A
:101880001B4B1B684FF001025A80194B1B68164A0C
:10189000126802F10C025A60154B1B68124A12685A
:1018A00002F10C029A60134813494FF001024FF005
:1018B0000003FEF77FFF0D4B1A68104B1A6007E01C
:1018C0007A683B680E4811461A46FFF7AFFE00BF24
:1018D00007F12007BD4680BD74700010947200109F
:1018E000F86F001098700010D47E0010AC7E0010CD
:1018F000B07E0010B87E00109C700010B47E001006
:10190000A470001080B58AB000AF786001F0B6FB1B
:101910003862FFF799F80346002B11D05F48604901
:10192000FFF784FE4FF00003FB745E485E495C4A9B
:101930004FF0EA03FFF77AFEFB7CDBB2002BFBD013
:10194000386A01F09FFB7B68002B02D14FF0000347
:1019500049E17B6803F1030323F003037B60534BEE
:101960001B687A689A4202D94FF000033BE17B681A
:101970000B2B02D84FF00C037B604D484FF0FF312A
:10198000FEF750FF4B4B1B681A464B4B1B68D31A94
:101990007B621BE1484B1A687B6AD318FB61FB69C9
:1019A0005B88002B40F00C81FB695A687B6AD31A74
:1019B000A3F10C027B689A42C0F00281FB695A686D
:1019C0007B6AD31AA3F10C027B6803F118039A42D5
:1019D0003ED37A6A7B68D31803F10C03BB61364BA4
:1019E0001A68BB69D3187B617B694FF000025A808B
:1019F000FB695A687B695A607B697A6A9A60FB69FD
:101A0000BA695A60FB694FF001025A807B695A68D3
:101A1000264B1B6803F10C039A4206D0264B1A682A
:101A20007B695B68D318BA699A60244B1A687B6833
:101A3000D31803F10C02214B1A60214B1A681F4B7B
:101A40001B689A421FD21D4B1A681D4B1A601AE080
:101A5000FB694FF001025A80FB695A68164B1B68FC
:101A60001946FB69CB1AD218144B1B68D218134BBA
:101A70001A60134B1A68114B1B689A4203D20F4B22
:101A80001A680F4B1A60FB694FF4F5521A80094B24
:101A90001B68FA699A4241D11CE000BF74700010C3
:101AA00088720010F86F001098700010D47E00103B
:101AB000B87E0010B47E0010AC7E0010D87E0010FE
:101AC000DC7E00104A4B1A684A4B1B685B68D218D0
:101AD000484B1A60474B1B685B88002B05D0454B71
:101AE0001A68454B1B689A42ECD1424B1A68424B2C
:101AF0001B689A4212D03F4B1B685B88002B0DD0AD
:101B00004FF00003BB743D483D493E4A4FF4A57376
:101B1000FFF78CFDBB7CDBB2002BFBD03A48FEF715
:101B200027FFFA697B68D31803F10C02324B1B685C
:101B30009A420DD94FF000037B7430483349314A43
:101B40004FF4A773FFF772FD7B7CDBB2002BFBD059
:101B5000FB6903F10C0303F00303002B0DD04FF0DE
:101B600000033B7425482A49264A40F24F13FFF7E9
:101B70005DFD3B7CDBB2002BFBD0FB6903F0030374
:101B8000002B0DD04FF00003FB731C4821491D4A68
:101B90004FF4A873FFF74AFDFB7BDBB2002BFBD0B1
:101BA0001D4B1B68002B07D01B4B1B68FA6902F109
:101BB0000C02104679689847FB6903F10C0312E0A8
:101BC0000B4B1A687B6AD3185B687B62134B1A68ED
:101BD0007B68D21A7B6A9A423FF6DCAE0A48FEF76F
:101BE000C7FE4FF00003184607F12807BD4680BD29
:101BF000AC7E0010B47E0010B07E0010F86F0010B4
:101C0000E070001088720010B87E0010087100109B
:101C1000507100109C710010A47E0010D47E001042
:101C200080B586B000AF786001F028FA7861FEF7E1
:101C30000BFF0346002B11D057485849FFF7F6FC1D
:101C40004FF00003FB7356485649544A4FF4F37360
:101C5000FFF7ECFCFB7BDBB2002BFBD0786901F0DB
:101C600011FA7B68002B00F08F807B6803F0030380
:101C7000002B0DD04FF00003BB7349484A49474A37
:101C80004FF4F573FFF7D2FCBB7BDBB2002BFBD02C
:101C9000464B1B687A689A4204D3454B1B687A68A6
:101CA0009A420DD34FF000037B733D4841493B4AB4
:101CB0004FF4F673FFF7BAFC7B7BDBB2002BFBD053
:101CC0003D4B1B68002B03D03B4B1B687868984743
:101CD000364B1B687A689A4258D3354B1B687A6832
:101CE0009A4253D27B68A3F10C033B6133484FF017
:101CF000FF31FEF797FD3B695B88002B0DD14FF05C
:101D000000033B7326482E49244A40F20323FFF781
:101D10008DFC3B7BDBB2002BFBD03B691B88B3F512
:101D2000F55F0DD04FF00003FB721D4825491B4A9B
:101D30004FF40173FFF77AFCFB7ADBB2002BFBD088
:101D40003B694FF000025A803B694FF000021A8055
:101D50001D4B1B683A699A4202D21B4B3A691A60C2
:101D60001A4B1A683B695968104B1B6818463B6947
:101D7000C31ACB18D21A154B1A603869FFF782FCC8
:101D80000E48FEF7F5FD02E000BF00E000BF07F1DE
:101D90001807BD4680BD00BF74700010807200102F
:101DA000F86F001098700010CC710010AC7E00101D
:101DB000B07E0010FC710010A87E0010B87E0010EC
:101DC0005872001064720010B47E0010D87E0010AB
:101DD00080B483B000AF786039607B681B683A6874
:101DE0005A607B681A683B681A607B683A681A60B8
:101DF0003B687A685A6007F10C07BD4680BC7047A3
:101E000080B483B000AF78607B681B687A685268E2
:101E10005A607B685B687A6812681A607B687A68C7
:101E20005A607B685A687B681A6007F10C07BD46E8
:101E300080BC704790B587B000AFF8600B467A6001
:101E4000FB72FB7A4FEA0312154BD3187B61FB7AC6
:101E500063F07F03DAB2FB689A71FB681846796811
:101E60004FF00602FEF790FE0E4B1B68002B03D0CE
:101E70000C4B1B68F868984701F000F904467B6931
:101E800003F10402FB6803F1080310461946FFF74B
:101E90009FFF204601F0F6F807F11C07BD4690BDF4
:101EA000C47B0010E07E001090B585B000AF786074
:101EB0007B68002B0DD14FF00003FB7311481249D2
:101EC000124A4FF0ED03FFF7B1FBFB7BDBB2002BB7
:101ED000FBD00F4B1B68002B03D00D4B1B687868A1
:101EE000984701F0CBF804467B6803F108031846D5
:101EF000FFF786FF204601F0C5F807F11407BD463D
:101F000090BD00BFB4720010D47200108073001036
:101F1000E47E001090B587B000AF03463960FB71D6
:101F200001F0ACF87861FEF78FFD0346002B11D06D
:101F300029482A49FFF77AFB4FF00003FB72284833
:101F40002849264A4FF48573FFF770FBFB7ADBB212
:101F5000002BFBD0786901F095F8FB794FEA03126A
:101F6000214BD3183B613B69DB681846FFF7CAFC7D
:101F7000F860FB68002B02D14FF0000326E0FB68FD
:101F8000FA799A71FB684FF00002DA71FB68184623
:101F900039684FF00602FEF7F7FD144B1B68002B63
:101FA00003D0124B1B68F868984701F067F80446A5
:101FB0003B6903F10402FB6803F10803104619466C
:101FC000FFF706FF204601F05DF8FB68184607F1B1
:101FD0001C07BD4690BD00BFE87200106C73001076
:101FE000B47200100C730010C47B0010E07E00106F
:101FF00090B585B000AF78607B68002B0DD14FF0B5
:102000000003FB731C481D491D4A4FF4A473FFF7DE
:102010000DFBFB7BDBB2002BFBD07B689B79DBB23B
:102020005BB2002B0DDA4FF00003BB731248154969
:10203000134A40F24913FFF7F9FABB7BDBB2002BDE
:10204000FBD0114B1B68002B03D00F4B1B6878682B
:10205000984701F013F804467B6803F1080318461B
:10206000FFF7CEFE204601F00DF87868FFF7D8FDA7
:1020700007F11407BD4690BDB4720010D472001071
:102080005873001010730010E47E001080B584B007
:1020900000AF78607B68002B0DD14FF00003FB731D
:1020A0000D480E490E4A40F26D13FFF7BFFAFB7B55
:1020B000DBB2002BFBD07B689B79DBB25BB2002BE1
:1020C00002DA4FF0010301E04FF00003184607F178
:1020D0001007BD4680BD00BFB4720010D47200105E
:1020E0003C73001080B483B000AF78607B687A687E
:1020F0005A607B685A687B681A6007F10C07BD4616
:1021000080BC704780B483B000AF786039607B6872
:102110005B683A681A607B685A683B685A607B68FB
:102120003A685A603B687A681A6007F10C07BD4646
:1021300080BC704780B483B000AF78607B681B6858
:102140007A6852685A607B685B687A6812681A60BD
:102150007B687A685A607B685A687B681A6007F106
:102160000C07BD4680BC704780B483B000AF786078
:102170007B681A687B689A4214BF00230123DBB294
:10218000184607F10C07BD4680BC704780B584B087
:1021900000AF78607B68002B0DD14FF00003FB721D
:1021A0001D481E491E4A4FF06103FFF73FFAFB7AB4
:1021B000DBB2002BFBD07B689B691A467B685B6AAD
:1021C0009A420AD97B689B691A467B685B6A194602
:1021D0007B681B8DCB189A420CD97B681148194635
:1021E000FFF724FA00F04AFF0346FB60FB68002B70
:1021F000FCD10DE07B689B691A467B685B6A03F142
:1022000020039A4204D87B6807481946FFF70EFA64
:1022100007F11007BD4680BD94740010B47400101F
:1022200054750010C8740010E474001098B500AF25
:10223000104B4FF000021A804FF0000408E04FEA04
:10224000C4020D4BD3181846FFF74CFF04F10104EC
:102250001F2CF4DD094B4FF01F021A70084B4FF092
:1022600000021A60074B4FF000021A600648FFF7A1
:1022700039FF98BDE87E001040970010409800108C
:1022800044980010489800104C98001098B500AF82
:10229000214B1B68DBB2002B06D01F4B1B68DBB247
:1022A0001E4AD35C1C462AE01B4B1B6803F47F4389
:1022B000002B0AD0184B1B684FEA1323DBB2174AD6
:1022C000D35C03F108031C4619E0134B1B6803F4AD
:1022D0007F03002B0AD0104B1B684FEA1343DBB27D
:1022E0000E4AD35C03F110031C4608E00A4B1B683E
:1022F0004FEA1363094AD35C03F118031C46084BE9
:1023000053F83430A3F11004064B1C6004F1180399
:10231000184600F0E8FE98BD48980010947300102D
:10232000409700104498001090B585B000AF00F0C1
:10233000A5FEF8603E4B1B88002B72D13D4B1B68FD
:10234000DBB2002B06D03B4B1B68DBB23A4AD35CB6
:102350001C462AE0374B1B6803F47F43002B0AD04E
:10236000344B1B684FEA1323DBB2334AD35C03F1CF
:1023700008031C4619E02F4B1B6803F47F03002B56
:102380000AD02C4B1B684FEA1343DBB22A4AD35CBA
:1023900003F110031C4608E0264B1B684FEA136349
:1023A000254AD35C03F118031C46244B53F8343000
:1023B000A3F11003BB60224B1B68BA689A4230D06D
:1023C000E2B2204B1A701E4B1B687B601C4BBA6834
:1023D0001A601D4B1B68002B04D01B4B1B687868D0
:1023E000B9689847B868FFF7D1FE184B1B78DBB285
:1023F000002B0BD17B6803F118031A46BB6803F16D
:1024000018031046194600F040FE0AE07B6803F10D
:1024100018031A46BB6803F118031046194600F06A
:1024200034FEF86800F02EFE07F11407BD4690BD9B
:10243000E87E001048980010947300104097001038
:102440004498001040980010EC7E00103297001065
:1024500090B585B000AF78607B68002B0DD14FF050
:102460000003FB7317481849184A4FF49A73FFF793
:10247000DDF8FB7BDBB2002BFBD000F0FFFD044658
:102480007B684FF0010283F830207B6893F831308D
:102490004FEAC3020E4BD2187B6803F110031046BB
:1024A0001946FFF72FFE7B685A6B0A4B1B681A43CD
:1024B000084B1A60204600F0E5FD07F11407BD4601
:1024C00090BD00BF94740010B474001038750010F3
:1024D000409700104898001090B585B000AF786024
:1024E0007B68002B0DD14FF00003FB73184819498E
:1024F000194A4FF4AE73FFF799F8FB7BDBB2002B60
:10250000FBD000F0BBFD04467B6803F110031846C6
:10251000FFF710FE7B6893F831304FEAC3020F4B90
:10252000D3181846FFF720FE0346002B08D07B681F
:102530005B6B6FEA03020A4B1B681A40084B1A6078
:10254000204600F09FFD07F11407BD4690BD00BF77
:1025500094740010B47400101C75001040970010A3
:102560004898001098B500AF00F088FD0446054B70
:102570001B8803F101039AB2024B1A80204600F037
:1025800081FD98BDE87E001098B500AF00F076FDA3
:1025900004460D4B1B8803F1FF339AB20A4B1A8095
:1025A000094B1B881BB2002B09DC074B4FF00002C4
:1025B0001A80204600F066FDFFF7B6FE02E02046D6
:1025C00000F060FD98BD00BFE87E001080B483B0CD
:1025D00000AF78607B687A685A607B685A687B686D
:1025E0001A6007F10C07BD4680BC704780B483B009
:1025F00000AF786039607B681B683A685A607B6816
:102600001A683B681A607B683A681A603B687A68A7
:102610005A6007F10C07BD4680BC704780B483B098
:1026200000AF786039607B685B683A681A607B68E5
:102630005A683B685A607B683A685A603B687A68B7
:102640001A6007F10C07BD4680BC704780B483B0A8
:1026500000AF78607B681B687A6852685A607B6854
:102660005B687A6812681A607B687A685A607B686F
:102670005A687B681A6007F10C07BD4680BC70473A
:1026800090B583B000AF1C4B1B687B6000F0F6FC7C
:1026900004467868FFF720FF7B684FF0040283F858
:1026A00030207B6803F158031846FFF7CFFF7B68A3
:1026B00003F148031846FFF7F7FB7868FFF7E6FCDD
:1026C0000346012B07D17B681B6F002B03D1786871
:1026D000FFF7EAFB06E07B6803F1100307481946A1
:1026E000FFF784FF204600F0CDFCFFF71DFE07F149
:1026F0000C07BD4690BD00BF449800104C980010D8
:1027000080B588B002AFF860B9607A603B60FB6862
:1027100003F110031846FFF759FFFB687A68DA6186
:10272000FB683A681A62FB683A6A5A627B6A9AB234
:10273000FB681A85FB685A6AFB681B8D10464FF0D0
:1027400023011A46FEF7ACF9FB68D969FB681A6ADF
:10275000FB68586AFB681B8DA3F10403C318084685
:1027600011461A46274B00F0F1FC0246FB689A61BD
:1027700097F828301F2B0DD94FF00003FB75224826
:102780002249234A4FF06003FEF750FFFB7DDBB286
:10279000002BFBD0FB6897F8282083F83220FB68D9
:1027A00097F8282083F83120FB68FA6A1A64FB68DE
:1027B000FA6A5A64FB684FF00002DA62FB684FF075
:1027C000000283F83020FB684FF000021A67FB68B4
:1027D0004FF000025A67FB6803F14802FB684FF0B4
:1027E000000100914FF00001019110461946094A7D
:1027F000FB6800F0CDFA4FF00003184607F1180708
:10280000BD4680BD812600107075001090750010C7
:10281000947600100D2C001080B58AB004AFF860DB
:10282000B9607A603B60FB68002B0DD14FF000036C
:10283000FB751B481B491C4A4FF09703FEF7F6FE39
:10284000FB7DDBB2002BFBD03B6A002B0DD14FF0A0
:102850000003BB7512481549134A4FF09803FEF761
:10286000E5FEBB7DDBB2002BFBD0F8684FF000012A
:10287000BA68FFF7DFFA3B6A00937B6A019397F827
:1028800028300293FB6A0393F868B9687A683B685A
:10289000FFF736FF0346184607F11807BD4680BD0F
:1028A00070750010B475001084760010C8750010A3
:1028B00080B400AF024B1B681846BD4680BC704711
:1028C0004498001080B584B000AF78607B68002B1E
:1028D0000DD14FF00003FB7321482249224A4FF0EB
:1028E000B803FEF7A3FEFB7BDBB2002BFBD07B68BB
:1028F00093F83030002B0DD04FF00003BB73184815
:102900001A49194A4FF0B903FEF790FEBB7BDBB2C0
:10291000002BFBD07B6893F832207B6883F8312052
:102920007B6893F831304FF0010202FA03F31A4644
:102930007B685A637B684FF0020283F83020786826
:1029400000F01CF9FFF7B4FF0346002B01D0FFF79E
:10295000EBFC4FF00003184607F11007BD4680BDA1
:1029600070750010B475001070760010E0750010DE
:1029700080B58AB004AFF860B9607A603B604FF010
:102980000000F968FFF7C6FA78617B69002B02D175
:102990004FF000031CE03868FEF7B4FF38613B6974
:1029A000002B05D17869FFF723FB4FF000030FE000
:1029B0003B6900933B68019397F8203002937B6A50
:1029C00003937869F968BA687B68FFF799FE7B69B9
:1029D000184607F11807BD4680BD00BF90B583B00B
:1029E00000AF00F04BFB0446194B1B687B607B6813
:1029F00093F83030012B21D17B681A697B685B69C1
:102A00009A421BD07B6803F110031846FFF71EFEA5
:102A10007B6893F831304FEAC3020E4BD2187B68C3
:102A200003F1100310461946FFF7F8FD204600F0A9
:102A300029FBFFF779FC4FF0000304E0204600F08B
:102A400021FB4FF00003184607F10C07BD4690BD6F
:102A5000449800104097001090B585B000AF7860A2
:102A600000F00CFB04461E4B1B68FB60FB68002B50
:102A70000DD14FF00003FB721A481B491B4A4FF45B
:102A8000C873FEF7D3FDFB7ADBB2002BFBD0F868EE
:102A900000F03CF8FB6803F1480207F1040310461C
:102AA0004FF000011A4600F035FAFB6803F14803C5
:102AB000184600F09FF9204600F0E4FAFFF734FCD6
:102AC000FB68DB6A13F1020F03D1FB684FF00002D1
:102AD000DA624FF00003184607F11407BD4690BDB7
:102AE0004498001070750010B475001060760010E6
:102AF00080B582B000AF78607868FFF7ADFF03461D
:102B0000184607F10807BD4680BD00BF90B585B0E7
:102B100000AF78607B68002B0DD14FF00003FB7392
:102B200013481449144A40F21123FEF77FFDFB7B42
:102B3000DBB2002BFBD07B6893F83030012B02D046
:102B40004FF0FF330FE000F099FA04467B684FF036
:102B5000020283F830207868FFF7BEFC204600F0C0
:102B600091FA4FF00003184607F11407BD4690BDD7
:102B700070750010B47500104C76001090B585B0DB
:102B800000AF78607B68002B0DD14FF00003FB7322
:102B90001B481C491C4A40F23723FEF747FDFB7BCC
:102BA000DBB2002BFBD07B6893F83030022B02D0D5
:102BB0004FF0FF331FE000F061FA04467B6803F139
:102BC00010031846FFF742FD7B6803F158031846CF
:102BD000FFF73CFD7B6893F84F3023F00103DAB236
:102BE0007B6883F84F20204600F04CFA7868FFF7A6
:102BF0002FFC4FF00003184607F11407BD4690BDA7
:102C000070750010B47500103876001080B584B06F
:102C100000AF78607B68FB60FB68002B0DD14FF044
:102C20000003FB7218481949194A40F26623FEF75F
:102C3000FDFCFB7ADBB2002BFBD0FB6893F8303055
:102C4000022B0DD04FF00003BB720F481149104A00
:102C500040F26723FEF7EAFCBB7ADBB2002BFBD025
:102C6000FB686FF00102DA62FB6803F1100318469B
:102C7000FFF7ECFCF868FFF7EBFBFFF755FB07F1FC
:102C80001007BD4680BD00BF70750010B475001000
:102C9000247600100076001080B483B000AF786016
:102CA0007B687A685A607B685A687B681A6007F1AB
:102CB0000C07BD4680BC704780B483B000AF78601D
:102CC00039607B685B683A681A607B685A683B6861
:102CD0005A607B683A685A603B687A681A6007F104
:102CE0000C07BD4680BC704780B483B000AF7860ED
:102CF0007B681B687A6852685A607B685B687A6890
:102D000012681A607B687A685A607B685A687B68C8
:102D10001A6007F10C07BD4680BC704780B483B0D1
:102D200000AF78607B681A687B689A4214BF002302
:102D30000123DBB2184607F10C07BD4680BC704783
:102D400080B584B000AFF860B9607A603B60FB6822
:102D50003A7EDA71FB68DB7923F00103DAB2FB68B3
:102D6000DA71FB68BA689A61FB687A68DA61FB68B5
:102D70004FF000025A62FB683A681A62FB6803F17E
:102D800010031846FFF788FF07F11007BD4680BD06
:102D900080B588B002AFF860B9607A603B60FB68CC
:102DA000002B0DD14FF00003FB750F480F49104A5F
:102DB0004FF07403FEF73AFCFB7DDBB2002BFBD037
:102DC000F8684FF00901BA68FFF734F897F8243033
:102DD0000093F86879683A683B6AFFF7B1FF07F13A
:102DE0001807BD4680BD00BFA4760010C476001051
:102DF0002077001090B587B000AF78607B68002B1B
:102E00000DD14FF00003FB723B483C493C4A4FF068
:102E1000E403FEF70BFCFB7ADBB2002BFBD07B68F4
:102E2000DB7903F00103002B02D04FF0FF335EE0AB
:102E3000344B1B68002B04D0324B1B687A68104659
:102E400098477B681A6A304B9A420DD94FF00003BD
:102E5000BB7229482D492A4A4FF0EB03FEF7E6FBE7
:102E6000BB7ADBB2002BFBD0FDF7B6F902467B68DC
:102E70001B6AD2187B685A6200F000F90446244BA2
:102E80003B613B691B687B6116E07B69A3F1100322
:102E9000FB60FB685A6A7B685B6AD21A1A4B9A42DB
:102EA00007D87B6803F1100378691946FFF704FF20
:102EB00006E07B691B687B617A693B699A42E4D1D1
:102EC0007A693B699A4206D17B6803F110037869FD
:102ED0001946FFF7F1FE7B68DB7943F00103DAB2B4
:102EE0007B68DA71204600F0CDF84FF000031846F9
:102EF00007F11C07BD4690BDA4760010C4760010F3
:102F00001077001038970010FEFFFF7FD876001072
:102F1000647C001080B586B000AFF8600B467A6024
:102F2000FB72FB68002B0DD14FF00003FB751D48B1
:102F30001D491E4A4FF4AB73FEF778FBFB7DDBB2F5
:102F4000002BFBD0FB7A032B24D801A252F823F0EC
:102F50006B2F0010612F0010752F0010852F0010AF
:102F6000FB681A6A7B681A6014E07B681A68FB6861
:102F70001A620FE0FB68DB7923F00203DAB2FB6828
:102F8000DA7107E0FB68DB7943F00203DAB2FB6831
:102F9000DA7100BF4FF00003184607F11807BD466D
:102FA00080BD00BFA4760010C4760010FC7600102F
:102FB00090B583B000AFFDF70FF9786000F05EF8D0
:102FC000044640E0274B1B68A3F110033B603B68BD
:102FD0005B6A7A68D21A244B9A423BD8234B1B680F
:102FE000002B03D0214B1B68386898473B6803F1DE
:102FF00010031846FFF778FE3B689B693A68D26970
:1030000010469847FDF7E8F878603B68DB7903F0F5
:103010000203002B10D03B68DB7903F00103002B87
:103020000AD03B68DB7923F00103DAB23B68DA713E
:103030003868FFF7DFFE06E03B68DB7923F0010329
:10304000DAB23B68DA710748FFF768FE0346002BE7
:10305000B8D000E000BF204600F014F807F10C07DC
:10306000BD4690BD647C0010FEFFFF7FF07E001027
:1030700080B400AFBD4680BC704700BFEFF3108046
:1030800072B6704780F310887047294A1368012B85
:1030900000F005804FF001031360264A1060264AB5
:1030A00011602648264901607047EFF3108272B61E
:1030B0001F48016891B14FF0000101601D4801688F
:1030C00029B1EFF3098121E9F00F006801601A4985
:1030D00009680968B1E8F00F81F3098882F3108864
:1030E0004EF0040E70471449086012494FF000007A
:1030F00008600F494FF00100086012481249D0F8EB
:10310000002041EA020101600C480D49016062B6ED
:10311000704700BFEFF3098000B500F0A1F85DF83B
:1031200004EB4EF0040E7047EFF30580704700008B
:103130005C980010589800105498001004ED00E0BE
:103140000000001020ED00E00000FF0080B487B018
:1031500000AFF860B9607A603B607B687B617B6937
:103160004FF080721A607B69A3F104037B61FA68F7
:103170007B691A607B69A3F104037B613A687B6910
:103180001A607B69A3F104037B617B694FF0000245
:103190001A607B69A3F104037B617B694FF0000235
:1031A0001A607B69A3F104037B617B694FF0000225
:1031B0001A607B69A3F104037B617B694FF0000215
:1031C0001A607B69A3F104037B61BA687B691A60AA
:1031D0007B69A3F104037B617B694FF000021A60F5
:1031E0007B69A3F104037B617B694FF000021A60E5
:1031F0007B69A3F104037B617B694FF000021A60D5
:103200007B69A3F104037B617B694FF000021A60C4
:103210007B69A3F104037B617B694FF000021A60B4
:103220007B69A3F104037B617B694FF000021A60A4
:103230007B69A3F104037B617B694FF000021A6094
:103240007B69A3F104037B617B694FF000021A6084
:103250007B69184607F11C07BD4680BC704700BF5C
:1032600080B582B000AF78607B68DB691A48194688
:10327000FEF7DCF97B689B6918481946FEF7D6F91A
:103280007B685B6916481946FEF7D0F97B681B69B5
:1032900014481946FEF7CAF97B68DB6812481946DC
:1032A000FEF7C4F97B689B6810481946FEF7BEF923
:1032B0007B685B680E481946FEF7B8F97B681B68A7
:1032C0000C481946FEF7B2F90B4B1B680B48194620
:1032D000FEF7ACF9FEE700BF307700104077001032
:1032E0005077001060770010707700108077001022
:1032F00090770010A077001044980010B07700106D
:1033000080B400AF00BFBD4680BC704780B483B0BE
:1033100000AF78607B687A685A607B685A687B681F
:103320001A6007F10C07BD4680BC704780B483B0BB
:1033300000AF786039607B685B683A681A607B68C8
:103340005A683B685A607B683A685A603B687A689A
:103350001A6007F10C07BD4680BC704780B483B08B
:1033600000AF78607B681A687B689A4214BF0023BC
:103370000123DBB2184607F10C07BD4680BC70473D
:1033800080B586B000AFF8607B600B467B8113464A
:103390003B81FB68002B0DD14FF00003FB752148EA
:1033A0002149224A4FF01F03FEF740F9FB7DDBB2B3
:1033B000002BFBD0FB687A681A62FB687A891A8056
:1033C000FB683A895A80FB684FF000025A60FB683C
:1033D0004FF000021A81FB684FF000025A81FB682F
:1033E00003F110031846FFF791FFFB6803F1180380
:1033F0001846FFF78BFF7B894FEAC3031846FEF799
:1034000081FA0246FB68DA60FB68DB68002B02D1B8
:103410006FF0040301E04FF00003184607F11807AE
:10342000BD4680BD0078001020780010A8780010FC
:1034300080B58AB000AFF860B9607A603B60FB6825
:10344000002B0DD14FF00003FB7468486849694AAE
:103450004FF04103FEF7EAF8FB7CDBB2002BFBD018
:103460004FF000033B62FFF723FAF861FB681B880B
:1034700003F1FF337B83FFF701FE03467B625BE0D2
:10348000FB684FF001025A603B68002B03D16FF0DC
:1034900001033B6293E0FFF7F1FD7861FDF7D4FA99
:1034A0000346002B11D054485249FEF7BFF84FF0A5
:1034B0000003BB744D4851494E4A4FF05503FEF787
:1034C000B5F8BB7CDBB2002BFBD07869FFF7DAFDE7
:1034D000FB694FF00002DA62F869FFF717FBFB683F
:1034E00003F11002FB6903F1100310461946FFF7C0
:1034F0001DFF3B68002B0FDDFB6903F148023B46D3
:1035000010464FF000011A46FFF704FDFB6903F176
:1035100048031846FFF76EFC7B6A1846FFF7B2FDBA
:10352000FEF702FFFB69DB6A3B62FFF7A7FD03467C
:103530007B623B6A002B41D1FB685B891A46FB68C2
:103540001B89D21AFB681B889A4299D0FB68DA68FB
:10355000FB6859897B8B0B409BB24FEAC303D3189E
:10356000BA681A60FB68DA68FB6859897B8B0B4084
:103570009BB24FEAC303D3187A685A60FB685B8931
:1035800003F101039AB2FB685A81FB6803F1180347
:103590001846FFF7E3FE0346002B10D1FB689B693A
:1035A000A3F11003FB61F869FFF7E8FA7B6A18469C
:1035B000FFF768FDFEF7B8FE3B6A12E000BF7B6ACA
:1035C0001846FFF75FFD3B6A002B09D1FB681B6AB9
:1035D000002B05D0FB681B6AF8684FF00201984782
:1035E0003B6A184607F12807BD4680BD00780010E9
:1035F000207800109478001034780010587800106B
:1036000080B58AB000AFF860B9607A603B60FB6853
:10361000002B0DD14FF00003FB7484488449854A88
:103620004FF09F03FEF702F8FB7CDBB2002BFBD0D0
:10363000BB68002B0DD14FF00003BB747B487E4963
:103640007C4A4FF0A003FDF7F1FFBB7CDBB2002BFF
:10365000FBD07B68002B0DD14FF000037B747348C7
:103660007649744A4FF0A103FDF7E0FF7B7CDBB2A3
:10367000002BFBD04FF000033B62FFF719F9F86114
:10368000FB681B8803F1FF337B83FFF7F7FC0346DE
:103690007B6257E03B68002B03D16FF001033B6274
:1036A000ADE0FFF7EBFC7861FDF7CEF90346002BA8
:1036B00011D063485F49FDF7B9FF4FF000033B7439
:1036C0005A4860495B4A4FF0B203FDF7AFFF3B7CBD
:1036D000DBB2002BFBD07869FFF7D4FCFB694FF01D
:1036E0000002DA62F869FFF711FAFB6803F11802C9
:1036F000FB6903F1100310461946FFF717FE3B68FC
:10370000002B0FDDFB6903F148023B4610464FF0EA
:1037100000011A46FFF7FEFBFB6903F14803184658
:10372000FFF768FB7B6A1846FFF7ACFCFEF7FCFD71
:10373000FB69DB6A3B62FFF7A1FC03467B623B6AE5
:10374000002B5BD1FB681A89FB685B899A42A1D088
:10375000FB68DA68FB6819897B8B0B409BB24FEAE8
:10376000C303D3181A68BB681A60FB68DA68FB6881
:1037700019897B8B0B409BB24FEAC303D3185A685D
:103780007B681A60FB681B8903F101039AB2FB682E
:103790001A81FB685B68012B31D1FB685B891A4693
:1037A000FB681B89D21AFB685B889A4227DCFB689E
:1037B0004FF000025A60FB6803F110031846FFF750
:1037C000CDFD0346002B0DD1FB681B69A3F110034F
:1037D000FB61F869FFF7D2F97B6A1846FFF752FCE4
:1037E000FEF7A2FDFB681B6A002B05D0FB681B6A75
:1037F000F8684FF0030198473B6A12E000BF7B6A0C
:103800001846FFF73FFC3B6A002B09D1FB681B6A97
:10381000002B05D0FB681B6AF8684FF00101984740
:103820003B6A184607F12807BD4680BD00780010A6
:1038300020780010807800105C78001070780010FC
:10384000347800105878001080B582B000AF7860EE
:103850007B6818464FF000014FF04002FDF720F959
:103860007B684FF00002A3F840207B684FF0000215
:10387000A3F8422007F10807BD4680BD80B584B09B
:1038800000AF78600B46FB70FFF7F8FBF8607B68D1
:10389000B3F840307A68F978D1547B68B3F8403097
:1038A00003F101039BB203F03F039AB27B68A3F8D4
:1038B00040207B68B3F840207B68B3F842309A42DE
:1038C0000BD17B68B3F8423003F101039BB203F0E4
:1038D0003F039AB27B68A3F84220F868FFF7D2FB57
:1038E00007F11007BD4680BD80B584B000AF786099
:1038F0000B46FB70FFF7C2FBF8607B68B3F8403003
:1039000003F101039BB203F03F037B817B68B3F8B3
:1039100042307A899A420FD07B68B3F840307A6897
:10392000F978D1547B687A89A3F84020F868FFF7CA
:10393000A9FB4FF0010304E0F868FFF7A3FB4FF089
:10394000FF33184607F11007BD4680BD80B584B02F
:1039500000AF78604FF0FF33FB60FFF78FFBB8607C
:103960007B68B3F842207B68B3F840309A4211D0AC
:103970007B68B3F842307A68D35CFB607B68B3F84D
:10398000423003F101039BB203F03F039AB27B681C
:10399000A3F84220B868FFF775FBFB68184607F1EB
:1039A0001007BD4680BD00BF80B584B000AF786011
:1039B000FFF764FBF8607B68B3F840301A467B6819
:1039C000B3F84230D31A03F03F03BB60F868FFF747
:1039D00059FBBB68184607F11007BD4680BD00BF04
:1039E00080B586B000AF78604FF000037B617B68E4
:1039F000002B0DD14FF00003FB7330483049314AA2
:103A00004FF07803FDF712FEFB7BDBB2002BFBD0FF
:103A10007B683B617B685B8A03F01003002B46D117
:103A20003B69DB6B1B68002B09D03B69DB6B1B68B8
:103A30003A6902F1400238691146984778617B691A
:103A4000002B01D07B6933E07B685B8A03F48073D1
:103A5000002B04D03B699B6C1846FFF7F5FE7B6892
:103A60005B8A03F48063002B04D03B69DB6C18464F
:103A7000FFF7EAFE7B685B8A03F40063002B0FD03C
:103A80003B694FF000025A673B6903F15003184647
:103A90004FF028014FF01E024FF00003FFF770FCBB
:103AA0007B685B8A43F010039AB27B685A827B6919
:103AB000184607F11807BD4680BD00BFBC7800104E
:103AC000DC7800103C7A001080B586B000AF7860DA
:103AD0000B467B804FF000037B617B68002B0DD190
:103AE0004FF00003FB73194819491A4A4FF09F031E
:103AF000FDF79CFDFB7BDBB2002BFBD07B683B61C1
:103B00007B685B8A03F48073002B02D04FF00103C3
:103B10007B617B685B8A03F48063002B03D07B6945
:103B200043F002037B617B69002B07D03B69DB6BB1
:103B30005B687A6938694FF0100198474FF00003CD
:103B4000184607F11807BD4680BD00BFBC780010BD
:103B5000DC7800102C7A001080B586B000AF786059
:103B60004FF000037B617B68002B0DD14FF0000309
:103B7000FB73194819491A4A4FF0B403FDF756FD73
:103B8000FB7BDBB2002BFBD07B683B617B685B8AF5
:103B900003F48073002B02D04FF001037B617B683C
:103BA0005B8A03F48063002B03D07B6943F002033C
:103BB0007B617B69002B07D03B69DB6B5B687A69B3
:103BC00038694FF0110198474FF00003184607F18C
:103BD0001807BD4680BD00BFBC780010DC7800101F
:103BE0001C7A001080B58AB000AFF860B9607A60C6
:103BF0003B60FB68002B0DD14FF00003FB752C4898
:103C00002C492D4A4FF0CD03FDF710FDFB7DDBB2B3
:103C1000002BFBD0FB683B627B687B62FB685B8AA6
:103C200003F48073002B28D015E03B6A9B6C184688
:103C3000FFF78CFEF861FB69B3F1FF3F25D0FB690C
:103C4000DAB27B6A1A707B6A03F101037B623B681C
:103C500003F1FF333B603B68002BE6D116E03B6A83
:103C6000DB6BDB68386A98470346DAB27B6A1A7006
:103C70007B6A03F101037B6200E000BF7A6A7B6824
:103C8000D21A3B689A42EAD300E000BF7A6A7B68A6
:103C9000D31ABB61BB69002B03D16FF00300FCF7A3
:103CA000DFFEBB69184607F12807BD4680BD00BF8F
:103CB000BC780010DC7800100C7A001080B586B05B
:103CC00000AF78604FF000037B6100E000BF7B68CD
:103CD000DB6C1846FFF73AFE38613B69002B10DDBC
:103CE0007B68DB6B9B683A69D2B27868114698476B
:103CF000F8607B6903F101037B61FB68002BE5D170
:103D000015E07B69002B0FD17B684FF000025A67EA
:103D10007B68DB69002B09D07B68DB697A68104619
:103D20004FF00001984701E000BF00E000BF7B6951
:103D3000184607F11807BD4680BD00BF80B58EB09C
:103D400000AFF860B9607A603B604FF000033B63FE
:103D5000FB68002B0DD14FF00003FB776C486D49D9
:103D60006D4A40F22513FDF761FCFB7FDBB2002BAF
:103D7000FBD0FB68FB627B687B63FB685B8A03F4B8
:103D80008063002B2FD013E0FB6ADA6C7B6B1B780F
:103D900010461946FFF7A8FD0346B3F1FF3F0BD0CD
:103DA0007B6B03F101037B633B6803F1FF333B60F3
:103DB0003B68002BE8D100E000BFFFF75FF9B86275
:103DC000FB6A5B6F002B0AD1B86AFFF75BF9FB6AED
:103DD0004FF001025A67F86AFFF770FF87E0B86A90
:103DE000FFF750F983E0FB685B8A03F40063002B64
:103DF0007AD04FF00003BB614FF000037B61FB689A
:103E00005B8A03F04003002B0DD04FF00003FB74DE
:103E10003F484249404A40F24B13FDF707FCFB7C08
:103E2000DBB2002BFBD0FB6A03F150031846796824
:103E30003A684FF01403FFF7FBFA78627B6A002BB5
:103E40002BD1FFF71BF93862FB6A5B6F002B1FD188
:103E5000FB6A4FF001025A67386AFFF713F9FB6AF1
:103E600003F1500107F1180207F114030846114647
:103E70001A464FF00003FFF7C3FB0346002B0AD19D
:103E8000FB6ADB6B1B69B9697A69F86A984702E0DB
:103E9000386AFFF7F7F83B6835E0786AFCF7E0FD31
:103EA0004FF000032FE07B6B1B780A2B0CD1FB68D3
:103EB0005B8A03F04003002B06D0FB6ADB6B9B6838
:103EC000F86A4FF00D019847FB6ADB6B9B687A6BD1
:103ED0001278F86A114698477B6B03F101037B6304
:103EE0003B6803F1FF333B603B68002BDBD17A6B0F
:103EF0007B68D31A3B633B6B002B03D16FF002004E
:103F0000FCF7AEFD3B6B184607F13807BD4680BD98
:103F1000BC780010DC780010FC790010EC78001000
:103F200080B586B000AFF8600B467A60FB72FB6824
:103F3000002B0DD14FF00003FB74194819491A4AA0
:103F400040F28B13FDF772FBFB7CDBB2002BFBD046
:103F5000FB687B61FB7A022B04D0032B12D0012B70
:103F600008D016E0FB685B8A43F020039AB2FB6836
:103F70005A820EE0FB685B8A23F020039AB2FB684A
:103F80005A8206E07B69DB6B1B6878697968984721
:103F900000BF4FF00003184607F11807BD4680BD6B
:103FA000BC780010DC780010E879001080B586B08D
:103FB00000AFF860B9607A603B60FB68002B0DD100
:103FC0004FF00003FB741D481D491E4A4FF4D67381
:103FD000FDF72CFBFB7CDBB2002BFBD0FB687B618D
:103FE0007B694FF000021A747B694FF000029A61FE
:103FF0007B694FF00002DA617B69134A1A627B69C0
:10400000124A5A627B69124A9A627B69114ADA62E1
:104010007B69114A1A637B69104A5A637B693A6863
:104020009A637B689BB27869B9681A46FCF702F913
:104030000346184607F11807BD4680BDBC7800103E
:1040400018790010D0790010E1390010C93A001039
:10405000593B0010E53B00103D3D0010213F001092
:1040600080B584B000AF78604FF0FF33FB607B68B1
:104070005B8A03F48073002B0DD14FF00003FB72B9
:1040800011481249124A4FF4E373FDF7CFFAFB7A55
:10409000DBB2002BFBD07B68DB6BDB687868984772
:1040A000F860FB68B3F1FF3F08D07B689A6CFB684F
:1040B000DBB210461946FFF7E1FBECE700BF07F162
:1040C0001007BD4680BD00BFBC7800102C790010E1
:1040D000B879001080B586B000AF78604FF0FF333C
:1040E0007B617B685B8A03F48073002B0DD14FF0FA
:1040F0000003FB7319481A491A4A4FF4ED73FDF790
:1041000095FAFB7BDBB2002BFBD07B68DB6BDB68BB
:104110007868984778617B69B3F1FF3F08D07B6886
:104120009A6C7B69DBB210461946FFF7A7FBECE7F8
:1041300000BF7B689B69002B0BD07B689B6C18468B
:10414000FFF732FC38617B689B697A6810463969F1
:10415000984707F11807BD4680BD00BFBC78001026
:104160002C7900109C79001080B584B000AF786085
:104170007B685B8A03F48063002B0DD14FF0000352
:10418000FB73094809490A4A40F2F713FDF74EFA52
:10419000FB7BDBB2002BFBD07868FFF78FFD07F1CC
:1041A0001007BD4680BD00BFBC78001058790010D4
:1041B0008479001080B483B000AF0346FB71FB79B3
:1041C000032B17D801A252F823F000BFDD410010E5
:1041D000E3410010E9410010EF410010094B1B685A
:1041E00009E0094B1B6806E0084B1B6803E0084B1D
:1041F0001B6800E0FEE7184607F10C07BD4680BCCF
:10420000704700BF6C7C0010707C0010747C001044
:10421000787C001080B483B000AF78600B46FB70F0
:10422000FB78012B08D10D4B0C4AD2F8C4107A68E8
:104230000A43C3F8C4200CE0FB78002B09D1074BDC
:10424000064AD2F8C4107A686FEA02020A40C3F83C
:10425000C42007F10C07BD4680BC704700C00F406A
:1042600080B487B000AF0346FB71FB79002B0ED101
:10427000204BD3F82C317B611E4BD3F828313B61A6
:104280001C4BD3F8243103F10103FB600DE0194B03
:10429000D3F818317B61174BD3F814313B61154BC0
:1042A000D3F8103103F10103FB607A693B699A424C
:1042B00002D14FF0000316E07B69002B08D1FB68A8
:1042C00003F1FF323B699A4202D14FF002030AE048
:1042D0003B6903F101027B699A4202D14FF002036C
:1042E00001E04FF00103184607F11C07BD4680BCF2
:1042F000704700BF0040082080B483B000AF094B76
:10430000D3F828317B607B6803F1006303F1160367
:104310004FEA83031B68184607F10C07BD4680BCB3
:10432000704700BF0040082080B483B000AF094B45
:10433000D3F818317B607B6803F1806303F10403D9
:104340004FEAC3031B68184607F10C07BD4680BC43
:10435000704700BF0040082080B483B000AF0C4B12
:10436000D3F818317B607B6803F1806303F10403A9
:104370004FEAC3031B684FEA43534FEA535303F119
:104380000103184607F10C07BD4680BC704700BF0B
:104390000040082080B483B000AF084BD3F8183138
:1043A0007B607B6803F180634FEAC3031B68184698
:1043B00007F10C07BD4680BC704700BF00400820D5
:1043C00080B483B000AF0B4BD3F818317B607B68AF
:1043D00003F101037B607B68042B02D14FF00003E3
:1043E0007B60044B7A68C3F8182107F10C07BD46BF
:1043F00080BC70470040082090B589B000AF94E1C0
:104400008F4BFA69C3F8E82FFB6903F00303002B15
:1044100071D0FFF789FFF8604FF00003BB60FB68C5
:1044200003F40003002B02D04FF0100301E04FF023
:104430000003BA681343BB60FB6803F08073002B72
:1044400002D04FF0080301E04FF00003BA681343B5
:10445000BB60FB6803F00073002B02D04FF0040335
:1044600001E04FF00003BA681343BB60FB6803F040
:104470000063002B02D04FF0010301E04FF0000376
:10448000BA681343BB60FB6803F08053002B02D073
:104490004FF0400301E04FF00003BA681343BB60E4
:1044A000FB6803F00053002B02D04FF0200301E023
:1044B0004FF00003BA681343BB60FB6803F480133A
:1044C000002B02D04FF4805301E04FF00003BA6894
:1044D0001343BB60BB68002B04D1FB6923F00203CC
:1044E000FB6108E0574B1B6A002B04D0554B1B6A3D
:1044F000BA6810469847FB6903F03003002B4FD091
:10450000FFF7FAFE78604FF000033B607B6803F032
:104510008063002B02D04FF4007301E04FF00003E2
:104520003A6813433B607B6803F00063002B02D0C2
:104530004FF4807301E04FF000033A6813433B608F
:104540007B6803F08053002B02D04FF0800301E022
:104550004FF000033A6813433B607B6803F000535D
:10456000002B02D04FF4806301E04FF000033A6863
:1045700013433B607B6803F08043002B02D04FF471
:10458000006301E04FF000033A6813433B602D4B9A
:104590001B6A002B04D02B4B1B6A3A6810469847C5
:1045A000FB6903F00803002B00F09B804FF0010033
:1045B000FFF756FE0346002B00F09380FFF7CCFE7A
:1045C0000346BB61BB69002B40F38B80BB69A3F141
:1045D0000403BB61FFF7A8FE02461B4B1340002BF0
:1045E0007FD11A4B1B781A46194B196813464FEAAC
:1045F00043039B184FEA43235B184FEA4302154BD2
:10460000D3187B61FFF7C6FE03463B61104B1A6867
:10461000BB69D2180E4B1A600D4B1A6840F2FF535B
:104620009A4229D90A4B4FF000021A60054B1B6AC7
:10463000002B56D0034B1B6A4FF00400984750E004
:1046400000400820F47E00100000901B249700100A
:1046500020970010207F00103B691A887B691A8020
:104660007B6903F102037B613B6903F102033B6158
:10467000BB69A3F10203BB61BB69002BECDCFFF754
:1046800053FE034603F08043002B28D02F4B9B6939
:10469000002B11D02D4B9C692D4B1B781A461346CD
:1046A0004FEA43039B184FEA83232A4A9A182A4B5E
:1046B0001B6810461946A047274B4FF000021A60AE
:1046C000234B1B7803F10103DAB2214B1A70204B04
:1046D0001B78012B03D91E4B4FF000021A70FFF715
:1046E0006FFEFB6903F04003002B06D0174BDB691C
:1046F000002B02D0154BDB699847FB6903F480530C
:10470000002B06D0114B9B6A002B02D00F4B9B6AEB
:104710009847FB6903F40053002B06D00B4B5B6AF0
:10472000002B02D0094B5B6A98470C4BD3F8E02F63
:104730000A4BD3F8E43F1340FB61FB69002B7FF485
:104740005FAE07F12407BD4690BD00BFF47E0010A8
:1047500024970010207F00102097001000400820B0
:1047600080B400AF054A054BDB6B23F4E36323F011
:104770000203D36300BFBD4680BC704700000C40FD
:1047800080B400AF054A054BDB6B23F4E56323F0EF
:104790000203D36300BFBD4680BC704700000C40DD
:1047A00080B483B000AF1B4B5B6B7B607B6803F016
:1047B0000103002B03D0174B4FF001029A637B6873
:1047C00003F00403002B03D0124B4FF004029A6352
:1047D0007B6803F04003002B03D00E4B4FF04002E8
:1047E0009A637B6803F08003002B03D0094B4FF0E2
:1047F00080029A637B6803F40063002B03D0054BAF
:104800004FF400629A6300BF07F10C07BD4680BCFD
:10481000704700BF00000C4080B483B000AF1E4B57
:104820005B6B7B607B6803F00203002B03D01A4BA9
:104830004FF002029A637B6803F00803002B03D059
:10484000154B4FF008029A637B6803F01003002BAE
:1048500003D0114B4FF010029A637B6803F02003E2
:10486000002B03D00C4B4FF020029A637B6803F4BB
:104870000073002B03D0084B4FF400729A63074B70
:104880004FF000021A60064B7A681A6000BF07F109
:104890000C07BD4680BC704700000C4028970010F4
:1048A0002C97001080B582B000AF144B5B6B7B601F
:1048B0007B6803F48073002B10D0104B4FF4807290
:1048C0009A630F4B4FF000021A600E4B4FF000023C
:1048D0001A60FFF745FFFFF753FF0AE07B6803F418
:1048E0008063002B04D0054B4FF480629A6300E094
:1048F00000BF07F10807BD4680BD00BF00000C40A7
:10490000289700102C97001080B400AF00BFBD4660
:1049100080BC704780B582B000AF144B5B6B7B608E
:104920007A6840F23A231340002B02D0FFF774FF5D
:1049300018E07B6803F4A063002B02D0FFF7B2FFFE
:1049400010E07A680A4B1340002B02D0FFF7DCFF1F
:1049500008E07A6840F6C5031340002B02D0FFF749
:104960001FFF00BF07F10807BD4680BD00000C40D7
:1049700000C40F0080B485B000AF02460B46FA7148
:10498000BB714FF00003FB60FB794FEA4312BB7928
:10499000D31803F1805303F530434FEA8303FB60E0
:1049A000FB68184607F11407BD4680BC704700BF7E
:1049B00080B485B000AF02460B46FA71BB714FF070
:1049C0000503FB73FB79052B7FD801A252F823F076
:1049D000E9490010794A00109B4A00109B4A0010D8
:1049E0009B4A0010A34A0010BB79062B0BD9BB7958
:1049F000092B02D9BB790B2B05D9BB790D2B06D915
:104A0000BB79162B03D84FF00003FB7333E0BB795F
:104A10000C2B08D0BB790D2B05D0BB79162B06D9F2
:104A2000BB791A2B03D84FF00103FB7323E0BB794A
:104A30001D2B05D0BB791E2B02D0BB791F2B03D1B8
:104A40004FF00203FB7316E0BB791B2B02D0BB793E
:104A50001C2B03D14FF00303FB730CE0BB79072B36
:104A600005D0BB79082B02D0BB79092B2FD14FF091
:104A70000403FB732BE02AE0BB791D2B03D84FF016
:104A80000003FB7325E0BB791E2B02D0BB791F2BE3
:104A90001FD14FF00103FB731BE04FF00003FB73CA
:104AA0001AE0BB79012B02D9BB79042B03D14FF05B
:104AB0000003FB730FE0BB79022B02D0BB79032B01
:104AC00009D14FF00303FB7305E000BF04E000BF12
:104AD00002E000BF00E000BFFB7B184607F11407AF
:104AE000BD4680BC704700BF80B584B000AF1346A0
:104AF0000246FA710A46BA717B714FF00003FB60FF
:104B0000FA79BB7910461946FFF752FF0346FB724C
:104B1000FB7A052B01D10F4B16E0FA79BB791046D1
:104B20001946FFF727FFF860FB681B6823F00702B0
:104B3000FB681A60FB681A687B7903F007031A4365
:104B4000FB681A604FF00003184607F11007BD46D6
:104B500080BD00BF010000102DE9B04F98B000AF3C
:104B60000346B961FB774FF0000387F85F304FF0E1
:104B70000100FFF71FFB78634FF0FF33BB634FF07B
:104B800000033B654FF00003FB644FF000024FF061
:104B90000003C7E910234FF001037B6570E04FF07D
:104BA0000003BB655FE0796B0A464FF000034FEAF4
:104BB00012114FEA03750D434FEA0274796D0A46EC
:104BC0004FF0000302FB05F004FB03F14118A4FBC6
:104BD000028901EB090399467A6DBB6DD318BA6956
:104BE00002FB03F10A464FF000034046494601F03C
:104BF00085FB02460B46C7E90A23BB6AFB63FB6AD7
:104C00001B463B614FF0000179613B69BB64FB6B64
:104C1000B3F1004F07D9FB6BC3F10003FB63BB6C1F
:104C200003F10103BB64BB6C002B17D0BB6CB3F565
:104C3000803F13D8FA6BBB6B9A4210D2FB6BBB63FD
:104C4000B96C0A464FF00003C7E91023BB6D3B6502
:104C50007B6DFB64BB6B002B0AD000E000BFBB6D1B
:104C600003F10103BB65BA6D7B6D9A429BD300E0F3
:104C700000BFBB6B002B07D07B6D03F101037B658D
:104C80007B6D0F2B8BD900E000BFD7E9102352EAD0
:104C9000030102D14FF00003DDE07B6B4FEA1313F9
:104CA000FA6C02FB03F318464FF00001FA6C3B6DFF
:104CB000D41822464FF000033C6C03FB04F57C6CD7
:104CC00002FB04F42C193D6CA5FB0223E4182346D7
:104CD00001F014FB02460B4613467B62BA697B6AFD
:104CE0009A4204D9BA697B6AD31ABB6303E07A6A31
:104CF000BB69D31ABB63BB6B4FF0640202FB03F2C8
:104D0000BB69B2FBF3F3BB63BB6B022B00F2A18068
:104D1000FB7F012B31D1534B524A127BD2B262F04E
:104D20007F02D2B21A734F4B7A6C4FEA0262396C2F
:104D30004FEA1121B960B9681143B9607A6C4FEA42
:104D40001222FA60397ACAB21A71464B97F840209B
:104D50001A70444B434A127BD2B202F07F02D2B2A5
:104D60001A73404BFA6C4FEA0212D1B23A6D02F05C
:104D70000F020A43D2B29A6267E0FB7F042B2DD167
:104D8000394B394AD26842F08002DA60364B7A6C8D
:104D90004FEA0262396C4FEA1121396039681143D8
:104DA00039607A6C4FEA12227A603A68D2B25A605D
:104DB0002D4B3A6CD2B21A602B4B2B4AD26802F0C0
:104DC0007F02DA60284BFA6C4FEA0212D1B23A6DD8
:104DD00002F00F020A43D2B29A6236E0FB7F184615
:104DE00000F044F838623B6A1B7BDBB263F07F0360
:104DF000DAB23B6A1A737B6C4FEA03633A6C4FEA90
:104E0000122A43EA0A0A7B6C4FEA132B5FFA8AF2F2
:104E10003B6A1A7197F840203B6A1A703B6A1B7B09
:104E2000DBB203F07F03DAB23B6A1A73FB6CDBB2CE
:104E30004FEA0313DAB23B6DDBB203F00F03DBB2D0
:104E40001343DAB23B6A83F828204FF0010387F856
:104E50005F3097F85F30184607F16007BD46BDE840
:104E6000B08F00BF0000014000400A4080B485B010
:104E700000AF0346FB714FF00003FB60FB79022B90
:104E800006D0032B07D0002B08D1084BFB6006E0AF
:104E9000074BFB6003E0074BFB6000E000BFFB68D3
:104EA000184607F11407BD4680BC704700C000409B
:104EB0000080094000C0094080B586B000AF0346BD
:104EC0003960FB71FB79042B00F2098101A252F8D1
:104ED00023F000BFE94E0010B94F0010E94E00105A
:104EE000E94E001061500010FB791846FFF7BEFF35
:104EF0003861FB79002B06D14FF008004FF001011B
:104F0000FFF788F912E0FB79022B06D14FF0807091
:104F10004FF00101FFF77EF908E0FB79032B05D183
:104F20004FF000704FF00101FFF774F93B694FF04B
:104F300007021A723B694FF000021A7203E03B69E4
:104F40001B78DBB27B613B691B7DDBB203F00103A5
:104F5000002BF4D13B694FF0800283F8302000BF72
:104F60003B691B7DDBB203F02003002BF8D03B69CB
:104F70004FF0000283F830203B694FF000025A6086
:104F80003B694FF000021A733B694FF000021A624E
:104F90003B694FF0000283F84C203B694FF0000260
:104FA00083F854203B694FF0000283F850203B699E
:104FB0001B7DDBB27B6192E04FF010004FF00101EE
:104FC000FFF728F98D4B4FF007021A728B4B4FF009
:104FD00000021A7203E0894B1B78DBB27B61874BBE
:104FE0001B7DDBB203F00103002BF4D1834B4FF0A8
:104FF000800283F8302000BF804B1B7DDBB203F0C2
:105000002003002BF8D07D4B4FF0000283F83020B6
:105010007A4B4FF000025A60784B4FF000021A733F
:10502000764B4FF000021A62744B4FF0000283F887
:105030004C20724B4FF0000283F854206F4B4FF01E
:10504000000283F850206D4B1B7DDBB27B616B4B04
:105050004FF000021A74694B1B7EDBB27B613EE0AD
:105060004FF480704FF00101FFF7D4F8644B4FF01C
:1050700007029A60624B4FF000029A6002E0604BB8
:105080001B687B615E4B5B6903F00103002BF6D16B
:1050900000BF5B4B5B6903F02003002BF9D0584B3A
:1050A0004FF000025A60564B4FF00002DA60544B4A
:1050B0004FF000021A62524B4FF00002DA64504B7C
:1050C0004FF000025A654E4B4FF000021A654C4BF0
:1050D0005B697B614A4B4FF000025A6200BF3B683C
:1050E0001B68FA7910461946FFF736FDFB79012B4C
:1050F00006D1424B1B7BDBB203F0C0037B6113E0A4
:10510000FB79042B05D13E4BDB6803F0C0037B61C8
:105110000AE0FB791846FFF7A9FEF860FB681B7BE5
:10512000DBB203F0C0037B613B685B79012B04D0E9
:10513000022B07D0002B0FD009E07B6943F001035D
:105140007B610AE07B6943F002037B6105E07B69D8
:1051500043F003037B6100E000BF3B681B79002B39
:1051600024D07B6943F008037B613B681B7903F122
:10517000FF33032B19D801A252F823F0AB510010D2
:105180008D51001097510010A15100107B6943F020
:1051900010037B610AE07B6943F020037B6105E03B
:1051A0007B6943F030037B6100E000BF3B689B7983
:1051B000012B04D17B6943F004037B6100E000BF55
:1051C000FB79012B04D10D4B7A69D2B21A7310E02E
:1051D000FB79042B04D10A4B7A69D2B2DA6008E079
:1051E000FB791846FFF742FEB8607B69DAB2BB680C
:1051F0001A7307F11807BD4680BD00BF00000140CB
:1052000000400A4080B487B000AF13460246FA71EE
:105210000A46BA717B714FF000033B614FF0000307
:10522000FB60FB79042B2BD801A252F823F000BFBE
:1052300045520010515200105D520010695200108A
:1052400075520010344B3B6140F20733FB6017E0AE
:10525000324B3B6140F28F33FB6011E0304B3B61DE
:1052600040F20733FB600BE02E4B3B6140F207330B
:10527000FB6005E02C4B3B6140F20733FB6000BF55
:10528000BB79062B2CD801A252F823F0A9520010AA
:10529000B1520010B9520010C1520010C952001092
:1052A000D1520010D95200104FF001037B6117E07A
:1052B0004FF002037B6113E04FF004037B610FE0CA
:1052C0004FF008037B610BE04FF080037B6107E048
:1052D0004FF480737B6103E04FF400737B6100BF88
:1052E0007B79012B08D13B691A687969FB680B400F
:1052F0001A433B691A6009E03B691A687B696FEAE7
:105300000301FB680B401A403B691A6007F11C0758
:10531000BD4680BC704700BF04C00040040001408F
:105320000480094004C0094004400A4080B485B0AC
:1053300000AF03463960FB714FF00003FB73FB7B4A
:1053400043F00103FB733B68DB78012B04D0022B95
:1053500007D0002B0FD009E0FB7B43F04003FB7329
:105360000AE0FB7B63F07F03FB7305E0FB7B63F0EC
:105370003F03FB7300E000BF3B685B78012B03D168
:10538000FB7B43F00403FB733B681B78012B03D1C9
:10539000FB7B43F00203FB733B689B78012B03D13B
:1053A000FB7B43F00803FB73FB79042B2ED801A28F
:1053B00052F823F0C9530010D7530010E5530010E2
:1053C000F353001001540010134BFA7B22F030020B
:1053D000D2B21A721AE0114BFA7B22F03002D2B22A
:1053E0001A7213E00E4BFA7B22F03002D2B21A721C
:1053F0000CE00C4BFA7B22F03002D2B21A7205E0BC
:10540000094BFA7B02F0CF029A6000BF07F1140744
:10541000BD4680BC704700BF00C000400000014096
:105420000080094000C0094000400A4080B483B0B9
:1054300000AF78607B684FF000029A707B684FF095
:105440000002DA707B684FF001021A707B684FF03F
:1054500001025A7007F10C07BD4680BC704700BFBF
:1054600080B584B000AF02460B46FA71BB71BB79C0
:10547000012B20D1FB79012B0AD11F4B1E4A92F838
:105480003020D2B262F07F02D2B283F830202EE018
:10549000FB79042B2BD0FB791846FFF7E7FCF8606B
:1054A000FB6893F83030DBB263F07F03DAB2FB685D
:1054B00083F830201BE0FB79012B08D10E4B93F8C9
:1054C00030300D4B4FF0000283F830200FE0FB79B5
:1054D000042B0CD0FB791846FFF7C8FCB860BB68FA
:1054E00093F83030BB684FF0000283F8302007F1AA
:1054F0001007BD4680BD00BF00000140FEE7FEE78B
:10550000FEE7FEE7FEE7FEE7FEE7FEE7FEE7FEE773
:1055100080B485B000AFA14BD3F8043103F480739D
:10552000002B40F087809D4BD3F80C3103F0010332
:10553000002B35D1994BD3F8043103F01F03002B16
:1055400008D0964BD3F8043103F01F03944AB2FB02
:10555000F3F301E04FF00003924A13608F4BD3F84E
:10556000A83103F01F03002B08D08C4BD3F8A831CF
:1055700003F01F038A4AB2FBF3F301E04FF000038C
:10558000894A1360874B1A68844BD3F8003103F0C3
:10559000010303F10103B2FBF3F2844B1A6014E13F
:1055A0007E4BD3F8A03103F04003002B0CD17D4B90
:1055B0004FF000021A607C4B4FF000021A607B4BE8
:1055C0004FF000021A6000E1744BD3F8043103F08D
:1055D0001F03002B08D0714BD3F8043103F01F03D5
:1055E000734AB2FBF3F301E04FF000036D4A13601E
:1055F0006A4BD3F8A83103F01F03002B08D0674B88
:10560000D3F8A83103F01F03694AB2FBF3F301E0BA
:105610004FF00003644A1360624B1A685F4BD3F883
:10562000003103F0010303F10103B2FBF3F25F4B1E
:105630001A60CAE0594BD3F8883003F48073002B0A
:105640000CD1584B4FF000021A60574B4FF000023C
:105650001A60564B4FF000021A60B6E04F4BD3F879
:105660000C3103F00103002B47D14C4BD3F88830A9
:10567000DBB203F01F03DBB203F10103FB73474B03
:10568000D3F80431DBB203F01F03BB73434BD3F8F1
:10569000A831DBB203F01F037B73404BD3F800311A
:1056A000DBB203F00103DBB203F101033B73BB7B0D
:1056B000002B07D0FB7B3A4A02FB03F2BB7BB2FB19
:1056C000F3F301E04FF00003364A13607B7B002BBD
:1056D00007D0FB7B324A02FB03F27B7BB2FBF3F386
:1056E00001E04FF00003304A13602E4B1A683B7BF9
:1056F000B2FBF3F22D4B1A6067E0284BD3F8A031D0
:1057000003F04003002B0CD1264B4FF000021A602F
:10571000254B4FF000021A60244B4FF000021A6034
:1057200053E01E4BD3F88830DBB203F01F03DBB22B
:1057300003F10103FB72194BD3F80431DBB203F020
:105740001F03BB72154BD3F8A831DBB203F01F0364
:105750007B72124BD3F80031DBB203F00103DBB2F2
:1057600003F101033B72BB7A002B07D0FB7A104A8E
:1057700002FB03F2BB7AB2FBF3F301E04FF000034C
:10578000084A13607B7A002B14D0FB7A084A02FB8C
:1057900003F27B7AB2FBF3F30EE000BF00C00F40D0
:1057A000001BB7006C7C0010707C0010747C001033
:1057B00000127A004FF00003414A1360414B1A680F
:1057C0003B7AB2FBF3F2404B1A60404BD3F80831FE
:1057D00003F48073002B41D03C4BD3F8083103F025
:1057E0001F03042B08D0062B06D0002B31D1384BD9
:1057F0004FF000021A605DE0344BD3F88830DBB222
:1058000003F01F03DBB203F10103FB712F4BD3F84D
:105810000831DBB203F01F03BB712C4BD3F80C3102
:1058200003F00103002B09D0FB792A4A02FB03F2A3
:10583000BB79B2FBF3F2264B1A603BE0FB79264AB8
:1058400002FB03F2BB79B2FBF3F2214B1A6000BFFB
:1058500030E01F4B4FF000021A602BE01B4BD3F8D7
:10586000083103F40073002B20D0184BD3F80C310F
:1058700003F00103002B0CD0144BD3F8A83003F035
:105880001F0303F10103134A02FB03F2104B1A60DA
:1058900010E00E4BD3F8883003F01F0303F101032F
:1058A0000D4A02FB03F20A4B1A6003E0084B4FF06B
:1058B00000021A6007F11407BD4680BC704700BFA4
:1058C000707C00106C7C0010747C001000C00F40D5
:1058D000787C001000127A00001BB70080B500AF82
:1058E0003D4B4FF02102C3F8A02100BF3A4BD3F843
:1058F000A03103F04003002BF8D0374B4FF00102EA
:10590000C3F80C21344B4FF00902C3F88420324B0A
:105910004FF00102C3F880202F4B4FF0AA02C3F8CA
:105920008C202D4B4FF05502C3F88C2000BF2A4B22
:10593000D3F8883003F48063002BF8D0264B4FF067
:105940002302C3F8A420244B4FF00102C3F8A02087
:10595000214B4FF0AA02C3F8AC201F4B4FF0550269
:10596000C3F8AC2000BF1C4BD3F8A83003F480630D
:10597000002BF8D0184B40F20112C3F80421164B4B
:1059800040F20122C3F80821134B4FF00102C3F883
:105990000021114B4FF00202C3F8A8210E4B6FF407
:1059A0008032C3F8C4200C4B4FF00002C3F8C8216A
:1059B000094B094AD2F8B02142F00302C3F8B021E2
:1059C000054B45F23A021A60044B4FF080529A6040
:1059D000FFF79EFD80BD00BF00C00F4000ED00E05E
:1059E00080B483B000AF0346FB71094B97F90720E1
:1059F0004FEA5212F97901F01F014FF0010000FA4D
:105A000001F143F8221007F10C07BD4680BC704736
:105A100000E100E080B483B000AF0346FB710A4BA5
:105A200097F907204FEA5212F97901F01F014FF060
:105A3000010000FA01F102F1200243F8221007F1FF
:105A40000C07BD4680BC704700E100E080B483B025
:105A500000AF03463960FB7197F90730002B0DDA70
:105A60000E49FB7903F00F03A3F104033A68D2B2A5
:105A70004FEAC202D2B2CB181A760AE0084997F967
:105A800007303A68D2B24FEAC202D2B2CB1883F8DA
:105A9000002307F10C07BD4680BC704700ED00E015
:105AA00000E100E080B588B000AF786039604FF069
:105AB0000003FB617B68002B0DD14FF00003FB73EB
:105AC00080488149814A4FF02F03FBF7AFFDFB7BF4
:105AD000DBB2002BFBD03B68002B0DD14FF0000355
