:020000041000EA
:1000000000000110E500001025500010CF30001056
:10001000295000102B5000102D500010000000003F
:100020000000000000000000000000002F50001041
:10003000315000100000000065300010796200109F
:100040003750001037500010375000103750001054
:1000500037500010B55A0010F160001037500010F2
:100060003750001037500010375000103750001034
:1000700037500010000000003750001037500010BB
:100080003750001037500010375000103750001014
:100090003750001037500010375000103750001004
:1000A00037500010375000103750001037500010F4
:1000B00081610010014400103750001037500010CB
:1000C00037500010375000103750001037500010D4
:1000D00037500010375000103750001037500010C4
:1000E0003750001000200649064A914204D0914240
:1000F00002D208600431FAD303488047034800471E
:10010000B07E0010F0840010055400109D640010B3
:1001100047F6B063C1F200031A780AB901201870DB
:10012000704700BF47F6F050C1F2000008B5036801
:100130002BB140F20003C0F2000303B1984708BDA1
:1001400080B400AF024B1B681846BD4680BC7047A8
:10015000B47E001080B582B000AF0F4B1B6803F176
:1001600001020D4B1A6002F07BFB78607B685B6CD0
:1001700003F1FF327B685A647B685B6C002B05D10E
:100180007B681A6C7B685A6402F002FC02F0ECFE99
:1001900007F10807BD4680BDB47E001080B584B06D
:1001A00000AFF860B9601346FB80FB68002B02D1FA
:1001B0004FF0FF3314E0B86800F018F80346002B46
:1001C00002D04FF0FF330BE0FB6818464FF00801F8
:1001D000BA6801F0F9FDFB68FA885A824FF0000313
:1001E000184607F11007BD4680BD00BF80B586B038
:1001F00000AF786002F034FB0346002B01D002F020
:1002000085F91A4B3B613B695B687B6119E07B694F
:10021000A3F10803FB60FB68184679684FF00602FB
:1002200000F0B0FC0346002B08D102F019FB034696
:10023000002B01D002F07CF9FB6811E07B691B68A0
:100240007B613B6903F104027B699A42DFD102F0D2
:1002500007FB0346002B01D002F06AF94FF00003C0
:10026000184607F11807BD4680BD00BF747E001018
:1002700080B586B000AF78600B467B807B68002B32
:100280000DD14FF00003FB732E482F492F4A4FF03A
:10029000C90301F089F9FB7BDBB2002BFBD04FF0E7
:1002A00000037B617B685B8A03F01003002B1AD18B
:1002B0007B681B6A002B0FD07B681B6A78689847A5
:1002C00078617B69002B07D07B68214819467A69E1
:1002D00001F06AF97B692FE07B685B8A43F01003C9
:1002E0009AB27B685A827B685B8A03F00803002B12
:1002F00008D07B689B8A03F00803002B02D06FF0C4
:10030000060319E07B685B6A3B613B69002B05D003
:100310007A883B6978681146984778617B69002B39
:1003200003D07B6913F1060F05D17B8843F00803E6
:100330009AB27B689A827B69184607F11807BD4616
:1003400080BD00BFF06E0010106F0010786F0010BD
:10035000206F001080B586B000AF78607B68002BFE
:100360000DD14FF00003FB7312481349134A40F2BA
:10037000031301F019F9FB7BDBB2002BFBD07B6888
:100380009B6A3B613B69002B03D03B6978689847C7
:1003900078617B69002B03D07B6913F1060F03D1D1
:1003A0007B684FF000029A827B69184607F11807B4
:1003B000BD4680BDF06E0010106F0010686F001019
:1003C00090B587B000AFF860B9607A603B60FB68B9
:1003D000002B0DD14FF00003FB7412481249134A51
:1003E00040F24F1301F0E0F8FB7CDBB2002BFBD0B6
:1003F000FB681B6B7B617B69002B07D07C69F8680D
:10040000B9687A683B68A047034605E06FF00500CD
:1004100000F0DCFA4FF00003184607F11C07BD4658
:1004200090BD00BFF06E0010106F0010586F0010EC
:1004300080B483B000AF78607B681B687A685268CC
:100440005A607B685B687A6812681A607B687A68B1
:100450005A607B685A687B681A6007F10C07BD46D2
:1004600080BC704780B483B000AF78607B681A6846
:100470007B689A4214BF00230123184607F10C073A
:10048000BD4680BC704700BF80B584B000AF2F4828
:10049000FFF7E8FF0346002B53D102F0CDFDF860D3
:1004A00000F088FA0346002B11D02948294901F0B1
:1004B0007BF84FF00003FB7027482849254A4FF08E
:1004C000480301F071F8FB78DBB2002BFBD0F86831
:1004D00002F0B6FD02F0B0FDB8601C48FFF7C2FFA5
:1004E0000346002B1DD1194B1B68A3F110037B6041
:1004F0007B6803F110031846FFF79AFF7B681B6FB8
:10050000002B03D07B681B6F786898477B68184680
:1005100001F086FD0346012B07D1B86802F090FD7B
:100520000FE0B86802F08CFD0BE0B86802F088FDBF
:100530007B685B6A184601F03BFB7B68184601F05C
:1005400021FD07F11007BD4680BD00BF38830010B4
:10055000886F0010D86F0010AC6F0010CC6F0010C7
:1005600080B582B000AF7860044B1B68002B02D0CE
:10057000024B1B689847FFF787FFF5E730800010B4
:1005800080B584B004AF0B4B00934FF4807301939C
:100590004FF01F0302934FF02003039306480749CF
:1005A000074A4FF0000302F00DF9034802F062F928
:1005B000BD4680BD307F0010B87E0010D06F0010A7
:1005C0006105001080B483B000AF78607B687A6802
:1005D0005A607B685A687B681A6007F10C07BD4651
:1005E00080BC704780B483B000AF786039607B68AE
:1005F0005B683A681A607B685A683B685A607B6837
:100600003A685A603B687A681A6007F10C07BD4681
:1006100080BC704780B483B000AF78607B681A6894
:100620007B689A4214BF00230123184607F10C0788
:10063000BD4680BC704700BF80B582B000AF786017
:100640007B6803F110031846FFF7BCFF4FF000036F
:10065000184607F10807BD4680BD00BF80B586B0CB
:1006600000AFF860B9601346FB71B86802F028FA71
:10067000FB79002B02D0012B08D036E0BB6803F1D8
:100680001003F8681946FFF7ADFF2EE0FB681B6802
:100690007B6119E07B69A3F110033B61BB6893F8B0
:1006A00031203B6993F831309A420AD23B6903F119
:1006B0001002BB6803F1100310461946FFF792FFC2
:1006C00006E07B691B687B617A69FB689A42E1D12D
:1006D0007A69FB689A4207D1BB6803F11003F86896
:1006E0001946FFF77FFF00E000BF4FF000031846F8
:1006F00007F11807BD4680BD80B584B000AF7860B3
:100700007B681B68A3F11003FB60F86802F010FA25
:100710004FF00003184607F11007BD4680BD00BF2B
:1007200080B586B000AFF860B9607A60FB70FB6896
:10073000002B0DD14FF00003FB7512481249134AEC
:100740004FF0C40300F030FFFB7DDBB2002BFBD089
:10075000FB6818464FF00101BA6801F035FBFB68F1
:100760001846FFF769FF7B689AB2FB681A83FB683B
:10077000FA78DA714FF00003184607F11807BD4602
:1007800080BD00BFF06F001010700010BC70001032
:1007900090B587B000AF786039607B68002B0DD1D1
:1007A0004FF00003FB7346484649474A40F239136D
:1007B00000F0FAFEFB7BDBB2002BFBD0434B1B6847
:1007C000002B04D0414B1B687A681046984702F012
:1007D00033FC04467B681B8B002B0AD07B681B8B89
:1007E00003F1FF339AB27B681A83204602F028FC9B
:1007F00055E03B68002B05D1204602F021FC6FF04C
:10080000010357E002F018FC786100F0D3F80346CA
:10081000002B11D02E482C4900F0C6FE4FF00003EB
:10082000BB7327482B49284A4FF4AC7300F0BCFE39
:10083000BB7BDBB2002BFBD0786902F001FC02F03D
:100840000FF838613B694FF00002DA627B6803F110
:1008500010027B68DB79104639691A46FFF7FEFE05
:100860003B68002B0FDD3B6903F148023B46104615
:100870004FF000011A4602F029FB3B6903F14803DF
:10088000184602F091FA204602F0DAFB01F01CFD56
:100890003B69DB6A002B02D03B69DB6A0AE00E4B46
:1008A0001B68002B04D00C4B1B687A6810469847D5
:1008B0004FF00003184607F11C07BD4690BD00BF6E
:1008C000F06F001010700010B0700010288200103F
:1008D000207000104470001024820010B0B582B067
:1008E00000AF78601A4B1B68002B04D0184B1B68B4
:1008F0007A68104698474FF0000402F09DFB0546C9
:100900007B6803F110031846FFF784FE0346002BB3
:1009100008D17B6803F110031846FFF7EDFE4FF096
:10092000010406E07B681B8B03F101039AB27B682C
:100930001A83284602F084FB012C01D101F0C4FC8B
:100940004FF00003184607F10807BD46B0BD00BFD1
:100950002082001080B582B000AF02F06DFB78609D
:10096000074B1B78DBB203F10103DAB2044B1A70B8
:10097000786802F065FB07F10807BD4680BD00BF3F
:100980001C82001080B582B000AF02F055FB786089
:10099000074B1B78DBB203F1FF33DAB2044B1A705A
:1009A000786802F04DFB07F10807BD4680BD00BF27
:1009B0001C82001080B400AF034B1B78DBB21846DA
:1009C000BD4680BC704700BF1C82001080B584B05B
:1009D00000AF7860FFF7EEFF0346002B03D00A4B11
:1009E0007A681A600CE001F03BFFF860FB68002BAE
:1009F00003D1054B7A681A6002E0FB687A68DA6214
:100A000007F11007BD4680BD3480001080B489B066
:100A100000AFF860B9607A60FB68FB61BB6803F007
:100A2000FF037B617B68032B53D9FB6803F003034F
:100A3000002B50D1FB68BB617B694FEA03227B69C5
:100A400042EA03033B613B694FEA03433A6942EAE6
:100A500003033B611FE0BB693A691A60BB6903F19C
:100A60000403BB61BB693A691A60BB6903F1040303
:100A7000BB61BB693A691A60BB6903F10403BB61DE
:100A8000BB693A691A60BB6903F10403BB617B6807
:100A9000A3F110037B607B680F2BDCD80AE0BB69F5
:100AA0003A691A60BB6903F10403BB617B68A3F177
:100AB00004037B607B68032BF1D8BB69FB610BE00F
:100AC0007B69DAB2FB691A70FB6903F10103FB6110
:100AD00002E000BF00E000BF7B68002B0CBF0023DA
:100AE0000123DBB27A6802F1FF327A60002BE7D192
:100AF000FB68184607F12407BD4680BC704700BF5D
:100B000080B487B000AFF860B9607A607B68002B72
:100B100030D0FB687B61BB683B613B691A787B69BD
:100B20001A707B691B78002B14BF00230123DBB2F2
:100B30007A6902F101027A613A6902F101023A61CD
:100B4000002B10D007E07B694FF000021A707B6920
:100B500003F101037B617B6803F1FF337B607B68FA
:100B6000002BF0D106E07B6803F1FF337B607B68EC
:100B7000002BD2D1FB68184607F11C07BD4680BC8C
:100B8000704700BF90B484B000AFF860B9607A607D
:100B90004FF0000423E0FB681A78BB681B78D31A77
:100BA000DBB2DCB263B2002B0CBF00230123DBB24B
:100BB000BA6802F10102BA60002B13D1FB681B78FE
:100BC000002B14BF00230123DBB2FA6802F10102FB
:100BD000FA60002B06D17B6803F1FF337B607B68F2
:100BE000002BD8D163B2184607F11007BD4690BC60
:100BF000704700BF80B485B000AF78607B68FB6051
:100C000003E0FB6803F10103FB60FB681B78002B2A
:100C1000F7D1FA687B68D31A184607F11407BD4666
:100C200080BC704780B582B002AF0B4800F0BCFCBE
:100C30000A4800F0B9FC0A4B00930A484FF0010142
:100C40004FF001024FF0000300F0AEFC064800F048
:100C5000ABFCBD4680BD00BFC8700010D470001052
:100C600018710010F87000102471001080B485B065
:100C700000AF786039603B680A2B1BD17B681B682A
:100C80001946164BA3FB01234FEAD30213464FEA42
:100C900083039B184FEA4303CA1AFA607B681B68F8
:100CA0001A460E4BA3FB02134FEAD3031A467B6886
:100CB0001A600BE07B681B6803F00F03FB607B6826
:100CC0001B684FEA13131A467B681A60FB681846C4
:100CD00007F11407BD4680BC704700BFCDCCCCCC1B
:100CE00090B482B000AF78604FF0000410E023466B
:100CF0004FEA83031B194FEA430319467B681B68BD
:100D00001A788A18A2F1300403F101027B681A6094
:100D10007B681B681B78A3F13003092BE7D92346B6
:100D2000184607F10807BD4690BC7047B0B58CB0B7
:100D300000AFF860B9607A603B603C6CBB6C03F05C
:100D40004003002B01D0884B00E0884BBB62BB6C9A
:100D500003F01003002B03D0BB6C23F00103BB6432
:100D6000BB6C03F00103DBB2002B02D04FF0300369
:100D700001E04FF0200387F827304FF0000387F899
:100D80002F30BB6C03F00203002B1ED07B68002BBE
:100D900008DA4FF02D0387F82F307B68C3F100038A
:100DA0007B6012E0BB6C03F00403002B04D04FF017
:100DB0002B0387F82F3008E0BB6C03F00803002BEF
:100DC00003D04FF0200387F82F304FF000057B68E9
:100DD000002B1BD107F130014B194FF0300203F803
:100DE0001C2C05F1010515E007F1040318463968CC
:100DF000FFF73CFF0346BA6AD3181A7807F13001AF
:100E00004B1903F81C2C05F1010500E000BF7B68BD
:100E1000002BE9D17B6C9D4200DD7D647B6CE41A84
:100E2000BB6C03F01103002B21D197F82F30002B5E
:100E300011D0002C11DD04F1FF340FE0FA68BB681B
:100E40009A4203D8FB684FF020021A70FB6803F146
:100E50000103FB6002E000BF00E000BF002CD4BF34
:100E600000230123DBB204F1FF34002BE6D197F815
:100E70002F30002B0DD0FA68BB689A4205D8FB686A
:100E800097F82F201A7004F1FF34FB6803F1010377
:100E9000FB60BB6C03F01003002B23D10BE0FA685E
:100EA000BB689A4203D8FB6897F827201A70FB6842
:100EB00003F10103FB60002CD4BF00230123DBB24C
:100EC00004F1FF34002BEAD10DE0FA68BB689A42C6
:100ED00003D8FB684FF030021A70FB6803F101037E
:100EE000FB6000E000BF7B6CAB42D4BF002301235A
:100EF000DBB27A6C02F1FF327A64002BE5D10EE0AE
:100F0000FA68BB689A4206D807F13002531913F801
:100F10001C2CFB681A70FB6803F10103FB60002DB9
:100F2000D4BF00230123DBB205F1FF35002BE7D14D
:100F30000BE0FA68BB689A4203D8FB684FF02002C6
:100F40001A70FB6803F10103FB60002CD4BF00237F
:100F50000123DBB204F1FF34002BEAD1FB68184611
:100F600007F13007BD46B0BD587100106C7100101C
:100F700080B592B004AFF860B9607A603B60FB68FE
:100F8000BB62BB6803F1FF33FA68D3187B627A6AED
:100F9000FB689A4280F0B8824FF0FF337B627A6A36
:100FA000FB68D31ABB60B0E27B681B78252B0CD0A2
:100FB000BA6A7B6A9A4203D87B681A78BB6A1A704D
:100FC000BB6A03F10103BB6297E24FF00003BB77FA
:100FD0007B6803F101037B607B681B782D2B04D1B8
:100FE000BB7F43F01003BB77F2E77B681B782B2BAA
:100FF00004D1BB7F43F00403BB77E9E77B681B7830
:10100000202B04D1BB7F43F00803BB77E0E77B686C
:101010001B78232B04D1BB7F43F02003BB77D7E79A
:101020007B681B78302B04D1BB7F43F00103BB7777
:10103000CEE74FF0FF33BB617B681B78A3F1300331
:10104000092B06D807F104031846FFF749FEB861DB
:1010500018E07B681B782A2B14D17B6803F101030D
:101060007B603B6803F104023A601B68BB61BB69AB
:10107000002B07DABB69C3F10003BB61BB7F43F000
:101080001003BB774FF0FF337B617B681B782E2BFF
:1010900024D17B6803F101037B607B681B78A3F19B
:1010A0003003092B06D807F104031846FFF718FE92
:1010B00078610DE07B681B782A2B09D17B6803F1EE
:1010C00001037B603B6803F104023A601B687B61AB
:1010D0007B69002B02DA4FF000037B614FF00003C5
:1010E0007B777B681B78682B03D07B681B786C2B25
:1010F00006D17B681B787B777B6803F101037B60FB
:101100004FF00A03FB777B681B78A3F12503532B71
:1011100000F2978101A252F823F000BF07140010DB
:101120004314001043140010431400104314001023
:101130004314001043140010431400104314001013
:101140004314001043140010431400104314001003
:1011500043140010431400104314001043140010F3
:1011600043140010431400104314001043140010E3
:1011700043140010431400104314001043140010D3
:1011800043140010431400104314001043140010C3
:1011900043140010431400104314001043140010B3
:1011A00043140010431400104314001043140010A3
:1011B0004314001043140010431400104314001093
:1011C0004314001043140010431400104314001083
:1011D0004314001043140010431400104314001073
:1011E000431400104314001029140010431400107D
:1011F0004314001043140010431400104314001053
:101200004314001043140010431400104314001042
:10121000431400106D120010391400104314001014
:10122000431400104314001043140010391400102C
:101230004314001043140010431400104314001012
:101240004314001021140010C9130010431400109F
:1012500043140010EB120010431400108714001008
:10126000431400104314001031140010BB7F03F02E
:101270001003002B13D10BE0BA6A7B6A9A4203D8A1
:10128000BB6A4FF020021A70BB6A03F10103BB6214
:10129000BB6903F1FF33BB61BB69002BECDC3B682E
:1012A00003F104023A601B68FB74BA6A7B6A9A42D3
:1012B00002D8BB6AFA7C1A70BB6A03F10103BB62F5
:1012C0000BE0BA6A7B6A9A4203D8BB6A4FF02002ED
:1012D0001A70BB6A03F10103BB62BB6903F1FF3300
:1012E000BB61BB69002BECDC07E13B6803F1040246
:1012F0003A601B683B623B6A002B01D1814B3B6229
:10130000386AFFF777FC0346FB627B69002B05DD3B
:10131000FA6A7B699A4201DD7B69FB62BB7F03F05D
:101320001003002B19D10BE0BA6A7B6A9A4203D8EA
:10133000BB6A4FF020021A70BB6A03F10103BB6263
:10134000BA69FB6A9A42D4BF00230123DBB2BA69AF
:1013500002F1FF32BA61002BE6D14FF000033B638C
:1013600013E0BA6A7B6A9A4203D83B6A1A78BB6A6E
:101370001A70BB6A03F10103BB623B6A03F101030C
:101380003B623B6B03F101033B633A6BFB6A9A429E
:10139000E7DB0BE0BA6A7B6A9A4203D8BB6A4FF07C
:1013A00020021A70BB6A03F10103BB62BA69FB6ACF
:1013B0009A42D4BF00230123DBB2BA6902F1FF32A3
:1013C000BA61002BE6D198E0BB69B3F1FF3F06D1CB
:1013D0004FF00803BB61BB7F43F00103BB773B6861
:1013E00003F104023A601B68BA7FB9690091796918
:1013F00001910292B86A796A1A464FF01003FFF71A
:1014000095FCB86279E0BA6A7B6A9A4203D8BB6AF3
:101410004FF025021A70BB6A03F10103BB626CE056
:101420004FF00803FB772FE0BB7F43F04003BB770F
:101430004FF01003FB7727E0BB7F43F00203BB773D
:1014400022E0BA6A7B6A9A4203D8BB6A4FF025024F
:101450001A70BB6A03F10103BB627B681B78002B27
:101460000CD0BA6A7B6A9A4203D87B681A78BB6A46
:101470001A70BB6A03F10103BB623EE07B6803F1B3
:10148000FF337B6039E000BF7B7F6C2B0AD13B6868
:1014900003F104023A601B687B63BB7F03F0020325
:1014A000002B1DE07B7F682B10D13B6803F1040209
:1014B0003A601B689BB27B63BB7F03F00203002B87
:1014C0000ED07B6B9BB21BB27B6309E03B6803F1E0
:1014D00004023A601B687B63BB7F03F00203002BAE
:1014E0007A6BFB7FB97FB8690090786901900291AF
:1014F000B86A796AFFF71AFCB8627B6803F10103E6
:101500007B6002E05071001000BF7B681B78002BED
:101510007FF44AADBA6A7B6A9A4204D8BB6A4FF03C
:1015200000021A7003E07B6A4FF000021A70BA6A78
:10153000FB68D31A184607F13807BD4680BD00BFC7
:1015400080B584B000AF7860114B1B68FB60786891
:10155000FEF74CFEB860BB68002B12D00C4B1B682A
:10156000002B04D00A4B1B681846FEF7F3FE084B0D
:10157000BA681A60064B1B6818464FF00301FEF765
:1015800077FEFB68184607F11007BD4680BD00BF17
:101590003880001080B483B000AF786007F10C078A
:1015A000BD4680BC704700BF0FB480B582B000AFAD
:1015B00007F114033B6010484FF080013A693B6823
:1015C000FFF7D6FC03467B600C4B1B68002B03D156
:1015D0000948FFF7DFFF08E0084B1B6818464FF08B
:1015E0000001054A7B68FEF7EBFE07F10807BD46E0
:1015F000BDE8804004B070473C8000103880001087
:1016000080B586B000AF78607A68464B1B689A4216
:101610000DD24FF00003FB7343484449444A4FF056
:101620008103FFF7C1FFFB7BDBB2002BFBD07A68A5
:10163000404B1B689A420DD34FF00003BB733A48EE
:101640003D493B4A4FF08203FFF7AEFFBB7BDBB265
:10165000002BFBD07B685B88002B0DD04FF0000384
:101660007B7331483549324A4FF08303FFF79CFFC3
:101670007B7BDBB2002BFBD02A4B1B681A467B68B6
:101680005B68D3187B617A687B699A421FD07B695B
:101690005B88002B1BD17A69264B1B689A4216D0B7
:1016A000274B1A687B699A4202D1254B7A681A60E7
:1016B0007B695A687B685A601A4B1B681A467B69BB
:1016C0005B68D3187968174A12688A1A9A60154BB2
:1016D0001B681A467B689B68D3183B613A697B6834
:1016E0009A421AD03B695B88002B16D1144B1A68BA
:1016F0007B689A4202D1124B3A691A607B685A6839
:101700003B695A60074B1B681A467B685B68D318B5
:101710003969044A12688A1A9A6007F11807BD46A7
:1017200080BD00BFC480001080710010A071001047
:1017300030740010C8800010C0710010EC710010EF
:10174000CC80001080B588B000AF786039607B68CD
:1017500003F1030323F00303FB613B6823F003035E
:10176000BB6101F069FC7861FFF724F90346002BA7
:1017700011D03B483B49FFF717FF4FF00003FB73C5
:1017800039483A49374A4FF0AE03FFF70DFFFB7B6C
:10179000DBB2002BFBD0786901F052FCBB69182B3F
:1017A00052D9BB69A3F11802FB699A424CD3BA69BA
:1017B000FB69D31AA3F118022D4B1A60FA692D4B5D
:1017C0001A602C4B1B683B613B694FF4F5521A8041
:1017D000274B1B6803F10C023B695A603B694FF0D1
:1017E00000029A603B694FF000025A80214B1B684F
:1017F0001A463B695B68D2181F4B1A601E4B1B6868
:101800004FF4F5521A801C4B1B684FF001025A80AE
:10181000194B1B68164A126802F10C025A60164BEB
:101820001B68134A126802F10C029A6013481449AB
:101830004FF001024FF00003FEF772FF0D4B1B68E3
:101840001A46104B1A6007E07A683B680E4811464A
:101850001A46FFF7A9FE00BF07F12007BD4680BD6D
:10186000FC7100101C7400108071001020720010B8
:10187000EC800010C4800010C8800010D0800010E0
:1018800024720010CC8000102C72001080B58AB039
:1018900000AF786001F0D0FB3862FFF78BF80346A9
:1018A000002B11D060486149FFF77EFE4FF0000326
:1018B000FB745F485F495D4A4FF0EA03FFF774FE2F
:1018C000FB7CDBB2002BFBD0386A01F0B9FB7B68F4
:1018D000002B02D14FF000034DE17B6803F10303BD
:1018E00023F003037B60544B1B687A689A4202D949
:1018F0004FF000033FE17B680B2B02D84FF00C0345
:101900007B604E484FF0FF31FEF742FF4C4B1B68A7
:101910001A464C4B1B68D31A7B621FE1494B1B686C
:101920001A467B6AD318FB61FB695B88002B40F089
:101930000E81FB695A687B6AD31AA3F10C027B689B
:101940009A42C0F00481FB695A687B6AD31AA3F1FA
:101950000C027B6803F118039A4240D37A6A7B68D1
:10196000D31803F10C03BB61364B1B681A46BB69E5
:10197000D3187B617B694FF000025A80FB695A687B
:101980007B695A607B697A6A9A60FB69BA695A60B6
:10199000FB694FF001025A807B695A68264B1B682D
:1019A00003F10C039A4207D0264B1B681A467B6949
:1019B0005B68D318BA699A60234B1A687B68D3189E
:1019C00003F10C02204B1A60204B1A681E4B1B6857
:1019D0009A421FD21C4B1A681C4B1A601AE0FB6912
:1019E0004FF001025A80FB695A68164B1B68194672
:1019F000FB69CB1AD218144B1B68D218124B1A6011
:101A0000124B1A68104B1B689A4203D20E4B1A688D
:101A10000E4B1A60FB694FF4F5521A80084B1B6895
:101A2000FA699A4241D11CE0FC7100101074001058
:101A30008071001020720010EC800010D080001027
:101A4000CC800010C4800010F0800010F4800010E2
:101A50004B4B1B681A464B4B1B685B68D218494BB3
:101A60001A60484B1B685B88002B05D0454B1A68F1
:101A7000454B1B689A42EBD1424B1A68424B1B689C
:101A80009A4212D03F4B1B685B88002B0DD04FF061
:101A90000003BB743D483E493E4A4FF4A573FFF72F
:101AA00083FDBB7CDBB2002BFBD03B48FEF716FF6F
:101AB000FA697B68D31803F10C02334B1B689A4216
:101AC0000DD94FF000037B7430483449314A4FF44C
:101AD000A773FFF769FD7B7CDBB2002BFBD0FB69B2
:101AE00003F10C0303F00303002B0DD04FF00003B0
:101AF0003B7426482A49274A40F24F13FFF754FD0A
:101B00003B7CDBB2002BFBD0FB6903F00303002B13
:101B10000DD04FF00003FB731C4822491D4A4FF4BF
:101B2000A873FFF741FDFB7BDBB2002BFBD01E4B04
:101B30001B68002B07D01C4B1B68FA6902F10C02D2
:101B4000104679689847FB6903F10C0313E00C4BCE
:101B50001B681A467B6AD3185B687B62134B1A6852
:101B60007B68D21A7B6A9A423FF6D8AE0A48FEF7E3
:101B7000B5FE4FF00003184607F12807BD4680BDAB
:101B8000C4800010CC800010C8800010807100104C
:101B90006872001010740010D08000109072001055
:101BA000D872001024730010BC800010EC8000106C
:101BB00080B586B000AF786001F03EFA7861FEF73C
:101BC000F9FE0346002B11D058485949FFF7ECFCA9
:101BD0004FF00003FB7357485749554A4FF4F373CE
:101BE000FFF7E2FCFB7BDBB2002BFBD0786901F056
:101BF00027FA7B68002B00F08F807B6803F00303DB
:101C0000002B0DD04FF00003BB734A484B49484AA4
:101C10004FF4F573FFF7C8FCBB7BDBB2002BFBD0A6
:101C20007A68474B1B689A4204D37A68454B1B6815
:101C30009A420DD34FF000037B733E4842493C4A21
:101C40004FF4F673FFF7B0FC7B7BDBB2002BFBD0CD
:101C50003E4B1B68002B03D03C4B1B6878689847B1
:101C60007A68374B1B689A4258D37A68354B1B68A1
:101C70009A4255D27B68A3F10C033B6134484FF084
:101C8000FF31FEF785FD3B695B88002B0DD14FF0DE
:101C900000033B7327482F49254A40F20323FFF7EF
:101CA00083FC3B7BDBB2002BFBD03B691B88B3F58D
:101CB000F55F0DD04FF00003FB721E4826491C4A09
:101CC0004FF40173FFF770FCFB7ADBB2002BFBD003
:101CD0003B694FF000025A803B694FF000021A80C6
:101CE0001E4B1B683A699A4202D21C4B3A691A6031
:101CF0001B4B1A683B695968114B1B6818463B69B6
:101D0000C31ACB18D21A164B1A603869FFF778FC41
:101D10000F48FEF7E3FD04E000BF02E000BF00E073
:101D200000BF07F11807BD4680BD00BFFC71001061
:101D3000087400108071001020720010547300109D
:101D4000C4800010C880001084730010C080001090
:101D5000D0800010E0730010EC730010CC800010F5
:101D6000F080001080B483B000AF786039607B6889
:101D70001B683A685A607B681A683B681A607B681F
:101D80003A681A603B687A685A6007F10C07BD46EA
:101D900080BC704780B483B000AF78607B681B68FC
:101DA0007A6852685A607B685B687A6812681A6061
:101DB0007B687A685A607B685A687B681A6007F1AA
:101DC0000C07BD4680BC704790B587B000AFF86087
:101DD0000B467A60FB72FB7A4FEA0312154BD3185D
:101DE0007B61FB7A63F07F03DAB2FB689A71FB6870
:101DF000184679684FF00602FEF782FE0E4B1B680C
:101E0000002B03D00C4B1B68F868984701F014F9BD
:101E100004467B6903F10402FB6803F108031046E2
:101E20001946FFF79FFF204601F00AF907F11C074A
:101E3000BD4690BDF47D0010F880001090B585B0CF
:101E400000AF78607B68002B0DD14FF00003FB736F
:101E500011481249124A4FF0ED03FFF7A5FBFB7B37
:101E6000DBB2002BFBD00F4B1B68002B03D00D4BBC
:101E70001B687868984701F0DFF804467B6803F137
:101E800008031846FFF786FF204601F0D9F807F14E
:101E90001407BD4690BD00BF3C7400105C74001078
:101EA00008750010FC80001090B587B000AF0346A5
:101EB0003960FB7101F0C0F87861FEF77BFD0346E5
:101EC000002B11D029482A49FFF76EFB4FF0000381
:101ED000FB7228482849264A4FF48573FFF764FBB4
:101EE000FB7ADBB2002BFBD0786901F0A9F8FB7913
:101EF0004FEA0312214BD3183B613B69DB6818465C
:101F0000FFF7C4FC0346FB60FB68002B02D14FF0D7
:101F1000000326E0FB68FA799A71FB684FF0000233
:101F2000DA71FB68184639684FF00602FEF7E8FDE3
:101F3000134B1B68002B03D0114B1B68F8689847A4
:101F400001F07AF804463B6903F10402FB6803F1EF
:101F5000080310461946FFF705FF204601F070F808
:101F6000FB68184607F11C07BD4690BD7074001051
:101F7000F47400103C74001094740010F47D001090
:101F8000F880001090B585B000AF78607B68002BBA
:101F90000DD14FF00003FB731C481D491D4A4FF43F
:101FA000A473FFF701FBFB7BDBB2002BFBD07B684C
:101FB0009B79DBB25BB2002B0DDA4FF00003BB73F1
:101FC00012481549134A40F24913FFF7EDFABB7B5B
:101FD000DBB2002BFBD0114B1B68002B03D00F4B47
:101FE0001B687868984701F027F804467B6803F17E
:101FF00008031846FFF7CEFE204601F021F8786866
:10200000FFF7D6FD07F11407BD4690BD3C740010E4
:102010005C740010E074001098740010FC800010D4
:1020200080B584B000AF78607B68002B0DD14FF095
:102030000003FB730D480E490E4A40F26D13FFF783
:10204000B3FAFB7BDBB2002BFBD07B689B79DBB266
:102050005BB2002B02DA4FF0010301E04FF0000306
:10206000184607F11007BD4680BD00BF3C74001044
:102070005C740010C474001080B483B000AF78604A
:102080007B687A685A607B685A687B681A6007F1D7
:102090000C07BD4680BC704780B483B000AF786049
:1020A00039607B685B683A681A607B685A683B688D
:1020B0005A607B683A685A603B687A681A6007F130
:1020C0000C07BD4680BC704780B483B000AF786019
:1020D0007B681B687A6852685A607B685B687A68BC
:1020E00012681A607B687A685A607B685A687B68F5
:1020F0001A6007F10C07BD4680BC704780B483B0FE
:1021000000AF78607B681A687B689A4214BF00232E
:102110000123184607F10C07BD4680BC704700BF7D
:1021200080B584B000AF78607B68002B0DD14FF094
:102130000003FB721D481E491E4A4FF06103FFF762
:1021400033FAFB7ADBB2002BFBD07B689B691A4623
:102150007B685B6A9A420AD97B689B691A467B68EE
:102160005B6A19467B681B8DCB189A420CD97B6839
:1021700011481946FFF718FA00F05EFF0346FB60AE
:10218000FB68002BFCD10DE07B689B691A467B68DD
:102190005B6A03F120039A4204D87B68074819461A
:1021A000FFF702FA07F11007BD4680BD1C7600104C
:1021B0003C760010DC760010507600106C76001033
:1021C00098B500AF114B4FF000021A804FF0000499
:1021D00009E023464FEAC3020D4BD3181846FFF718
:1021E0004BFF04F101041F2CF3DD0A4B4FF01F02DB
:1021F0001A70094B4FF000021A60084B4FF00002B2
:102200001A600748FFF738FF98BD00BF0081001033
:102210002C8200102C8300103083001034830010B7
:102220003883001098B500AF234B1B6803F0FF0301
:10223000002B07D0204B1B6803F0FF031F4AD35C21
:102240001C462CE01C4B1B6803F47F43002B0BD077
:10225000194B1B684FEA132303F0FF03174AD35CA3
:1022600003F108031C461AE0134B1B6803F47F03B9
:10227000002B0BD0104B1B684FEA134303F0FF03F6
:102280000E4AD35C03F110031C4608E00A4B1B689E
:102290004FEA1363094AD35C03F118031C46084B49
:1022A00053F83430A3F11004064B1C6004F11803FA
:1022B000184600F0F5FE98BD348300101C75001020
:1022C0002C8200103083001090B585B000AF00F074
:1022D000B3FEF860404B1B88002B76D13F4B1B6848
:1022E00003F0FF03002B07D03C4B1B6803F0FF03F8
:1022F0003B4AD35C1C462CE0384B1B6803F47F43FD
:10230000002B0BD0354B1B684FEA132303F0FF0360
:10231000334AD35C03F108031C461AE02F4B1B68B9
:1023200003F47F03002B0BD02C4B1B684FEA1343A5
:1023300003F0FF032A4AD35C03F110031C4608E0B4
:10234000264B1B684FEA1363254AD35C03F118033D
:102350001C46244B53F83430A3F11003BB60224BCE
:102360001B68BA689A4230D0E2B2204B1A701E4BFA
:102370001B687B601C4BBA681A601D4B1B68002BE6
:1023800004D01B4B1B687868B9689847B868FFF79A
:10239000C7FE184B1B78DBB2002B0BD17B6803F117
:1023A00018031A46BB6803F118031046194600F0DB
:1023B0004AFE0AE07B6803F118031A46BB6803F182
:1023C00018031046194600F03EFEF86800F038FE8B
:1023D00007F11407BD4690BD008100103483001042
:1023E0001C7500102C820010308300102C8300100C
:1023F000048100101C82001090B585B000AF786099
:102400007B68002B0DD14FF00003FB731748184970
:10241000184A4FF49A73FFF7C7F8FB7BDBB2002B27
:10242000FBD000F009FE04467B684FF0010283F800
:1024300030207B6893F831304FEAC3020E4BD2183C
:102440007B6803F1100310461946FFF725FE7B68F1
:102450005A6B0A4B1B681A43084B1A60204600F05F
:10246000EFFD07F11407BD4690BD00BF1C760010BC
:102470003C760010C07600102C82001034830010CF
:1024800090B585B000AF78607B68002B0DD14FF020
:102490000003FB7318481949194A4FF4AE73FFF74C
:1024A00083F8FB7BDBB2002BFBD000F0C5FD0446BC
:1024B0007B6803F110031846FFF706FE7B6893F86C
:1024C00031304FEAC3020F4BD3181846FFF716FE00
:1024D0000346002B08D07B685B6B6FEA03020A4B54
:1024E0001B681A40084B1A60204600F0A9FD07F14E
:1024F0001407BD4690BD00BF1C7600103C7600104E
:10250000A47600102C8200103483001098B500AF20
:1025100000F092FD0446054B1B8803F101039AB2BB
:10252000024B1A80204600F08BFD98BD0081001000
:1025300098B500AF00F080FD04460D4B1B8803F1F9
:10254000FF339AB20A4B1A80094B1B881BB2002B2F
:1025500009DC074B4FF000021A80204600F070FDA6
:10256000FFF7B2FE02E0204600F06AFD98BD00BF12
:102570000081001080B483B000AF78607B687A6817
:102580005A607B685A687B681A6007F10C07BD4681
:1025900080BC704780B483B000AF786039607B68DE
:1025A0001B683A685A607B681A683B681A607B68E7
:1025B0003A681A603B687A685A6007F10C07BD46B2
:1025C00080BC704780B483B000AF786039607B68AE
:1025D0005B683A681A607B685A683B685A607B6837
:1025E0003A685A603B687A681A6007F10C07BD4682
:1025F00080BC704780B483B000AF78607B681B6894
:102600007A6852685A607B685B687A6812681A60F8
:102610007B687A685A607B685A687B681A6007F141
:102620000C07BD4680BC704790B583B000AF1D4B12
:102630001B687B6000F000FD04467868FFF720FF10
:102640007B684FF0040283F830207B6803F1580365
:102650001846FFF7CFFF7B6803F148031846FFF7E2
:10266000EDFB7B681846FFF7DBFC0346012B08D126
:102670007B681B6F002B04D17B681846FFF7DEFBDD
:1026800006E07B6803F1100307481946FFF782FF55
:10269000204600F0D5FCFFF717FE07F10C07BD46FA
:1026A00090BD00BF308300103883001080B588B023
:1026B00002AFF860B9607A603B60FB6803F1100319
:1026C0001846FFF757FFFB687A68DA61FB683A68DB
:1026D0001A62FB683A6A5A627B6A9AB2FB681A8588
:1026E000FB685A6AFB681B8D10464FF023011A469F
:1026F000FEF78CF9FB68D969FB681A6AFB68586AAF
:10270000FB681B8DA3F10403C318084611461A4643
:10271000274B00F0F7FC0246FB689A6197F82830D7
:102720001F2B0DD94FF00003FB7522482249234A85
:102730004FF06003FEF738FFFB7DDBB2002BFBD0D0
:10274000FB6897F8282083F83220FB6897F8282048
:1027500083F83120FB68FA6A1A64FB68FA6A5A64E3
:10276000FB684FF00002DA62FB684FF0000283F86A
:102770003020FB684FF000021A67FB684FF0000240
:102780005A67FB6803F14802FB684FF000010091B3
:102790004FF00001019110461946094AFB6800F00C
:1027A000D1FA4FF00003184607F11807BD4680BD67
:1027B00029260010F8760010187700101C780010F9
:1027C000C12B001080B58AB004AFF860B9607A60A0
:1027D0003B60FB68002B0DD14FF00003FB751C48DC
:1027E0001C491D4A4FF09703FEF7DEFEFB7DDBB26E
:1027F000002BFBD03B6A002B0DD14FF00003BB75C3
:1028000013481649144A4FF09803FEF7CDFEBB7DDE
:10281000DBB2002BFBD0FB6818464FF00001BA6812
:10282000FFF7D2FA3B6A00937B6A019397F828304E
:102830000293FB6A0393F868B9687A683B68FFF70C
:1028400035FF0346184607F11807BD4680BD00BF97
:10285000F87600103C7700100C78001050770010CC
:1028600080B400AF024B1B681846BD4680BC704761
:102870003083001080B584B000AF78607B68002B97
:102880000DD14FF00003FB7321482249224A4FF03B
:10289000B803FEF789FEFB7BDBB2002BFBD07B6825
:1028A00093F83030002B0DD04FF00003BB73184865
:1028B0001A49194A4FF0B903FEF776FEBB7BDBB22B
:1028C000002BFBD07B6893F832207B6883F83120A3
:1028D0007B6893F831304FF0010202FA03F31A4695
:1028E0007B685A637B684FF0020283F83020786877
:1028F00000F01EF9FFF7B4FF0346002B01D0FFF7ED
:10290000E3FC4FF00003184607F11007BD4680BDF9
:10291000F87600103C770010F87700106877001008
:1029200080B58AB004AFF860B9607A603B604FF060
:102930000000F968FFF7B8FA03467B617B69002B5A
:1029400002D14FF000031DE03868FEF79FFF3861A9
:102950003B69002B06D17B691846FFF713FB4FF04C
:1029600000030FE03B6900933B68019397F8203028
:1029700002937B6A03937869F968BA687B68FFF70A
:1029800095FE7B69184607F11807BD4680BD00BF5C
:1029900090B583B000AF00F04FFB0446194B1B68A5
:1029A0007B607B6893F83030012B21D17B681A69FA
:1029B0007B685B699A421BD07B6803F11003184661
:1029C000FFF718FE7B6893F831304FEAC3020E4BD5
:1029D000D2187B6803F1100310461946FFF7F2FD89
:1029E000204600F02DFBFFF76FFC4FF0000304E0E2
:1029F000204600F025FB4FF00003184607F10C07B6
:102A0000BD4690BD308300102C82001090B585B07B
:102A100000AF786000F010FB04461E4B1B68FB60A3
:102A2000FB68002B0DD14FF00003FB721A481B49C5
:102A30001B4A4FF4C873FEF7B7FDFB7ADBB2002BDD
:102A4000FBD0F86800F03CF8FB6803F1480207F19E
:102A5000040310464FF000011A4600F037FAFB68F5
:102A600003F14803184600F09FF9204600F0E8FA09
:102A7000FFF72AFCFB68DB6A13F1020F03D1FB6846
:102A80004FF00002DA624FF00003184607F1140716
:102A9000BD4690BD30830010F87600103C770010E2
:102AA000E877001080B582B000AF78607868FFF7F3
:102AB000ADFF0346184607F10807BD4680BD00BFBD
:102AC00090B585B000AF78607B68002B0DD14FF0DA
:102AD0000003FB7313481449144A40F21123FEF714
:102AE00063FDFB7BDBB2002BFBD07B6893F83030BF
:102AF000012B02D04FF0FF330FE000F09DFA0446A7
:102B00007B684FF0020283F830207868FFF7B8FC4A
:102B1000204600F095FA4FF00003184607F114071D
:102B2000BD4690BDF87600103C770010D4770010B9
:102B300090B585B000AF78607B68002B0DD14FF069
:102B40000003FB731B481C491C4A40F23723FEF765
:102B50002BFDFB7BDBB2002BFBD07B6893F8303086
:102B6000022B02D04FF0FF331FE000F065FA04465D
:102B70007B6803F110031846FFF73CFD7B6803F107
:102B800058031846FFF736FD7B6893F84F3023F063
:102B90000103DAB27B6883F84F20204600F050FA38
:102BA0007868FFF729FC4FF00003184607F1140777
:102BB000BD4690BDF87600103C770010C07700103D
:102BC00080B584B000AF78607B68FB60FB68002B49
:102BD0000DD14FF00003FB7218481949194A40F211
:102BE0006623FEF7E1FCFB7ADBB2002BFBD0FB682F
:102BF00093F83030022B0DD04FF00003BB720F481A
:102C00001149104A40F26723FEF7CEFCBB7ADBB2D3
:102C1000002BFBD0FB686FF00102DA62FB6803F166
:102C200010031846FFF7E6FCF868FFF7E5FBFFF72F
:102C30004BFB07F11007BD4680BD00BFF8760010C2
:102C40003C770010AC7700108877001080B483B018
:102C500000AF78607B687A685A607B685A687B68E6
:102C60001A6007F10C07BD4680BC704780B483B082
:102C700000AF786039607B685B683A681A607B688F
:102C80005A683B685A607B683A685A603B687A6861
:102C90001A6007F10C07BD4680BC704780B483B052
:102CA00000AF78607B681B687A6852685A607B68FE
:102CB0005B687A6812681A607B687A685A607B6819
:102CC0005A687B681A6007F10C07BD4680BC7047E4
:102CD00080B483B000AF78607B681A687B689A42E2
:102CE00014BF00230123184607F10C07BD4680BC22
:102CF000704700BF80B584B000AFF860B9607A60FB
:102D00003B60FB683A7EDA71FB68DB7923F00103F4
:102D1000DAB2FB68DA71FB68BA689A61FB687A68B4
:102D2000DA61FB684FF000025A62FB683A681A6287
:102D3000FB6803F110031846FFF788FF07F110073F
:102D4000BD4680BD80B588B002AFF860B9607A60DA
:102D50003B60FB68002B0DD14FF00003FB750F4863
:102D60000F49104A4FF07403FEF71EFCFB7DDBB2E7
:102D7000002BFBD0FB6818464FF00901BA68FFF73B
:102D800023F897F824300093F86879683A683B6A2A
:102D9000FFF7B0FF07F11807BD4680BD2C78001083
:102DA0004C780010A878001090B587B000AF78601C
:102DB0007B68002B0DD14FF00003FB723C483D496E
:102DC0003D4A4FF0E403FEF7EFFBFB7ADBB2002B4A
:102DD000FBD07B68DB7903F00103DBB2002B02D070
:102DE0004FF0FF335EE0354B1B68002B04D0334BB4
:102DF0001B687A68104698477B681A6A304B9A427B
:102E00000DD94FF00003BB7229482E492A4A4FF0D2
:102E1000EB03FEF7C9FBBB7ADBB2002BFBD0FDF75F
:102E20008FF902467B681B6AD2187B685A6200F0F1
:102E300003F90446244B3B613B691B687B6116E048
:102E40007B69A3F11003FB60FB685A6A7B685B6ACD
:102E5000D21A1B4B9A4207D87B6803F1100378699A
:102E60001946FFF703FF06E07B691B687B617A69FF
:102E70003B699A42E4D17A693B699A4206D17B6800
:102E800003F1100378691946FFF7F0FE7B68DB79E0
:102E900043F00103DAB27B68DA71204600F0D0F823
:102EA0004FF00003184607F11C07BD4690BD00BF58
:102EB0002C7800104C7800109878001024820010B4
:102EC000FEFFFF7F60780010947E001080B586B012
:102ED00000AFF8600B467A60FB72FB68002B0DD1E7
:102EE0004FF00003FB751D481D491E4A4FF4AB739C
:102EF000FEF75AFBFB7DDBB2002BFBD0FB7A032BEA
:102F000024D801A252F823F0232F0010192F00100B
:102F10002D2F00103D2F00107B68FA68126A1A608E
:102F200014E07B681A68FB681A620FE0FB68DB79C3
:102F300023F00203DAB2FB68DA7107E0FB68DB79A1
:102F400043F00203DAB2FB68DA7100BF4FF000030E
:102F5000184607F11807BD4680BD00BF2C78001049
:102F60004C7800108478001090B583B000AFFDF766
:102F7000E7F8786000F060F8044641E0284B1B68F1
:102F8000A3F110033B603B685B6A7A68D21A254B59
:102F90009A423CD8244B1B68002B03D0224B1B6861
:102FA000386898473B6803F110031846FFF776FE30
:102FB0003B689B693A68D26910469847FDF7C0F8AC
:102FC00078603B68DB7903F00203002B11D03B688B
:102FD000DB7903F00103DBB2002B0AD03B68DB791D
:102FE00023F00103DAB23B68DA713868FFF7DCFEE0
:102FF00006E03B68DB7923F00103DAB23B68DA7163
:103000000748FFF765FE0346002BB7D000E000BF7E
:10301000204600F015F807F10C07BD4690BD00BF33
:10302000947E0010FEFFFF7F0881001080B400AF87
:10303000BD4680BC704700BFEFF3108072B670478A
:1030400080F310887047284A1368012B04D04FF092
:1030500001031360254A1060254A1160254826495E
:1030600001607047EFF3108272B61F48016891B19A
:103070004FF0000101601D48016829B1EFF309819B
:1030800021E9F00F00680160194909680968B1E891
:10309000F00F81F3098882F310884EF0040E704718
:1030A0001349086011494FF0000008600E494FF0C5
:1030B0000100086011481249D0F8002041EA0201DD
:1030C00001600C480C49016062B6704700BFEFF325
:1030D000098000B500F0A0F85DF804EB4EF0040E96
:1030E0007047EFF305807047488300104483001059
:1030F0004083001004ED00E00000001020ED00E02F
:103100000000FF0080B487B000AFF860B9607A605B
:103110003B607B687B617B694FF080721A607B69E2
:10312000A3F104037B61FA687B691A607B69A3F1F0
:1031300004037B613A687B691A607B69A3F104032D
:103140007B617B694FF000021A607B69A3F1040385
:103150007B617B694FF000021A607B69A3F1040375
:103160007B617B694FF000021A607B69A3F1040365
:103170007B617B694FF000021A607B69A3F1040355
:103180007B61BA687B691A607B69A3F104037B6188
:103190007B694FF000021A607B69A3F104037B6135
:1031A0007B694FF000021A607B69A3F104037B6125
:1031B0007B694FF000021A607B69A3F104037B6115
:1031C0007B694FF000021A607B69A3F104037B6105
:1031D0007B694FF000021A607B69A3F104037B61F5
:1031E0007B694FF000021A607B69A3F104037B61E5
:1031F0007B694FF000021A607B69A3F104037B61D5
:103200007B694FF000021A607B69184607F11C07C2
:10321000BD4680BC704700BF80B582B000AF78600B
:103220007B68DB691A481946FEF7BEF97B689B6923
:1032300018481946FEF7B8F97B685B6916481946C5
:10324000FEF7B2F97B681B6914481946FEF7ACF922
:103250007B68DB6812481946FEF7A6F97B689B6815
:1032600010481946FEF7A0F97B685B680E481946BE
:10327000FEF79AF97B681B680C481946FEF794F92B
:103280000B4B1B680B481946FEF78EF9FEE700BF93
:10329000B8780010C8780010D8780010E8780010CE
:1032A000F8780010087900101879001028790010BB
:1032B000308300103879001080B582B000AF78609C
:1032C0007B681B681846FDF709FB07F10807BD4638
:1032D00080BD00BF80B400AFBD4680BC704700BF5A
:1032E00080B483B000AF78607B687A685A607B688E
:1032F0005A687B681A6007F10C07BD4680BC7047AE
:1033000080B483B000AF786039607B685B683A68EE
:103310001A607B685A683B685A607B683A685A60F2
:103320003B687A681A6007F10C07BD4680BC70479D
:1033300080B483B000AF78607B681A687B689A427B
:1033400014BF00230123184607F10C07BD4680BCBB
:10335000704700BF80B586B000AFF8607B600B4659
:103360007B8113463B81FB68002B0DD14FF000039E
:10337000FB7522482249234A4FF01F03FEF714F938
:10338000FB7DDBB2002BFBD0FB687A681A62FB681E
:103390007A891A80FB683A895A80FB684FF00002EC
:1033A0005A60FB684FF000021A81FB684FF0000280
:1033B0005A81FB6803F110031846FFF791FFFB6881
:1033C00003F118031846FFF78BFF7B894FEAC3030D
:1033D0001846FEF75BFA03461A46FB68DA60FB689C
:1033E000DB68002B02D16FF0040301E04FF0000313
:1033F000184607F11807BD4680BD00BF8879001048
:10340000A8790010307A001080B58AB000AFF8605B
:10341000B9607A603B60FB68002B0DD14FF0000370
:10342000FB74694869496A4A4FF04103FEF7BCF8EA
:10343000FB7CDBB2002BFBD04FF000033B62FFF7BD
:103440000FFAF861FB681B8803F1FF337B83FFF7FA
:10345000F3FD03467B625BE0FB684FF001025A60BC
:103460003B68002B03D16FF001033B6295E0FFF74F
:10347000E3FD7861FDF79EFA0346002B11D0554815
:103480005349FEF791F84FF00003BB744E48524980
:103490004F4A4FF05503FEF787F8BB7CDBB2002B99
:1034A000FBD07869FFF7CCFDFB694FF00002DA62D0
:1034B000F869FFF705FBFB6803F11002FB6903F1F4
:1034C000100310461946FFF71BFF3B68002B0FDD6A
:1034D000FB6903F148023B4610464FF000011A46D3
:1034E000FFF7F4FCFB6903F148031846FFF75CFCA7
:1034F0007B6A1846FFF7A4FDFEF7E6FEFB69DB6A70
:103500003B62FFF799FD03467B623B6A002B43D188
:10351000FB685B891A46FB681B89D21AFB681B880B
:103520009A4299D0FB68DA68FB6859897B8B01EA7B
:1035300003039BB24FEAC303D318BA681A60FB684F
:10354000DA68FB6859897B8B01EA03039BB24FEA77
:10355000C303D3187A685A60FB685B8903F10103DF
:103560009AB2FB685A81FB6803F118031846FFF70B
:10357000DFFE0346002B10D1FB689B69A3F110030B
:10358000FB61F869FFF7D4FA7B6A1846FFF758FD2C
:10359000FEF79AFE3B6A12E000BF7B6A1846FFF70F
:1035A0004FFD3B6A002B09D1FB681B6A002B05D03D
:1035B000FB681B6AF8684FF0020198473B6A18469F
:1035C00007F12807BD4680BD88790010A879001052
:1035D0001C7A0010BC790010E079001080B58AB028
:1035E00000AFF860B9607A603B60FB68002B0DD1DA
:1035F0004FF00003FB7485488549864A4FF09F03CE
:10360000FDF7D2FFFB7CDBB2002BFBD0BB68002BAD
:103610000DD14FF00003BB747C487F497D4A4FF0C9
:10362000A003FDF7C1FFBB7CDBB2002BFBD07B68A6
:10363000002B0DD14FF000037B7474487749754A15
:103640004FF0A103FDF7B0FF7B7CDBB2002BFBD07A
:103650004FF000033B62FFF703F9F861FB681B883A
:1036600003F1FF337B83FFF7E7FC03467B6257E000
:103670003B68002B03D16FF001033B62AFE0FFF723
:10368000DBFC7861FDF796F90346002B11D0644806
:103690006049FDF789FF4FF000033B745B486149C7
:1036A0005C4A4FF0B203FDF77FFF3B7CDBB2002B9F
:1036B000FBD07869FFF7C4FCFB694FF00002DA62C7
:1036C000F869FFF7FDF9FB6803F11802FB6903F1E4
:1036D000100310461946FFF713FE3B68002B0FDD61
:1036E000FB6903F148023B4610464FF000011A46C1
:1036F000FFF7ECFBFB6903F148031846FFF754FBA7
:103700007B6A1846FFF79CFCFEF7DEFDFB69DB6A6F
:103710003B62FFF791FC03467B623B6A002B5DD165
:10372000FB681A89FB685B899A42A1D0FB68DA685A
:10373000FB6819897B8B01EA03039BB24FEAC30341
:10374000D3181A68BB681A60FB68DA68FB681989C5
:103750007B8B01EA03039BB24FEAC303D3185A6879
:103760007B681A60FB681B8903F101039AB2FB684E
:103770001A81FB685B68012B31D1FB685B891A46B3
:10378000FB681B89D21AFB685B889A4227DCFB68BE
:103790004FF000025A60FB6803F110031846FFF770
:1037A000C7FD0346002B0DD1FB681B69A3F1100375
:1037B000FB61F869FFF7BCF97B6A1846FFF740FC2C
:1037C000FEF782FDFB681B6A002B05D0FB681B6AB5
:1037D000F8684FF0030198473B6A12E000BF7B6A2C
:1037E0001846FFF72DFC3B6A002B09D1FB681B6ACA
:1037F000002B05D0FB681B6AF8684FF00101984761
:103800003B6A184607F12807BD4680BD887900103D
:10381000A8790010087A0010E4790010F8790010F7
:10382000BC790010E079001080B582B000AF7860FC
:103830007B6818464FF000014FF08002FDF7E6F874
:103840007B684FF00002A3F880207B684FF00002F5
:10385000A3F8822007F10807BD4680BD80B584B07B
:1038600000AF78600B46FB70FFF7E6FBF8607B6803
:10387000B3F880307A68F978D1547B68B3F8803037
:1038800003F101039BB203F07F039AB27B68A3F8B4
:1038900080207B68B3F880207B68B3F882309A423E
:1038A0000BD17B68B3F8823003F101039BB203F0C4
:1038B0007F039AB27B68A3F88220F868FFF7C0FB09
:1038C00007F11007BD4680BD80B584B000AF7860B9
:1038D0000B46FB70FFF7B0FBF8607B68B3F88030F5
:1038E00003F101039BB203F07F037B817B68B3F894
:1038F00082307A899A420FD07B68B3F880307A6838
:10390000F978D1547B687A89A3F88020F868FFF7AA
:1039100097FB4FF0010304E0F868FFF791FB4FF0CD
:10392000FF33184607F11007BD4680BD80B584B04F
:1039300000AF78604FF0FF33FB60FFF77DFBB860AE
:103940007B68B3F882207B68B3F880309A4211D04C
:103950007B68B3F882307A68D35CFB607B68B3F82D
:10396000823003F101039BB203F07F039AB27B68BC
:10397000A3F88220B868FFF763FBFB68184607F1DD
:103980001007BD4680BD00BF80B584B000AF786031
:10399000FFF752FBF8607B68B3F880301A467B680B
:1039A000B3F88230D31A03F07F03BB60F868FFF7E7
:1039B00047FBBB68184607F11007BD4680BD00BF36
:1039C00080B586B000AF78604FF000037B617B6804
:1039D000002B0DD14FF00003FB7330483049314AC2
:1039E0004FF07803FDF7E0FDFB7BDBB2002BFBD053
:1039F0007B683B617B685B8A03F01003002B46D138
:103A00003B69DB6B1B68002B09D03B69DB6B1B68D8
:103A10003A6902F1400238691146984778617B693A
:103A2000002B01D07B6933E07B685B8A03F48073F1
:103A3000002B04D03B699B6C1846FFF7F5FE7B68B2
:103A40005B8A03F48063002B04D03B69DB6C18466F
:103A5000FFF7EAFE7B685B8A03F40063002B0FD05C
:103A60003B694FF000025A673B6903F15003184667
:103A70004FF028014FF01E024FF00003FFF76AFCE1
:103A80007B685B8A43F010039AB27B685A827B6939
:103A9000184607F11807BD4680BD00BF447A0010E4
:103AA000647A0010C47B001080B586B000AF7860E7
:103AB0000B467B804FF000037B617B68002B0DD1B0
:103AC0004FF00003FB73194819491A4A4FF09F033E
:103AD000FDF76AFDFB7BDBB2002BFBD07B683B6113
:103AE0007B685B8A03F48073002B02D04FF00103E4
:103AF0007B617B685B8A03F48063002B03D07B6966
:103B000043F002037B617B69002B07D03B69DB6BD1
:103B10005B687A6938694FF0100198474FF00003ED
:103B2000184607F11807BD4680BD00BF447A001053
:103B3000647A0010B47B001080B586B000AF786066
:103B40004FF000037B617B68002B0DD14FF0000329
:103B5000FB73194819491A4A4FF0B403FDF724FDC5
:103B6000FB7BDBB2002BFBD07B683B617B685B8A15
:103B700003F48073002B02D04FF001037B617B685C
:103B80005B8A03F48063002B03D07B6943F002035C
:103B90007B617B69002B07D03B69DB6B5B687A69D3
:103BA00038694FF0110198474FF00003184607F1AC
:103BB0001807BD4680BD00BF447A0010647A00102B
:103BC000A47B001080B58AB000AFF860B9607A605D
:103BD0003B60FB68002B0DD14FF00003FB752C48B8
:103BE0002C492D4A4FF0CD03FDF7DEFCFB7DDBB207
:103BF000002BFBD0FB683B627B687B62FB685B8AC7
:103C000003F48073002B28D015E03B6A9B6C1846A8
:103C1000FFF78CFEF861FB69B3F1FF3F25D0FB692C
:103C2000DAB27B6A1A707B6A03F101037B623B683C
:103C300003F1FF333B603B68002BE6D116E03B6AA3
:103C4000DB6BDB68386A98470346DAB27B6A1A7026
:103C50007B6A03F101037B6200E000BF7A6A7B6844
:103C6000D21A3B689A42EAD300E000BF7A6A7B68C6
:103C7000D31ABB61BB69002B03D16FF00300FCF7C3
:103C8000A5FEBB69184607F12807BD4680BD00BFE9
:103C9000447A0010647A0010947B001080B586B0DE
:103CA00000AF78604FF000037B6100E000BF7B68ED
:103CB000DB6C1846FFF73AFE38613B69002B10DDDC
:103CC0007B68DB6B9B683A69D2B27868114698478B
:103CD000F8607B6903F101037B61FB68002BE5D190
:103CE00015E07B69002B0FD17B684FF000025A670B
:103CF0007B68DB69002B09D07B68DB697A6810463A
:103D00004FF00001984702E000BF00E000BF7B6970
:103D1000184607F11807BD4680BD00BF80B58EB0BC
:103D200000AFF860B9607A603B604FF000033B631E
:103D3000FB68002B0DD14FF00003FB776D486E49F7
:103D40006E4A40F22513FDF72FFCFB7FDBB2002B00
:103D5000FBD0FB68FB627B687B63FB685B8A03F4D8
:103D60008063002B2FD013E0FB6ADA6C7B6B1B782F
:103D700010461946FFF7A8FD0346B3F1FF3F0BD0ED
:103D80007B6B03F101037B633B6803F1FF333B6013
:103D90003B68002BE8D100E000BFFFF74DF9B862A7
:103DA000FB6A5B6F002B0AD1B86AFFF749F9FB6A1F
:103DB0004FF001025A67F86AFFF770FF88E0B86AAF
:103DC000FFF73EF984E0FB685B8A03F40063002B95
:103DD0007BD04FF00003BB614FF000037B61FB68B9
:103DE0005B8A03F04003002B0DD04FF00003FB74FF
:103DF00040484349414A40F24B13FDF7D5FBFB7C59
:103E0000DBB2002BFBD0FB6A03F150031846796844
:103E10003A684FF01403FFF7F7FA78627B6A002BD9
:103E20002CD1FFF709F93862FB6A5B6F002B20D1B8
:103E3000FB6A4FF001025A67386AFFF701F9FB6A23
:103E400003F1500107F1180207F114030846114667
:103E50001A464FF00003FFF7C1FB0346002B0BD1BE
:103E6000FB6ADB6B1B69BA6911467A69F86A984785
:103E700002E0386AFFF7E4F83B6835E0786AFCF75F
:103E8000A5FD4FF000032FE07B6B1B780A2B0CD1B4
:103E9000FB685B8A03F04003002B06D0FB6ADB6BF8
:103EA0009B68F86A4FF00D019847FB6ADB6B9B68D3
:103EB0007A6B1278F86A114698477B6B03F101031D
:103EC0007B633B6803F1FF333B603B68002BDBD136
:103ED0007A6B7B68D31A3B633B6B002B03D16FF08B
:103EE0000200FCF773FD3B6B184607F13807BD462F
:103EF00080BD00BF447A0010647A0010847B0010FB
:103F0000747A001080B586B000AFF8600B467A6016
:103F1000FB72FB68002B0DD14FF00003FB741A48B5
:103F20001A491B4A40F28B13FDF73EFBFB7CDBB2C8
:103F3000002BFBD0FB687B61FB7A022B04D0032BA8
:103F400012D0012B08D017E0FB685B8A43F02003F6
:103F50009AB2FB685A820FE0FB685B8A23F0200369
:103F60009AB2FB685A8207E07B69DB6B1B687A6850
:103F700078691146984700BF4FF00003184607F1D3
:103F80001807BD4680BD00BF447A0010647A001057
:103F9000707B001080B586B000AFF860B9607A60C1
:103FA0003B60FB68002B0DD14FF00003FB741D48F4
:103FB0001D491E4A4FF4D673FDF7F6FAFB7CDBB2BF
:103FC000002BFBD0FB687B617B694FF000021A7409
:103FD0007B694FF000029A617B694FF00002DA6161
:103FE0007B69134A1A627B69124A5A627B69124AD8
:103FF0009A627B69114ADA627B69114A1A637B69AA
:10400000104A5A637B693A689A637B689BB2786905
:10401000B9681A46FCF7C2F80346184607F11807B4
:10402000BD4680BD447A0010A07A0010587B001075
:10403000C1390010A93A0010393B0010C53B0010EF
:104040001D3D0010053F001080B584B000AF7860C2
:104050004FF0FF33FB607B685B8A03F48073002BB7
:104060000DD14FF00003FB7211481249124A4FF470
:10407000E373FDF799FAFB7ADBB2002BFBD07B6888
:10408000DB6BDB6878689847F860FB68B3F1FF3F4B
:1040900008D07B689A6CFB68DBB210461946FFF7C4
:1040A000DDFBECE700BF07F11007BD4680BD00BF98
:1040B000447A0010B47A0010407B001080B586B0BE
:1040C00000AF78604FF0FF337B617B685B8A03F45D
:1040D0008073002B0DD14FF00003FB7319481A4970
:1040E0001A4A4FF4ED73FDF75FFAFB7BDBB2002B4E
:1040F000FBD07B68DB6BDB687868984778617B690D
:10410000B3F1FF3F04D17B689B69002B09D114E018
:104110007B689A6C7B69DBB210461946FFF79EFB01
:10412000E7E77B689B6C1846FFF72EFC38617B68DD
:104130009B697A6810463969984707F11807BD46A8
:1041400080BD00BF447A0010B47A0010247B0010B8
:1041500080B584B000AF78607B685B8A03F48063CD
:10416000002B0DD14FF00003FB73094809490A4A9F
:1041700040F2F713FDF718FAFB7BDBB2002BFBD004
:104180007868FFF78BFD07F11007BD4680BD00BFC3
:10419000447A0010E07A00100C7B001080B483B0E9
:1041A00000AF0346FB71FB79032B17D801A252F82D
:1041B00023F000BFC5410010CB410010D1410010D9
:1041C000D7410010094B1B6809E0094B1B6806E04A
:1041D000084B1B6803E0084B1B6800E0FEE718462D
:1041E00007F10C07BD4680BC704700BF9C7E0010E5
:1041F000A07E0010A47E0010A87E001080B483B0C2
:1042000000AF78600B46FB70FB78012B09D10E4B99
:104210000D4AD2F8C4107A6841EA0202C3F8C420F9
:104220000DE0FB78002B0AD1074B074AD2F8C410E7
:104230007A686FEA020201EA0202C3F8C42007F1B9
:104240000C07BD4680BC704700C00F4080B400AF73
:10425000054A054BDB6B23F4E26323F00A03D363C7
:10426000BD4680BC704700BF00000C4080B400AF6A
:10427000054A054BDB6B23F4E46323F00A03D363A5
:10428000BD4680BC704700BF00000C4080B483B0C6
:1042900000AF1B4B5B6B7B607B6803F00103DBB201
:1042A000002B03D0164B4FF001029A637B6803F09A
:1042B0000403002B03D0124B4FF004029A637B6877
:1042C00003F04003002B03D00D4B4FF040029A63E4
:1042D0007B6803F08003002B03D0094B4FF0800272
:1042E0009A637B6803F40063002B03D0044B4FF404
:1042F00000629A6307F10C07BD4680BC704700BF9F
:1043000000000C4080B483B000AF1E4B5B6B7B6041
:104310007B6803F00203002B03D01A4B4FF002021C
:104320009A637B6803F00803002B03D0154B4FF012
:1043300008029A637B6803F01003002B03D0114B33
:104340004FF010029A637B6803F02003002B03D028
:104350000C4B4FF020029A637B6803F40073002B30
:1043600003D0084B4FF400729A63074B4FF00002E2
:104370001A60064B7A681A6007F10C07BD4680BCCC
:10438000704700BF00000C400C810010108100102D
:1043900080B582B000AF144B5B6B7B607B6803F42D
:1043A0008073002B10D0104B4FF480729A630F4B28
:1043B0004FF000021A600E4B4FF000021A60FFF738
:1043C00045FFFFF753FF0AE07B6803F48063002B8F
:1043D00004D0054B4FF480629A6300E000BF07F100
:1043E0000807BD4680BD00BF00000C400C810010D6
:1043F0001081001080B400AFBD4680BC704700BF84
:1044000080B582B000AF164B5B6B7B607A6840F280
:104410003A2302EA0303002B02D0FFF773FF1AE0EE
:104420007B6803F4A063002B02D0FFF7B1FF12E01A
:104430007A680C4B02EA0303002B02D0FFF7DAFF85
:1044400009E07A6840F6C50302EA0303002B02D0B4
:10445000FFF71CFF00BF07F10807BD4680BD00BF86
:1044600000000C4000C40F0080B485B000AF0246CD
:104470000B46FA71BB714FF00003FB60FB794FEA0A
:104480004312BB79D31803F1805303F530434FEA4D
:104490008303FB60FB68184607F11407BD4680BC28
:1044A000704700BF80B485B000AF02460B46FA717A
:1044B000BB714FF00503FB73FB79052B7FD801A27D
:1044C00052F823F0DD4400106D4500108F450010B8
:1044D0008F4500108F45001097450010BB79062BC3
:1044E0000BD9BB79092B02D9BB790B2B05D9BB7929
:1044F0000D2B06D9BB79162B03D84FF00003FB73A5
:1045000033E0BB790C2B08D0BB790D2B05D0BB79E0
:10451000162B06D9BB791A2B03D84FF00103FB7376
:1045200023E0BB791D2B05D0BB791E2B02D0BB79B4
:104530001F2B03D14FF00203FB7316E0BB791B2B3B
:1045400002D0BB791C2B03D14FF00303FB730CE0AB
:10455000BB79072B05D0BB79082B02D0BB79092B7F
:104560002FD14FF00403FB7330E02FE0BB791D2BFC
:1045700003D84FF00003FB7328E0BB791E2B02D059
:10458000BB791F2B1FD14FF00103FB731EE04FF0CF
:104590000003FB731AE0BB79012B02D9BB79042B12
:1045A00003D14FF00003FB7310E0BB79022B02D064
:1045B000BB79032B09D14FF00303FB7306E000BF67
:1045C00004E000BF02E000BF00E000BFFB7B184634
:1045D00007F11407BD4680BC704700BF80B584B0AA
:1045E00000AF13460246FA710A46BA717B714FF06A
:1045F0000003FB60FA79BB7910461946FFF752FFBA
:104600000346FB72FB7A052B01D10F4B16E0FA79BA
:10461000BB7910461946FFF727FFF860FB681B6857
:1046200023F00702FB681A60FB681A687B7903F0C5
:1046300007031A43FB681A604FF00003184607F19E
:104640001007BD4680BD00BF010000102DE9B04F2E
:104650009AB000AF0346396287F827304FF0000365
:1046600087F867304FF00100FFF798FDF8634FF0CF
:10467000FF333B644FF00003BB654FF000037B65E5
:104680004FF000024FF00003C7E912234FF001037F
:10469000FB6578E04FF000033B6667E0FB6B1A4672
:1046A0004FF000034FEA12114FEA037541EA050586
:1046B0004FEA0274FB6D1A464FF0000302FB05F14E
:1046C00004FB03F00918A4FB0223C9180B46F86D7C
:1046D000396E4118386A00FB01F078607968084645
:1046E0004FF00001C7E9060110461946D7E9062335
:1046F00001F0DEFE02460B46C7E90C233B6B7B64F0
:104700007B6B1B463B614FF000037B613B693B6564
:104710007B6CB3F1004F07D97B6CC3F100037B6462
:104720003B6D03F101033B653B6D002B17D03B6DE7
:10473000B3F5803F15D87A6C3B6C9A4212D27B6CF1
:104740003B643B6D1A464FF00003C7E912233B6EF2
:10475000BB65FB6D7B653B6C002B0CD002E000BFA2
:1047600000E000BF3B6E03F101033B663A6EFB6D58
:104770009A4293D300E000BF3B6C002B07D0FB6D47
:1047800003F10103FB65FB6D0F2B83D900E000BF34
:10479000D7E9122352EA030002D14FF00003E9E007
:1047A000FB6B4FEA13137A6D02FB03F31C464FF0C9
:1047B00000057A6DBB6DD3181A464FF00003B96C33
:1047C00003FB01F1F86C02FB00F00918B86CA0FBC8
:1047D0000223C9180B462046294601F069FE02460D
:1047E0000B461346FB623A6AFB6A9A4204D93A6A5C
:1047F000FB6AD31A3B6403E0FA6A3B6AD31A3B6450
:104800003B6C4FF0640202FB03F23B6AB2FBF3F332
:104810003B643B6C022B00F2AB8097F82730012BF6
:1048200035D1574B564A127BD2B262F07F02D2B2D8
:104830001A73534BFA6C4FEA0262B96C4FEA1121BA
:10484000B960B96842EA0101B960FA6C4FEA122214
:10485000FA60387AC2B21A71494B97F848201A7038
:10486000474B474A127BD2B202F07F02D2B21A7390
:10487000434B7A6D4FEA021202F0FF01BA6D02F06B
:104880000F0241EA020202F0FF029A626CE097F81E
:104890002730042B2FD13B4B3A4AD26842F080029A
:1048A000DA60384BFA6C4FEA0262B96C4FEA112AAF
:1048B00042EA0A0AFA6C4FEA122B524602F0FF0251
:1048C0005A60304BBA6C02F0FF021A602D4B2D4A31
:1048D000D26802F07F02DA602A4B7A6D4FEA021248
:1048E00002F0FF01BA6D02F00F0241EA020202F08B
:1048F000FF029A6238E097F82730184600F044F833
:10490000B862BB6A1B7BDBB263F07F03DAB2BB6ABF
:104910001A73FB6C4FEA0363BA6C4FEA122843EA3E
:104920000808FB6C4FEA13295FFA88F2BB6A1A7118
:1049300097F84820BB6A1A70BB6A1B7BDBB203F096
:104940007F03DAB2BB6A1A737B6DDBB24FEA0313E3
:10495000DAB2BB6DDBB203F00F03DBB242EA030352
:10496000DAB2BB6A83F828204FF0010387F867307A
:1049700097F86730184607F16807BD46BDE8B08F65
:104980000000014000400A4080B485B000AF0346FB
:10499000FB714FF00003FB60FB79022B06D0032B69
:1049A00007D0002B08D1084BFB6006E0074BFB60EB
:1049B00003E0074BFB6000E000BFFB68184607F10F
:1049C0001407BD4680BC704700C00040008009400D
:1049D00000C0094080B586B000AF03463960FB7166
:1049E000FB79042B00F20C8101A252F823F000BFE6
:1049F000054A0010D74A0010054A0010054A001069
:104A0000814B0010FB791846FFF7BEFF3861FB7938
:104A1000002B06D14FF008004FF00101FFF7EEFB2D
:104A200012E0FB79022B06D14FF080704FF00101AC
:104A3000FFF7E4FB08E0FB79032B05D14FF0007092
:104A40004FF00101FFF7DAFB3B694FF007021A72E2
:104A50003B694FF000021A7203E03B691B78DBB23E
:104A60007B613B691B7DDBB203F00103DBB2002BF2
:104A7000F3D13B694FF0800283F8302000BF3B69DF
:104A80001B7DDBB203F02003002BF8D03B694FF015
:104A9000000283F830203B694FF000025A603B6906
:104AA0004FF000021A733B694FF000021A623B6933
:104AB0004FF0000283F84C203B694FF0000283F86E
:104AC00054203B694FF0000283F850203B691B7D66
:104AD000DBB27B6194E04FF010004FF00101FFF773
:104AE0008DFB884B4FF007021A72864B4FF0000285
:104AF0001A7203E0834B1B78DBB27B61814B1B7D19
:104B0000DBB203F00103DBB2002BF3D17D4B4FF09E
:104B1000800283F8302000BF7A4B1B7DDBB203F0AC
:104B20002003002BF8D0774B4FF0000283F83020A1
:104B3000744B4FF000025A60724B4FF000021A7330
:104B4000704B4FF000021A626E4B4FF0000283F878
:104B50004C206C4B4FF0000283F85420694B4FF00F
:104B6000000283F85020674B1B7DDBB27B61654BF5
:104B70004FF000021A74634B1B7EDBB27B613FE097
:104B80004FF480704FF00101FFF738FB5E4B4FF0A0
:104B900007029A605C4B4FF000029A6002E05A4BA9
:104BA0001B687B61584B5B6903F00103DBB2002B90
:104BB000F5D100BF544B5B6903F02003002BF9D003
:104BC000514B4FF000025A604F4B4FF00002DA6039
:104BD0004D4B4FF000021A624B4B4FF00002DA646B
:104BE000494B4FF000025A65474B4FF000021A65DF
:104BF000454B5B697B61444B4FF000025A6200BF3A
:104C00003B681B68FA7910461946FFF71FFDFB79D0
:104C1000012B06D13B4B1B7BDBB203F0C0037B6156
:104C200013E0FB79042B05D1374BDB6803F0C0039D
:104C30007B610AE0FB791846FFF7A6FEF860FB6887
:104C40001B7BDBB203F0C0037B613B685B79012B0C
:104C500004D0022B07D0002B0FD009E07B6943F072
:104C600001037B610AE07B6943F002037B6105E09D
:104C70007B6943F003037B6100E000BF3B681B7965
:104C8000002B25D07B6943F008037B613B681B79CF
:104C900003F1FF33032B1AD801A252F823F000BF0F
:104CA000CF4C0010B14C0010BB4C0010C54C001094
:104CB0007B6943F010037B610AE07B6943F02003CA
:104CC0007B6105E07B6943F030037B6100E000BF5E
:104CD0003B689B79012B04D17B6943F004037B6122
:104CE00000E000BFFB79012B04D1064B7A69D2B2F8
:104CF0001A7314E0FB79042B08D1034B7A69D2B202
:104D0000DA600CE00000014000400A40FB791846E0
:104D1000FFF73AFEB8607B69DAB2BB681A7307F135
:104D20001807BD4680BD00BF80B487B000AF1346F2
:104D30000246FA710A46BA717B714FF000033B617B
:104D40004FF00003FB60FB79042B2BD801A252F833
:104D500023F000BF694D0010754D0010814D00100B
:104D60008D4D0010994D0010354B3B6140F20733DB
:104D7000FB6017E0334B3B6140F28F33FB6011E087
:104D8000314B3B6140F20733FB600BE02F4B3B6143
:104D900040F20733FB6005E02D4B3B6140F20733E7
:104DA000FB6000BFBB79062B2CD801A252F823F080
:104DB000CD4D0010D54D0010DD4D0010E54D00101B
:104DC000ED4D0010F54D0010FD4D00104FF00103AA
:104DD0007B6117E04FF002037B6113E04FF00403A7
:104DE0007B610FE04FF008037B610BE04FF0800325
:104DF0007B6107E04FF480737B6103E04FF4007345
:104E00007B6100BF7B79012B09D13B691A68796905
:104E1000FB6801EA03031A433B691A600AE03B6935
:104E20001A687B696FEA0301FB6801EA03031A4011
:104E30003B691A6007F11C07BD4680BC704700BF84
:104E400004C00040040001400480094004C009403F
:104E500004400A4080B485B000AF03463960FB715E
:104E60004FF00003FB73FB7B43F00103FB733B68D4
:104E7000DB78012B04D0022B07D0002B0FD009E0E8
:104E8000FB7B43F04003FB730AE0FB7B63F07F0393
:104E9000FB7305E0FB7B63F03F03FB7300E000BFA7
:104EA0003B685B78012B03D1FB7B43F00403FB736E
:104EB0003B681B78012B03D1FB7B43F00203FB73A0
:104EC0003B689B78012B03D1FB7B43F00803FB730A
:104ED000FB79042B2ED801A252F823F0F14E0010DA
:104EE000FF4E00100D4F00101B4F0010294F0010F7
:104EF000134BFA7B22F03002D2B21A721AE0114B35
:104F0000FA7B22F03002D2B21A7213E00E4BFA7B17
:104F100022F03002D2B21A720CE00C4BFA7B22F073
:104F20003002D2B21A7205E0094BFA7B02F0CF02CE
:104F30009A6000BF07F11407BD4680BC704700BFF0
:104F400000C00040000001400080094000C009404E
:104F500000400A4080B483B000AF78607B684FF0B7
:104F600000029A707B684FF00002DA707B684FF0A5
:104F700001021A707B684FF001025A7007F10C07AA
:104F8000BD4680BC704700BF80B584B000AF02460C
:104F90000B46FA71BB71BB79012B20D1FB79012B38
:104FA0000AD11F4B1E4A92F83020D2B262F07F0223
:104FB000D2B283F830202EE0FB79042B2BD0FB7982
:104FC0001846FFF7E1FCF860FB6893F83030DBB27D
:104FD00063F07F03DAB2FB6883F830201BE0FB79D3
:104FE000012B08D10E4B93F830300D4B4FF00002DF
:104FF00083F830200FE0FB79042B0CD0FB791846A6
:10500000FFF7C2FCB860BB6893F83030BB684FF064
:10501000000283F8302007F11007BD4680BD00BFB5
:1050200000000140FEE7FEE7FEE7FEE7FEE7FEE7E1
:10503000FEE7FEE7FEE7FEE780B485B000AFA14BD8
:10504000D3F8043103F48073002B40F087809D4B2C
:10505000D3F80C3103F00103002B35D1994BD3F871
:10506000043103F01F03002B08D0964BD3F8043112
:1050700003F01F03944AB2FBF3F301E04FF0000387
:10508000924A13608F4BD3F8A83103F01F03002B13
:1050900008D08C4BD3F8A83103F01F038A4AB2FB27
:1050A000F3F301E04FF00003894A1360874B1A685D
:1050B000844BD3F8003103F0010303F10103B2FB89
:1050C000F3F2844B1A6014E17E4BD3F8A03103F065
:1050D0004003002B0CD17D4B4FF000021A607C4B3B
:1050E0004FF000021A607B4B4FF000021A6000E1A3
:1050F000744BD3F8043103F01F03002B08D0714B1D
:10510000D3F8043103F01F03734AB2FBF3F301E059
:105110004FF000036D4A13606A4BD3F8A83103F0D7
:105120001F03002B08D0674BD3F8A83103F01F03EF
:10513000694AB2FBF3F301E04FF00003644A1360E5
:10514000624B1A685F4BD3F8003103F0010303F19F
:105150000103B2FBF3F25F4B1A60CAE0594BD3F87C
:10516000883003F48073002B0CD1584B4FF00002B1
:105170001A60574B4FF000021A60564B4FF0000276
:105180001A60B6E04F4BD3F80C3103F00103002B4B
:1051900047D14C4BD3F88830DBB203F01F03DBB2AE
:1051A00003F10103FB73474BD3F80431DBB203F087
:1051B0001F03BB73434BD3F8A831DBB203F01F03CB
:1051C0007B73404BD3F80031DBB203F00103DBB259
:1051D00003F101033B73BB7B002B07D0FB7B3A4AF7
:1051E00002FB03F2BB7BB2FBF3F301E04FF00003E1
:1051F000364A13607B7B002B07D0FB7B324A02FBD5
:1052000003F27B7BB2FBF3F301E04FF00003304A83
:1052100013602E4B1A683B7BB2FBF3F22D4B1A60E6
:1052200067E0284BD3F8A03103F04003002B0CD1EA
:10523000264B4FF000021A60254B4FF000021A6017
:10524000244B4FF000021A6053E01E4BD3F8883015
:10525000DBB203F01F03DBB203F10103FB72194B56
:10526000D3F80431DBB203F01F03BB72154BD3F844
:10527000A831DBB203F01F037B72124BD3F800316D
:10528000DBB203F00103DBB203F101033B72BB7A33
:10529000002B07D0FB7A104A02FB03F2BB7AB2FB69
:1052A000F3F301E04FF00003084A13607B7A002B10
:1052B00014D0FB7A084A02FB03F27B7AB2FBF3F3C9
:1052C0000EE000BF00C00F40001BB7009C7E001026
:1052D000A07E0010A47E001000127A004FF00003A0
:1052E000414A1360414B1A683B7AB2FBF3F2404BE0
:1052F0001A60404BD3F8083103F48073002B41D07F
:105300003C4BD3F8083103F01F03042B08D0062BC5
:1053100006D0002B31D1384B4FF000021A605EE00E
:10532000344BD3F88830DBB203F01F03DBB203F158
:105330000103FB712F4BD3F80831DBB203F01F03DD
:10534000BB712C4BD3F80C3103F00103DBB2002B03
:1053500009D0FB79294A02FB03F2BB79B2FBF3F2D5
:10536000254B1A603BE0FB79254A02FB03F2BB792F
:10537000B2FBF3F2204B1A6031E01F4B4FF00002FA
:105380001A602CE01B4BD3F8083103F40073002B98
:1053900021D0184BD3F80C3103F00103DBB2002B02
:1053A0000CD0144BD3F8A83003F01F0303F1010312
:1053B000124A02FB03F2104B1A6010E00D4BD3F8B7
:1053C000883003F01F0303F101030D4A02FB03F2CF
:1053D000094B1A6003E0084B4FF000021A6007F116
:1053E0001407BD4680BC7047A07E00109C7E001054
:1053F000A47E001000C00F40A87E001000127A00AA
:10540000001BB70080B500AF3D4B4FF02102C3F841
:10541000A02100BF3A4BD3F8A03103F04003002B8A
:10542000F8D0374B4FF00102C3F80C21344B4FF04A
:105430000902C3F88420324B4FF00102C3F88020E8
:105440002F4B4FF0AA02C3F88C202D4B4FF0550282
:10545000C3F88C2000BF2A4BD3F8883003F4806354
:10546000002BF8D0264B4FF02302C3F8A420244B86
:105470004FF00102C3F8A020214B4FF0AA02C3F85D
:10548000AC201F4B4FF05502C3F8AC2000BF1C4BA3
:10549000D3F8A83003F48063002BF8D0184B40F207
:1054A0000112C3F80421164B40F20122C3F808216F
:1054B000134B4FF00102C3F80021114B4FF00202D1
:1054C000C3F8A8210E4B6FF48032C3F8C4200C4BF4
:1054D0004FF00002C3F8C821094B094AD2F8B021A5
:1054E00042F00302C3F8B021054B45F23A021A60BC
:1054F000044B4FF080529A60FFF79EFD80BD00BFC5
:1055000000C00F4000ED00E080B483B000AF034660
:10551000FB71094B97F907204FEA5212F97901F014
:105520001F014FF0010000FA01F143F8221007F1CA
:105530000C07BD4680BC704700E100E080B483B03A
:1055400000AF0346FB710A4B97F907204FEA52124E
:10555000F97901F01F014FF0010000FA01F102F1A9
:10556000200243F8221007F10C07BD4680BC7047AB
:1055700000E100E080B483B000AF03463960FB7106
:1055800097F90730002B0DDA0E49FB7903F00F0372
:10559000A3F104033A68D2B24FEAC202D2B2CB18E6
:1055A0001A760AE0084997F907303A68D2B24FEA0A
:1055B000C202D2B2CB1883F8002307F10C07BD4614
:1055C00080BC704700ED00E000E100E080B588B0ED
:1055D00000AF786039604FF00003FB617B68002BFF
:1055E0000DD14FF00003FB7380488149814A4FF091
:1055F0002F03FBF7D9FFFB7BDBB2002BFBD03B6813
:10560000002B0DD14FF00003BB7378487A49794ADB
:105610004FF03003FBF7C8FFBB7BDBB2002BFBD0A6
:105620004FF008004FF00101FEF7E8FD4FF00000D9
:105630004FF002014FF00102FEF7D0FF4FF00000E3
:105640004FF003014FF00102FEF7C8FF3B681B68F3
:10565000B3F5165F0AD0B3F5E13F03D0B3F5965F1B
:1056600008D00BE04FF4E1337B610BE04FF41653AD
:105670007B6107E04FF496537B6103E04FF4E13325
:105680007B6100BF3B681B79C3F38113DBB2012B45
:1056900007D0022B09D0002B0BD14FF000033B7633
:1056A0000BE04FF001033B7607E04FF002033B763F
:1056B00003E04FF000033B7600BF3B681B79C3F368
:1056C0000303DBB2A3F10503042B21D801A252F896
:1056D00023F000BF0957001001570010F9560010C1
:1056E000F1560010E95600104FF00803FB6113E07B
:1056F0004FF003037B760FE04FF002037B760BE065
:105700004FF001037B7607E04FF000037B7603E068
:105710004FF003037B7600BF3B681B79C3F3011393
:10572000DBB2032B1AD801A252F823F03D57001028
:10573000455700104D570010555700104FF000030B
:10574000BB760FE04FF00103BB760BE04FF0080390
:10575000FB6107E04FF00803FB6103E04FF000033B
:10576000BB7600BF07F114034FF000001946FFF7A6
:1057700031F907F110031846FFF7ECFB4FF0030374
:10578000FB7407F110034FF000001946FFF762FBAE
:105790004FF000004FF00101FFF7F6FB4FF0000063
:1057A0004FF000014FF00102FFF7BEFA4FF000008A
:1057B0004FF002014FF00102FFF7B6FA4FF0000080
:1057C0004FF001014FF00102FFF7AEFA4FF0050074
:1057D0004FF00901FFF7CEFE4FF00500FFF794FEF2
:1057E000FB69184607F12007BD4680BDD47B001039
:1057F000F47B0010687C0010087C001080B586B037
:1058000000AFF860B9607A604FF000037B61FB681D
:10581000002B0DD14FF00003FB7412481249134ABC
:105820004FF0BC03FBF7C0FEFB7CDBB2002BFBD0D0
:10583000BB68102B06D0112B09D14FF00500FFF7E4
:105840007DFE08E04FF00500FFF75EFE03E04FF03D
:1058500008037B6100BF7B69184607F11807BD4646
:1058600080BD00BFD47B0010F47B0010607C001072
:1058700080B584B000AF78600B46FB707B68002B6E
:105880000DD14FF00003FB7310481149114A4FF03E
:10589000D403FBF789FEFB7BDBB2002BFBD00E4B66
:1058A0001B780E2B09D80D4BFA781A700A4B1B780F
:1058B00003F10103DAB2084B1A70074B1B78C3F1EE
:1058C0000F03184607F11007BD4680BDD47B0010BA
:1058D000F47B0010547C00101581001000C00040C3
:1058E00080B584B000AF78604FF0FF33FB607B6819
:1058F000002B22D14FF00003FB7217481749184ABA
:105900004FF0E503FBF750FEFB7ADBB2002BFBD038
:1059100014E0144B1B78012B0BD9134B1B78DBB213
:10592000FB60104B1B7803F1FF33DAB20D4B1A709A
:1059300004E04FF0FF33FB6008E000BF0A4B1B7D23
:10594000DBB203F00103DBB2002BE2D1FB681846A7
:1059500007F11007BD4680BDD47B0010F47B00101A
:105960004C7C00101481001000C0004080B483B053
:1059700000AF4FF00003FB711FE0164B1B68002BBC
:1059800020D0154B154A126812781A70134B1B68F9
:1059900003F10102114B1A600E4B1B6803F1FF3239
:1059A0000C4B1A60FB7903F10103FB710C4B1B7864
:1059B00003F10103DAB20A4B1A70094B1B780F2B63
:1059C000DBD900E000BFFB79184607F10C07BD46A4
:1059D00080BC70471C81001000C00040188100107E
:1059E0001581001080B586B000AFF860B9607A60AC
:1059F000FB68002B0DD14FF00003FB750C480D49DF
:105A00000D4A4FF48A73FBF7CFFDFB7DDBB2002B11
:105A1000FBD00A4BBA681A60094B7A681A60FFF724
:105A2000A5FF7B68184607F11807BD4680BD00BF7B
:105A3000D47B0010F47B00103C7C00101881001017
:105A40001C81001080B582B000AF144A3B4692E83A
:105A5000030083E80300124B124ADA63104B124A28
:105A60009A640F4B114ADA640D4B03F140033A4636
:105A700092E8030083E803003B4609481946FFF714
:105A8000A5FD07480A4940F203524FF00003FEF714
:105A900081FA07F10807BD4680BD00BF347C0010C5
:105AA00020810010207C00104C830010D083001057
:105AB000187C001080B584B000AFFAF74BFF1D4B87
:105AC0009A6840F2CF3302EA0303FB60FB6803F0FD
:105AD0000E03BB60BB68062B07D1164B1B7DDBB2E8
