:020000041000EA
:1000000000000110E5000010613E00107F3000107C
:10001000653E0010673E0010693E001000000000C1
:100020000000000000000000000000006B3E001017
:100030006D3E00100000000015300010CD4400108F
:10004000733E0010733E0010733E0010733E0010AC
:10005000733E0010733E001095430010733E001075
:10006000733E0010733E0010733E0010733E00108C
:10007000733E001000000000733E0010733E00103D
:10008000733E0010733E0010733E0010733E00106C
:10009000733E0010733E0010733E0010733E00105C
:1000A000733E0010733E0010733E0010733E00104C
:1000B000BD380010F93D0010733E0010733E001073
:1000C000733E0010733E0010733E0010733E00102C
:1000D000733E0010733E0010733E0010733E00101C
:1000E000733E001000200649064A914204D0914216
:1000F00002D208600431FAD303488047034800471E
:10010000A8540010F070001039420010A5460010ED
:1001100045F2A843C1F200031A780AB90120187009
:10012000704700BF45F2E830C1F2000008B503682F
:100130002BB140F20003C0F2000303B1984708BDA1
:1001400080B400AF024B1B681846BD4680BC7047A8
:10015000AC54001080B582B000AF0F4B1B6803F1A8
:1001600001020D4B1A6002F053FB78607B685B6CF8
:1001700003F1FF327B685A647B685B6C002B05D10E
:100180007B681A6C7B685A6402F0DAFB02F0C4FEEA
:1001900007F10807BD4680BDAC54001080B586B09D
:1001A00000AF786002F034FB0346002B01D002F070
:1001B00085F91A4B3B613B695B687B6119E07B69A0
:1001C000A3F10803FB60FB68184679684FF006024C
:1001D00000F0B0FC0346002B08D102F019FB0346E7
:1001E000002B01D002F07CF9FB6811E07B691B68F1
:1001F0007B613B6903F104027B699A42DFD102F023
:1002000007FB0346002B01D002F06AF94FF0000310
:10021000184607F11807BD4680BD00BF6C5400109A
:1002200080B586B000AF78600B467B807B68002B82
:100230000DD14FF00003FB732E482F492F4A4FF08A
:10024000C90301F089F9FB7BDBB2002BFBD04FF037
:1002500000037B617B685B8A03F01003002B1AD1DB
:100260007B681B6A002B0FD07B681B6A78689847F5
:1002700078617B69002B07D07B68214819467A6931
:1002800001F06AF97B692FE07B685B8A43F0100319
:100290009AB27B685A827B685B8A03F00803002B62
:1002A00008D07B689B8A03F00803002B02D06FF014
:1002B000060319E07B685B6A3B613B69002B05D054
:1002C0007A883B6978681146984778617B69002B8A
:1002D00003D07B6913F1060F05D17B8843F0080337
:1002E0009AB27B689A827B69184607F11807BD4667
:1002F00080BD00BF88470010A847001010480010BC
:10030000B847001080B586B000AF78607B68002BDE
:100310000DD14FF00003FB7312481349134A40F20A
:10032000031301F019F9FB7BDBB2002BFBD07B68D8
:100330009B6A3B613B69002B03D03B697868984717
:1003400078617B69002B03D07B6913F1060F03D121
:100350007B684FF000029A827B69184607F1180704
:10036000BD4680BD88470010A84700100048001017
:1003700090B587B000AFF860B9607A603B60FB6809
:10038000002B0DD14FF00003FB7412481249134AA1
:1003900040F24F1301F0E0F8FB7CDBB2002BFBD006
:1003A000FB681B6B7B617B69002B07D07C69F8685D
:1003B000B9687A683B68A047034605E06FF005001E
:1003C00000F0DCFA4FF00003184607F11C07BD46A9
:1003D00090BD00BF88470010A8470010F0470010EC
:1003E00080B483B000AF78607B681B687A6852681D
:1003F0005A607B685B687A6812681A607B687A6802
:100400005A607B685A687B681A6007F10C07BD4622
:1004100080BC704780B483B000AF78607B681A6896
:100420007B689A4214BF00230123184607F10C078A
:10043000BD4680BC704700BF80B584B000AF2F4878
:10044000FFF7E8FF0346002B53D102F0CDFDF86023
:1004500000F088FA0346002B11D02948294901F001
:100460007BF84FF00003FB7027482849254A4FF0DE
:10047000480301F071F8FB78DBB2002BFBD0F86881
:1004800002F0B6FD02F0B0FDB8601C48FFF7C2FFF5
:100490000346002B1DD1194B1B68A3F110037B6091
:1004A0007B6803F110031846FFF79AFF7B681B6F08
:1004B000002B03D07B681B6F786898477B681846D1
:1004C00001F086FD0346012B07D1B86802F090FDCC
:1004D0000FE0B86802F08CFD0BE0B86802F088FD10
:1004E0007B685B6A184601F03BFB7B68184601F0AD
:1004F00021FD07F11007BD4680BD00BF5C700010F4
:100500002048001070480010444800106448001053
:1005100080B582B000AF7860044B1B68002B02D01E
:10052000024B1B689847FFF787FFF5E72856001036
:1005300080B584B004AF0B4B00934FF480730193EC
:100540004FF01F0302934FF020030393064807491F
:10055000074A4FF0000302F00DF9034802F062F978
:10056000BD4680BD28550010B054001068480010EA
:100570001105001080B483B000AF78607B687A68A2
:100580005A607B685A687B681A6007F10C07BD46A1
:1005900080BC704780B483B000AF786039607B68FE
:1005A0005B683A681A607B685A683B685A607B6887
:1005B0003A685A603B687A681A6007F10C07BD46D2
:1005C00080BC704780B483B000AF78607B681A68E5
:1005D0007B689A4214BF00230123184607F10C07D9
:1005E000BD4680BC704700BF80B582B000AF786068
:1005F0007B6803F110031846FFF7BCFF4FF00003C0
:10060000184607F10807BD4680BD00BF80B586B01B
:1006100000AFF860B9601346FB71B86802F028FAC1
:10062000FB79002B02D0012B08D036E0BB6803F128
:100630001003F8681946FFF7ADFF2EE0FB681B6852
:100640007B6119E07B69A3F110033B61BB6893F800
:1006500031203B6993F831309A420AD23B6903F169
:100660001002BB6803F1100310461946FFF792FF12
:1006700006E07B691B687B617A69FB689A42E1D17D
:100680007A69FB689A4207D1BB6803F11003F868E6
:100690001946FFF77FFF00E000BF4FF00003184648
:1006A00007F11807BD4680BD80B584B000AF786003
:1006B0007B681B68A3F11003FB60F86802F010FA76
:1006C0004FF00003184607F11007BD4680BD00BF7C
:1006D00080B586B000AFF860B9607A60FB70FB68E7
:1006E000002B0DD14FF00003FB7512481249134A3D
:1006F0004FF0C40300F030FFFB7DDBB2002BFBD0DA
:10070000FB6818464FF00101BA6801F035FBFB6841
:100710001846FFF769FF7B689AB2FB681A83FB688B
:10072000FA78DA714FF00003184607F11807BD4652
:1007300080BD00BF88480010A84800105449001030
:1007400090B587B000AF786039607B68002B0DD121
:100750004FF00003FB7346484649474A40F23913BD
:1007600000F0FAFEFB7BDBB2002BFBD0434B1B6897
:10077000002B04D0414B1B687A681046984702F062
:1007800033FC04467B681B8B002B0AD07B681B8BD9
:1007900003F1FF339AB27B681A83204602F028FCEB
:1007A00055E03B68002B05D1204602F021FC6FF09C
:1007B000010357E002F018FC786100F0D3F803461B
:1007C000002B11D02E482C4900F0C6FE4FF000033C
:1007D000BB7327482B49284A4FF4AC7300F0BCFE8A
:1007E000BB7BDBB2002BFBD0786902F001FC02F08E
:1007F0000FF838613B694FF00002DA627B6803F161
:1008000010027B68DB79104639691A46FFF7FEFE55
:100810003B68002B0FDD3B6903F148023B46104665
:100820004FF000011A4602F029FB3B6903F148032F
:10083000184602F091FA204602F0DAFB01F01CFDA6
:100840003B69DB6A002B02D03B69DB6A0AE00E4B96
:100850001B68002B04D00C4B1B687A681046984725
:100860004FF00003184607F11C07BD4690BD00BFBE
:1008700088480010A8480010484900104C6F00102C
:10088000B8480010DC480010486F0010B0B582B0C6
:1008900000AF78601A4B1B68002B04D0184B1B6804
:1008A0007A68104698474FF0000402F09DFB054619
:1008B0007B6803F110031846FFF784FE0346002B04
:1008C00008D17B6803F110031846FFF7EDFE4FF0E7
:1008D000010406E07B681B8B03F101039AB27B687D
:1008E0001A83284602F084FB012C01D101F0C4FCDC
:1008F0004FF00003184607F10807BD46B0BD00BF22
:10090000446F001080B582B000AF02F06DFB7860DC
:10091000074B1B78DBB203F10103DAB2044B1A7008
:10092000786802F065FB07F10807BD4680BD00BF8F
:10093000416F001080B582B000AF02F055FB7860C7
:10094000074B1B78DBB203F1FF33DAB2044B1A70AA
:10095000786802F04DFB07F10807BD4680BD00BF77
:10096000416F001080B400AF034B1B78DBB2184618
:10097000BD4680BC704700BF416F001080B584B099
:1009800000AF7860FFF7EEFF0346002B03D00A4B61
:100990007A681A600CE001F03BFFF860FB68002BFE
:1009A00003D1054B7A681A6002E0FB687A68DA6264
:1009B00007F11007BD4680BD2C56001080B489B0E9
:1009C00000AFF860B9607A60FB68FB61BB6803F058
:1009D000FF037B617B68032B53D9FB6803F00303A0
:1009E000002B50D1FB68BB617B694FEA03227B6916
:1009F00042EA03033B613B694FEA03433A6942EA37
:100A000003033B611FE0BB693A691A60BB6903F1EC
:100A10000403BB61BB693A691A60BB6903F1040353
:100A2000BB61BB693A691A60BB6903F10403BB612E
:100A3000BB693A691A60BB6903F10403BB617B6857
:100A4000A3F110037B607B680F2BDCD80AE0BB6945
:100A50003A691A60BB6903F10403BB617B68A3F1C7
:100A600004037B607B68032BF1D8BB69FB610BE05F
:100A70007B69DAB2FB691A70FB6903F10103FB6160
:100A800002E000BF00E000BF7B68002B0CBF00232A
:100A90000123DBB27A6802F1FF327A60002BE7D1E2
:100AA000FB68184607F12407BD4680BC704700BFAD
:100AB00080B487B000AFF860B9607A607B68002BC3
:100AC00030D0FB687B61BB683B613B691A787B690E
:100AD0001A707B691B78002B14BF00230123DBB243
:100AE0007A6902F101027A613A6902F101023A611E
:100AF000002B10D007E07B694FF000021A707B6971
:100B000003F101037B617B6803F1FF337B607B684A
:100B1000002BF0D106E07B6803F1FF337B607B683C
:100B2000002BD2D1FB68184607F11C07BD4680BCDC
:100B3000704700BF90B484B000AFF860B9607A60CD
:100B40004FF0000423E0FB681A78BB681B78D31AC7
:100B5000DBB2DCB263B2002B0CBF00230123DBB29B
:100B6000BA6802F10102BA60002B13D1FB681B784E
:100B7000002B14BF00230123DBB2FA6802F101024B
:100B8000FA60002B06D17B6803F1FF337B607B6842
:100B9000002BD8D163B2184607F11007BD4690BCB0
:100BA000704700BF80B485B000AF78607B68FB60A1
:100BB00003E0FB6803F10103FB60FB681B78002B7B
:100BC000F7D1FA687B68D31A184607F11407BD46B7
:100BD00080BC704780B582B002AF0B4800F0BCFC0F
:100BE0000A4800F0B9FC0A4B00930A484FF0010193
:100BF0004FF001024FF0000300F0AEFC064800F099
:100C0000ABFCBD4680BD00BF604900106C490010C0
:100C1000B049001090490010BC49001080B485B064
:100C200000AF786039603B680A2B1BD17B681B687A
:100C30001946164BA3FB01234FEAD30213464FEA92
:100C400083039B184FEA4303CA1AFA607B681B6848
:100C50001A460E4BA3FB02134FEAD3031A467B68D6
:100C60001A600BE07B681B6803F00F03FB607B6876
:100C70001B684FEA13131A467B681A60FB68184614
:100C800007F11407BD4680BC704700BFCDCCCCCC6B
:100C900090B482B000AF78604FF0000410E02346BB
:100CA0004FEA83031B194FEA430319467B681B680D
:100CB0001A788A18A2F1300403F101027B681A60E5
:100CC0007B681B681B78A3F13003092BE7D9234607
:100CD000184607F10807BD4690BC7047B0B58CB008
:100CE00000AFF860B9607A603B603C6CBB6C03F0AD
:100CF0004003002B01D0884B00E0884BBB62BB6CEB
:100D000003F01003002B03D0BB6C23F00103BB6482
:100D1000BB6C03F00103DBB2002B02D04FF03003B9
:100D200001E04FF0200387F827304FF0000387F8E9
:100D30002F30BB6C03F00203002B1ED07B68002B0E
:100D400008DA4FF02D0387F82F307B68C3F10003DA
:100D50007B6012E0BB6C03F00403002B04D04FF067
:100D60002B0387F82F3008E0BB6C03F00803002B3F
:100D700003D04FF0200387F82F304FF000057B6839
:100D8000002B1BD107F130014B194FF0300203F853
:100D90001C2C05F1010515E007F10403184639681C
:100DA000FFF73CFF0346BA6AD3181A7807F13001FF
:100DB0004B1903F81C2C05F1010500E000BF7B680E
:100DC000002BE9D17B6C9D4200DD7D647B6CE41AD5
:100DD000BB6C03F01103002B21D197F82F30002BAF
:100DE00011D0002C11DD04F1FF340FE0FA68BB686C
:100DF0009A4203D8FB684FF020021A70FB6803F197
:100E00000103FB6002E000BF00E000BF002CD4BF84
:100E100000230123DBB204F1FF34002BE6D197F865
:100E20002F30002B0DD0FA68BB689A4205D8FB68BA
:100E300097F82F201A7004F1FF34FB6803F10103C7
:100E4000FB60BB6C03F01003002B23D10BE0FA68AE
:100E5000BB689A4203D8FB6897F827201A70FB6892
:100E600003F10103FB60002CD4BF00230123DBB29C
:100E700004F1FF34002BEAD10DE0FA68BB689A4216
:100E800003D8FB684FF030021A70FB6803F10103CE
:100E9000FB6000E000BF7B6CAB42D4BF00230123AA
:100EA000DBB27A6C02F1FF327A64002BE5D10EE0FE
:100EB000FA68BB689A4206D807F13002531913F852
:100EC0001C2CFB681A70FB6803F10103FB60002D0A
:100ED000D4BF00230123DBB205F1FF35002BE7D19E
:100EE0000BE0FA68BB689A4203D8FB684FF0200217
:100EF0001A70FB6803F10103FB60002CD4BF0023D0
:100F00000123DBB204F1FF34002BEAD1FB68184661
:100F100007F13007BD46B0BDF0490010044A00108B
:100F200080B592B004AFF860B9607A603B60FB684E
:100F3000BB62BB6803F1FF33FA68D3187B627A6A3D
:100F4000FB689A4280F0B8824FF0FF337B627A6A86
:100F5000FB68D31ABB60B0E27B681B78252B0CD0F2
:100F6000BA6A7B6A9A4203D87B681A78BB6A1A709D
:100F7000BB6A03F10103BB6297E24FF00003BB774A
:100F80007B6803F101037B607B681B782D2B04D108
:100F9000BB7F43F01003BB77F2E77B681B782B2BFA
:100FA00004D1BB7F43F00403BB77E9E77B681B7880
:100FB000202B04D1BB7F43F00803BB77E0E77B68BD
:100FC0001B78232B04D1BB7F43F02003BB77D7E7EB
:100FD0007B681B78302B04D1BB7F43F00103BB77C8
:100FE000CEE74FF0FF33BB617B681B78A3F1300382
:100FF000092B06D807F104031846FFF749FEB8612C
:1010000018E07B681B782A2B14D17B6803F101035D
:101010007B603B6803F104023A601B68BB61BB69FB
:10102000002B07DABB69C3F10003BB61BB7F43F050
:101030001003BB774FF0FF337B617B681B782E2B4F
:1010400024D17B6803F101037B607B681B78A3F1EB
:101050003003092B06D807F104031846FFF718FEE2
:1010600078610DE07B681B782A2B09D17B6803F13E
:1010700001037B603B6803F104023A601B687B61FB
:101080007B69002B02DA4FF000037B614FF0000315
:101090007B777B681B78682B03D07B681B786C2B75
:1010A00006D17B681B787B777B6803F101037B604B
:1010B0004FF00A03FB777B681B78A3F12503532BC2
:1010C00000F2978101A252F823F000BFB71300107D
:1010D000F3130010F3130010F3130010F3130010B8
:1010E000F3130010F3130010F3130010F3130010A8
:1010F000F3130010F3130010F3130010F313001098
:10110000F3130010F3130010F3130010F313001087
:10111000F3130010F3130010F3130010F313001077
:10112000F3130010F3130010F3130010F313001067
:10113000F3130010F3130010F3130010F313001057
:10114000F3130010F3130010F3130010F313001047
:10115000F3130010F3130010F3130010F313001037
:10116000F3130010F3130010F3130010F313001027
:10117000F3130010F3130010F3130010F313001017
:10118000F3130010F3130010F3130010F313001007
:10119000F3130010F3130010D9130010F313001011
:1011A000F3130010F3130010F3130010F3130010E7
:1011B000F3130010F3130010F3130010F3130010D7
:1011C000F31300101D120010E9130010F3130010A8
:1011D000F3130010F3130010F3130010E9130010C1
:1011E000F3130010F3130010F3130010F3130010A7
:1011F000F3130010D113001079130010F313001033
:10120000F31300109B120010F3130010371400109A
:10121000F3130010F3130010E1130010BB7F03F071
:101220001003002B13D10BE0BA6A7B6A9A4203D8F1
:10123000BB6A4FF020021A70BB6A03F10103BB6264
:10124000BB6903F1FF33BB61BB69002BECDC3B687E
:1012500003F104023A601B68FB74BA6A7B6A9A4223
:1012600002D8BB6AFA7C1A70BB6A03F10103BB6245
:101270000BE0BA6A7B6A9A4203D8BB6A4FF020023D
:101280001A70BB6A03F10103BB62BB6903F1FF3350
:10129000BB61BB69002BECDC07E13B6803F1040296
:1012A0003A601B683B623B6A002B01D1814B3B6279
:1012B000386AFFF777FC0346FB627B69002B05DD8C
:1012C000FA6A7B699A4201DD7B69FB62BB7F03F0AE
:1012D0001003002B19D10BE0BA6A7B6A9A4203D83B
:1012E000BB6A4FF020021A70BB6A03F10103BB62B4
:1012F000BA69FB6A9A42D4BF00230123DBB2BA6900
:1013000002F1FF32BA61002BE6D14FF000033B63DC
:1013100013E0BA6A7B6A9A4203D83B6A1A78BB6ABE
:101320001A70BB6A03F10103BB623B6A03F101035C
:101330003B623B6B03F101033B633A6BFB6A9A42EE
:10134000E7DB0BE0BA6A7B6A9A4203D8BB6A4FF0CC
:1013500020021A70BB6A03F10103BB62BA69FB6A1F
:101360009A42D4BF00230123DBB2BA6902F1FF32F3
:10137000BA61002BE6D198E0BB69B3F1FF3F06D11B
:101380004FF00803BB61BB7F43F00103BB773B68B1
:1013900003F104023A601B68BA7FB9690091796968
:1013A00001910292B86A796A1A464FF01003FFF76A
:1013B00095FCB86279E0BA6A7B6A9A4203D8BB6A44
:1013C0004FF025021A70BB6A03F10103BB626CE0A7
:1013D0004FF00803FB772FE0BB7F43F04003BB7760
:1013E0004FF01003FB7727E0BB7F43F00203BB778E
:1013F00022E0BA6A7B6A9A4203D8BB6A4FF02502A0
:101400001A70BB6A03F10103BB627B681B78002B77
:101410000CD0BA6A7B6A9A4203D87B681A78BB6A96
:101420001A70BB6A03F10103BB623EE07B6803F103
:10143000FF337B6039E000BF7B7F6C2B0AD13B68B8
:1014400003F104023A601B687B63BB7F03F0020375
:10145000002B1DE07B7F682B10D13B6803F1040259
:101460003A601B689BB27B63BB7F03F00203002BD7
:101470000ED07B6B9BB21BB27B6309E03B6803F130
:1014800004023A601B687B63BB7F03F00203002BFE
:101490007A6BFB7FB97FB8690090786901900291FF
:1014A000B86A796AFFF71AFCB8627B6803F1010336
:1014B0007B6002E0E849001000BF7B681B78002BCE
:1014C0007FF44AADBA6A7B6A9A4204D8BB6A4FF08D
:1014D00000021A7003E07B6A4FF000021A70BA6AC9
:1014E000FB68D31A184607F13807BD4680BD00BF18
:1014F00080B584B000AF7860114B1B68FB607868E2
:10150000FEF74CFEB860BB68002B12D00C4B1B687A
:10151000002B04D00A4B1B681846FEF7F3FE084B5D
:10152000BA681A60064B1B6818464FF00301FEF7B5
:1015300077FEFB68184607F11007BD4680BD00BF67
:101540003056001080B483B000AF786007F10C070C
:10155000BD4680BC704700BF0FB480B582B000AFFD
:1015600007F114033B6010484FF080013A693B6873
:10157000FFF7D6FC03467B600C4B1B68002B03D1A6
:101580000948FFF7DFFF08E0084B1B6818464FF0DB
:101590000001054A7B68FEF7EBFE07F10807BD4630
:1015A000BDE8804004B0704734560010305600103B
:1015B00080B586B000AF78607A68464B1B689A4267
:1015C0000DD24FF00003FB7343484449444A4FF0A7
:1015D0008103FFF7C1FFFB7BDBB2002BFBD07A68F6
:1015E000404B1B689A420DD34FF00003BB733A483F
:1015F0003D493B4A4FF08203FFF7AEFFBB7BDBB2B6
:10160000002BFBD07B685B88002B0DD04FF00003D4
:101610007B7331483549324A4FF08303FFF79CFF13
:101620007B7BDBB2002BFBD02A4B1B681A467B6806
:101630005B68D3187B617A687B699A421FD07B69AB
:101640005B88002B1BD17A69264B1B689A4216D007
:10165000274B1A687B699A4202D1254B7A681A6037
:101660007B695A687B685A601A4B1B681A467B690B
:101670005B68D3187968174A12688A1A9A60154B02
:101680001B681A467B689B68D3183B613A697B6884
:101690009A421AD03B695B88002B16D1144B1A680A
:1016A0007B689A4202D1124B3A691A607B685A6889
:1016B0003B695A60074B1B681A467B685B68D31806
:1016C0003969044A12688A1A9A6007F11807BD46F8
:1016D00080BD00BFBC560010184A0010384A0010E8
:1016E000C84C0010C0560010584A0010844A001020
:1016F000C456001080B588B000AF786039607B6850
:1017000003F1030323F00303FB613B6823F00303AE
:10171000BB6101F069FC7861FFF724F90346002BF7
:1017200011D03B483B49FFF717FF4FF00003FB7315
:1017300039483A49374A4FF0AE03FFF70DFFFB7BBC
:10174000DBB2002BFBD0786901F052FCBB69182B8F
:1017500052D9BB69A3F11802FB699A424CD3BA690A
:10176000FB69D31AA3F118022D4B1A60FA692D4BAD
:101770001A602C4B1B683B613B694FF4F5521A8091
:10178000274B1B6803F10C023B695A603B694FF021
:1017900000029A603B694FF000025A80214B1B689F
:1017A0001A463B695B68D2181F4B1A601E4B1B68B8
:1017B0004FF4F5521A801C4B1B684FF001025A80FF
:1017C000194B1B68164A126802F10C025A60164B3C
:1017D0001B68134A126802F10C029A6013481449FC
:1017E0004FF001024FF00003FEF772FF0D4B1B6834
:1017F0001A46104B1A6007E07A683B680E4811469B
:101800001A46FFF7A9FE00BF07F12007BD4680BDBD
:10181000944A0010B44C0010184A0010B84A001046
:10182000E4560010BC560010C0560010C8560010F8
:10183000BC4A0010C4560010C44A001080B58AB0DB
:1018400000AF786001F0D0FB3862FFF78BF80346F9
:10185000002B11D060486149FFF77EFE4FF0000376
:10186000FB745F485F495D4A4FF0EA03FFF774FE7F
:10187000FB7CDBB2002BFBD0386A01F0B9FB7B6844
:10188000002B02D14FF000034DE17B6803F103030D
:1018900023F003037B60544B1B687A689A4202D999
:1018A0004FF000033FE17B680B2B02D84FF00C0395
:1018B0007B604E484FF0FF31FEF742FF4C4B1B68F8
:1018C0001A464C4B1B68D31A7B621FE1494B1B68BD
:1018D0001A467B6AD318FB61FB695B88002B40F0DA
:1018E0000E81FB695A687B6AD31AA3F10C027B68EC
:1018F0009A42C0F00481FB695A687B6AD31AA3F14B
:101900000C027B6803F118039A4240D37A6A7B6821
:10191000D31803F10C03BB61364B1B681A46BB6935
:10192000D3187B617B694FF000025A80FB695A68CB
:101930007B695A607B697A6A9A60FB69BA695A6006
:10194000FB694FF001025A807B695A68264B1B687D
:1019500003F10C039A4207D0264B1B681A467B6999
:101960005B68D318BA699A60234B1A687B68D318EE
:1019700003F10C02204B1A60204B1A681E4B1B68A7
:101980009A421FD21C4B1A681C4B1A601AE0FB6962
:101990004FF001025A80FB695A68164B1B681946C2
:1019A000FB69CB1AD218144B1B68D218124B1A6061
:1019B000124B1A68104B1B689A4203D20E4B1A68DE
:1019C0000E4B1A60FB694FF4F5521A80084B1B68E6
:1019D000FA699A4241D11CE0944A0010A84C0010C8
:1019E000184A0010B84A0010E4560010C8560010FB
:1019F000C4560010BC560010E8560010EC560010FB
:101A00004B4B1B681A464B4B1B685B68D218494B03
:101A10001A60484B1B685B88002B05D0454B1A6841
:101A2000454B1B689A42EBD1424B1A68424B1B68EC
:101A30009A4212D03F4B1B685B88002B0DD04FF0B1
:101A40000003BB743D483E493E4A4FF4A573FFF77F
:101A500083FDBB7CDBB2002BFBD03B48FEF716FFBF
:101A6000FA697B68D31803F10C02334B1B689A4266
:101A70000DD94FF000037B7430483449314A4FF49C
:101A8000A773FFF769FD7B7CDBB2002BFBD0FB6902
:101A900003F10C0303F00303002B0DD04FF0000300
:101AA0003B7426482A49274A40F24F13FFF754FD5A
:101AB0003B7CDBB2002BFBD0FB6903F00303002B64
:101AC0000DD04FF00003FB731C4822491D4A4FF410
:101AD000A873FFF741FDFB7BDBB2002BFBD01E4B55
:101AE0001B68002B07D01C4B1B68FA6902F10C0223
:101AF000104679689847FB6903F10C0313E00C4B1F
:101B00001B681A467B6AD3185B687B62134B1A68A2
:101B10007B68D21A7B6A9A423FF6D8AE0A48FEF733
:101B2000B5FE4FF00003184607F12807BD4680BDFB
:101B3000BC560010C4560010C0560010184A0010C1
:101B4000004B0010A84C0010C8560010284B001085
:101B5000704B0010BC4B0010B4560010E45600103F
:101B600080B586B000AF786001F03EFA7861FEF78C
:101B7000F9FE0346002B11D058485949FFF7ECFCF9
:101B80004FF00003FB7357485749554A4FF4F3731E
:101B9000FFF7E2FCFB7BDBB2002BFBD0786901F0A6
:101BA00027FA7B68002B00F08F807B6803F003032B
:101BB000002B0DD04FF00003BB734A484B49484AF5
:101BC0004FF4F573FFF7C8FCBB7BDBB2002BFBD0F7
:101BD0007A68474B1B689A4204D37A68454B1B6866
:101BE0009A420DD34FF000037B733E4842493C4A72
:101BF0004FF4F673FFF7B0FC7B7BDBB2002BFBD01E
:101C00003E4B1B68002B03D03C4B1B687868984701
:101C10007A68374B1B689A4258D37A68354B1B68F1
:101C20009A4255D27B68A3F10C033B6134484FF0D4
:101C3000FF31FEF785FD3B695B88002B0DD14FF02E
:101C400000033B7327482F49254A40F20323FFF73F
:101C500083FC3B7BDBB2002BFBD03B691B88B3F5DD
:101C6000F55F0DD04FF00003FB721E4826491C4A59
:101C70004FF40173FFF770FCFB7ADBB2002BFBD053
:101C80003B694FF000025A803B694FF000021A8016
:101C90001E4B1B683A699A4202D21C4B3A691A6081
:101CA0001B4B1A683B695968114B1B6818463B6906
:101CB000C31ACB18D21A164B1A603869FFF778FC92
:101CC0000F48FEF7E3FD04E000BF02E000BF00E0C4
:101CD00000BF07F11807BD4680BD00BF944A001041
:101CE000A04C0010184A0010B84A0010EC4B00102D
:101CF000BC560010C05600101C4C0010B856001006
:101D0000C8560010784C0010844C0010C4560010C7
:101D1000E856001080B483B000AF786039607B680B
:101D20001B683A685A607B681A683B681A607B686F
:101D30003A681A603B687A685A6007F10C07BD463A
:101D400080BC704780B483B000AF78607B681B684C
:101D50007A6852685A607B685B687A6812681A60B1
:101D60007B687A685A607B685A687B681A6007F1FA
:101D70000C07BD4680BC704790B587B000AFF860D7
:101D80000B467A60FB72FB7A4FEA0312154BD318AD
:101D90007B61FB7A63F07F03DAB2FB689A71FB68C0
:101DA000184679684FF00602FEF782FE0E4B1B685C
:101DB000002B03D00C4B1B68F868984701F014F90E
:101DC00004467B6903F10402FB6803F10803104633
:101DD0001946FFF79FFF204601F00AF907F11C079B
:101DE000BD4690BDEC530010F056001090B585B084
:101DF00000AF78607B68002B0DD14FF00003FB73C0
:101E000011481249124A4FF0ED03FFF7A5FBFB7B87
:101E1000DBB2002BFBD00F4B1B68002B03D00D4B0C
:101E20001B687868984701F0DFF804467B6803F187
:101E300008031846FFF786FF204601F0D9F807F19E
:101E40001407BD4690BD00BFD44C0010F44C0010E8
:101E5000A04D0010F456001090B587B000AF0346B7
:101E60003960FB7101F0C0F87861FEF77BFD034635
:101E7000002B11D029482A49FFF76EFB4FF00003D1
:101E8000FB7228482849264A4FF48573FFF764FB04
:101E9000FB7ADBB2002BFBD0786901F0A9F8FB7963
:101EA0004FEA0312214BD3183B613B69DB681846AC
:101EB000FFF7C4FC0346FB60FB68002B02D14FF028
:101EC000000326E0FB68FA799A71FB684FF0000284
:101ED000DA71FB68184639684FF00602FEF7E8FD34
:101EE000134B1B68002B03D0114B1B68F8689847F5
:101EF00001F07AF804463B6903F10402FB6803F140
:101F0000080310461946FFF705FF204601F070F858
:101F1000FB68184607F11C07BD4690BD084D001030
:101F20008C4D0010D44C00102C4D0010EC530010C0
:101F3000F056001090B585B000AF78607B68002B3C
:101F40000DD14FF00003FB731C481D491D4A4FF48F
:101F5000A473FFF701FBFB7BDBB2002BFBD07B689C
:101F60009B79DBB25BB2002B0DDA4FF00003BB7341
:101F700012481549134A40F24913FFF7EDFABB7BAB
:101F8000DBB2002BFBD0114B1B68002B03D00F4B97
:101F90001B687868984701F027F804467B6803F1CE
:101FA00008031846FFF7CEFE204601F021F87868B6
:101FB000FFF7D6FD07F11407BD4690BDD44C0010C5
:101FC000F44C0010784D0010304D0010F456001005
:101FD00080B584B000AF78607B68002B0DD14FF0E6
:101FE0000003FB730D480E490E4A40F26D13FFF7D4
:101FF000B3FAFB7BDBB2002BFBD07B689B79DBB2B7
:102000005BB2002B02DA4FF0010301E04FF0000356
:10201000184607F11007BD4680BD00BFD44C001024
:10202000F44C00105C4D001080B483B000AF7860B9
:102030007B687A685A607B685A687B681A6007F127
:102040000C07BD4680BC704780B483B000AF786099
:1020500039607B685B683A681A607B685A683B68DD
:102060005A607B683A685A603B687A681A6007F180
:102070000C07BD4680BC704780B483B000AF786069
:102080007B681B687A6852685A607B685B687A680C
:1020900012681A607B687A685A607B685A687B6845
:1020A0001A6007F10C07BD4680BC704780B483B04E
:1020B00000AF78607B681A687B689A4214BF00237F
:1020C0000123184607F10C07BD4680BC704700BFCE
:1020D00080B584B000AF78607B68002B0DD14FF0E5
:1020E0000003FB721D481E491E4A4FF06103FFF7B3
:1020F00033FAFB7ADBB2002BFBD07B689B691A4674
:102100007B685B6A9A420AD97B689B691A467B683E
:102110005B6A19467B681B8DCB189A420CD97B6889
:1021200011481946FFF718FA00F05EFF0346FB60FE
:10213000FB68002BFCD10DE07B689B691A467B682D
:102140005B6A03F120039A4204D87B68074819466A
:10215000FFF702FA07F11007BD4680BDB44E00102C
:10216000D44E0010744F0010E84E0010044F0010C1
:1021700098B500AF114B4FF000021A804FF00004E9
:1021800009E023464FEAC3020D4BD3181846FFF768
:102190004BFF04F101041F2CF3DD0A4B4FF01F022B
:1021A0001A70094B4FF000021A60084B4FF0000202
:1021B0001A600748FFF738FF98BD00BFF8560010B7
:1021C000506F0010507000105470001058700010C4
:1021D0005C70001098B500AF234B1B6803F0FF0341
:1021E000002B07D0204B1B6803F0FF031F4AD35C72
:1021F0001C462CE01C4B1B6803F47F43002B0BD0C8
:10220000194B1B684FEA132303F0FF03174AD35CF3
:1022100003F108031C461AE0134B1B6803F47F0309
:10222000002B0BD0104B1B684FEA134303F0FF0346
:102230000E4AD35C03F110031C4608E00A4B1B68EE
:102240004FEA1363094AD35C03F118031C46084B99
:1022500053F83430A3F11004064B1C6004F118034A
:10226000184600F0F5FE98BD58700010B44D0010EF
:10227000506F00105470001090B585B000AF00F0A2
:10228000B3FEF860404B1B88002B76D13F4B1B6898
:1022900003F0FF03002B07D03C4B1B6803F0FF0348
:1022A0003B4AD35C1C462CE0384B1B6803F47F434D
:1022B000002B0BD0354B1B684FEA132303F0FF03B1
:1022C000334AD35C03F108031C461AE02F4B1B680A
:1022D00003F47F03002B0BD02C4B1B684FEA1343F6
:1022E00003F0FF032A4AD35C03F110031C4608E005
:1022F000264B1B684FEA1363254AD35C03F118038E
:102300001C46244B53F83430A3F11003BB60224B1E
:102310001B68BA689A4230D0E2B2204B1A701E4B4A
:102320001B687B601C4BBA681A601D4B1B68002B36
:1023300004D01B4B1B687868B9689847B868FFF7EA
:10234000C7FE184B1B78DBB2002B0BD17B6803F167
:1023500018031A46BB6803F118031046194600F02B
:102360004AFE0AE07B6803F118031A46BB6803F1D2
:1023700018031046194600F03EFEF86800F038FEDB
:1023800007F11407BD4690BDF856001058700010B4
:10239000B44D0010506F00105470001050700010B9
:1023A000FC560010416F001090B585B000AF78600A
:1023B0007B68002B0DD14FF00003FB7317481849C1
:1023C000184A4FF49A73FFF7C7F8FB7BDBB2002B78
:1023D000FBD000F009FE04467B684FF0010283F851
:1023E00030207B6893F831304FEAC3020E4BD2188D
:1023F0007B6803F1100310461946FFF725FE7B6842
:102400005A6B0A4B1B681A43084B1A60204600F0AF
:10241000EFFD07F11407BD4690BD00BFB44E00109C
:10242000D44E0010584F0010506F0010587000101C
:1024300090B585B000AF78607B68002B0DD14FF070
:102440000003FB7318481949194A4FF4AE73FFF79C
:1024500083F8FB7BDBB2002BFBD000F0C5FD04460C
:102460007B6803F110031846FFF706FE7B6893F8BC
:1024700031304FEAC3020F4BD3181846FFF716FE50
:102480000346002B08D07B685B6B6FEA03020A4BA4
:102490001B681A40084B1A60204600F0A9FD07F19E
:1024A0001407BD4690BD00BFB44E0010D44E0010BE
:1024B0003C4F0010506F00105870001098B500AFDE
:1024C00000F092FD0446054B1B8803F101039AB20C
:1024D000024B1A80204600F08BFD98BDF856001084
:1024E00098B500AF00F080FD04460D4B1B8803F14A
:1024F000FF339AB20A4B1A80094B1B881BB2002B80
:1025000009DC074B4FF000021A80204600F070FDF6
:10251000FFF7B2FE02E0204600F06AFD98BD00BF62
:10252000F856001080B483B000AF78607B687A689A
:102530005A607B685A687B681A6007F10C07BD46D1
:1025400080BC704780B483B000AF786039607B682E
:102550001B683A685A607B681A683B681A607B6837
:102560003A681A603B687A685A6007F10C07BD4602
:1025700080BC704780B483B000AF786039607B68FE
:102580005B683A681A607B685A683B685A607B6887
:102590003A685A603B687A681A6007F10C07BD46D2
:1025A00080BC704780B483B000AF78607B681B68E4
:1025B0007A6852685A607B685B687A6812681A6049
:1025C0007B687A685A607B685A687B681A6007F192
:1025D0000C07BD4680BC704790B583B000AF1D4B63
:1025E0001B687B6000F000FD04467868FFF720FF61
:1025F0007B684FF0040283F830207B6803F15803B6
:102600001846FFF7CFFF7B6803F148031846FFF732
:10261000EDFB7B681846FFF7DBFC0346012B08D176
:102620007B681B6F002B04D17B681846FFF7DEFB2D
:1026300006E07B6803F1100307481946FFF782FFA5
:10264000204600F0D5FCFFF717FE07F10C07BD464A
:1026500090BD00BF547000105C70001080B588B051
:1026600002AFF860B9607A603B60FB6803F1100369
:102670001846FFF757FFFB687A68DA61FB683A682B
:102680001A62FB683A6A5A627B6A9AB2FB681A85D8
:10269000FB685A6AFB681B8D10464FF023011A46EF
:1026A000FEF78CF9FB68D969FB681A6AFB68586AFF
:1026B000FB681B8DA3F10403C318084611461A4694
:1026C000274B00F0F7FC0246FB689A6197F8283028
:1026D0001F2B0DD94FF00003FB7522482249234AD6
:1026E0004FF06003FEF738FFFB7DDBB2002BFBD021
:1026F000FB6897F8282083F83220FB6897F8282099
:1027000083F83120FB68FA6A1A64FB68FA6A5A6433
:10271000FB684FF00002DA62FB684FF0000283F8BA
:102720003020FB684FF000021A67FB684FF0000290
:102730005A67FB6803F14802FB684FF00001009103
:102740004FF00001019110461946094AFB6800F05C
:10275000D1FA4FF00003184607F11807BD4680BDB7
:10276000D9250010904F0010B04F0010B450001049
:10277000712B001080B58AB004AFF860B9607A6040
:102780003B60FB68002B0DD14FF00003FB751C482C
:102790001C491D4A4FF09703FEF7DEFEFB7DDBB2BE
:1027A000002BFBD03B6A002B0DD14FF00003BB7513
:1027B00013481649144A4FF09803FEF7CDFEBB7D2F
:1027C000DBB2002BFBD0FB6818464FF00001BA6863
:1027D000FFF7D2FA3B6A00937B6A019397F828309F
:1027E0000293FB6A0393F868B9687A683B68FFF75D
:1027F00035FF0346184607F11807BD4680BD00BFE8
:10280000904F0010D44F0010A4500010E84F00105B
:1028100080B400AF024B1B681846BD4680BC7047B1
:102820005470001080B584B000AF78607B68002BD6
:102830000DD14FF00003FB7321482249224A4FF08B
:10284000B803FEF789FEFB7BDBB2002BFBD07B6875
:1028500093F83030002B0DD04FF00003BB731848B5
:102860001A49194A4FF0B903FEF776FEBB7BDBB27B
:10287000002BFBD07B6893F832207B6883F83120F3
:102880007B6893F831304FF0010202FA03F31A46E5
:102890007B685A637B684FF0020283F830207868C7
:1028A00000F01EF9FFF7B4FF0346002B01D0FFF73D
:1028B000E3FC4FF00003184607F11007BD4680BD4A
:1028C000904F0010D44F0010905000100050001096
:1028D00080B58AB004AFF860B9607A603B604FF0B1
:1028E0000000F968FFF7B8FA03467B617B69002BAB
:1028F00002D14FF000031DE03868FEF79FFF3861FA
:102900003B69002B06D17B691846FFF713FB4FF09C
:1029100000030FE03B6900933B68019397F8203078
:1029200002937B6A03937869F968BA687B68FFF75A
:1029300095FE7B69184607F11807BD4680BD00BFAC
:1029400090B583B000AF00F04FFB0446194B1B68F5
:102950007B607B6893F83030012B21D17B681A694A
:102960007B685B699A421BD07B6803F110031846B1
:10297000FFF718FE7B6893F831304FEAC3020E4B25
:10298000D2187B6803F1100310461946FFF7F2FDD9
:10299000204600F02DFBFFF76FFC4FF0000304E032
:1029A000204600F025FB4FF00003184607F10C0706
:1029B000BD4690BD54700010506F001090B585B0AA
:1029C00000AF786000F010FB04461E4B1B68FB60F4
:1029D000FB68002B0DD14FF00003FB721A481B4916
:1029E0001B4A4FF4C873FEF7B7FDFB7ADBB2002B2E
:1029F000FBD0F86800F03CF8FB6803F1480207F1EF
:102A0000040310464FF000011A4600F037FAFB6845
:102A100003F14803184600F09FF9204600F0E8FA59
:102A2000FFF72AFCFB68DB6A13F1020F03D1FB6896
:102A30004FF00002DA624FF00003184607F1140766
:102A4000BD4690BD54700010904F0010D44F001040
:102A50008050001080B582B000AF78607868FFF7D2
:102A6000ADFF0346184607F10807BD4680BD00BF0D
:102A700090B585B000AF78607B68002B0DD14FF02A
:102A80000003FB7313481449144A40F21123FEF764
:102A900063FDFB7BDBB2002BFBD07B6893F830300F
:102AA000012B02D04FF0FF330FE000F09DFA0446F7
:102AB0007B684FF0020283F830207868FFF7B8FC9B
:102AC000204600F095FA4FF00003184607F114076E
:102AD000BD4690BD904F0010D44F00106C500010B8
:102AE00090B585B000AF78607B68002B0DD14FF0BA
:102AF0000003FB731B481C491C4A40F23723FEF7B6
:102B00002BFDFB7BDBB2002BFBD07B6893F83030D6
:102B1000022B02D04FF0FF331FE000F065FA0446AD
:102B20007B6803F110031846FFF73CFD7B6803F157
:102B300058031846FFF736FD7B6893F84F3023F0B3
:102B40000103DAB27B6883F84F20204600F050FA88
:102B50007868FFF729FC4FF00003184607F11407C7
:102B6000BD4690BD904F0010D44F0010585000103B
:102B700080B584B000AF78607B68FB60FB68002B99
:102B80000DD14FF00003FB7218481949194A40F261
:102B90006623FEF7E1FCFB7ADBB2002BFBD0FB687F
:102BA00093F83030022B0DD04FF00003BB720F486A
:102BB0001149104A40F26723FEF7CEFCBB7ADBB224
:102BC000002BFBD0FB686FF00102DA62FB6803F1B7
:102BD00010031846FFF7E6FCF868FFF7E5FBFFF780
:102BE0004BFB07F11007BD4680BD00BF904F0010A2
:102BF000D44F0010445000102050001080B483B017
:102C000000AF78607B687A685A607B685A687B6836
:102C10001A6007F10C07BD4680BC704780B483B0D2
:102C200000AF786039607B685B683A681A607B68DF
:102C30005A683B685A607B683A685A603B687A68B1
:102C40001A6007F10C07BD4680BC704780B483B0A2
:102C500000AF78607B681B687A6852685A607B684E
:102C60005B687A6812681A607B687A685A607B6869
:102C70005A687B681A6007F10C07BD4680BC704734
:102C800080B483B000AF78607B681A687B689A4232
:102C900014BF00230123184607F10C07BD4680BC72
:102CA000704700BF80B584B000AFF860B9607A604B
:102CB0003B60FB683A7EDA71FB68DB7923F0010345
:102CC000DAB2FB68DA71FB68BA689A61FB687A6805
:102CD000DA61FB684FF000025A62FB683A681A62D8
:102CE000FB6803F110031846FFF788FF07F1100790
:102CF000BD4680BD80B588B002AFF860B9607A602B
:102D00003B60FB68002B0DD14FF00003FB750F48B3
:102D10000F49104A4FF07403FEF71EFCFB7DDBB237
:102D2000002BFBD0FB6818464FF00901BA68FFF78B
:102D300023F897F824300093F86879683A683B6A7A
:102D4000FFF7B0FF07F11807BD4680BDC450001063
:102D5000E45000104051001090B587B000AF78608B
:102D60007B68002B0DD14FF00003FB723C483D49BE
:102D70003D4A4FF0E403FEF7EFFBFB7ADBB2002B9A
:102D8000FBD07B68DB7903F00103DBB2002B02D0C0
:102D90004FF0FF335EE0354B1B68002B04D0334B04
:102DA0001B687A68104698477B681A6A304B9A42CB
:102DB0000DD94FF00003BB7229482E492A4A4FF023
:102DC000EB03FEF7C9FBBB7ADBB2002BFBD0FDF7B0
:102DD000B7F902467B681B6AD2187B685A6200F01A
:102DE00003F90446244B3B613B691B687B6116E099
:102DF0007B69A3F11003FB60FB685A6A7B685B6A1E
:102E0000D21A1B4B9A4207D87B6803F110037869EA
:102E10001946FFF703FF06E07B691B687B617A694F
:102E20003B699A42E4D17A693B699A4206D17B6850
:102E300003F1100378691946FFF7F0FE7B68DB7930
:102E400043F00103DAB27B68DA71204600F0D0F873
:102E50004FF00003184607F11C07BD4690BD00BFA8
:102E6000C4500010E450001030510010486F0010A2
:102E7000FEFFFF7FF85000108C54001080B586B024
:102E800000AFF8600B467A60FB72FB68002B0DD137
:102E90004FF00003FB751D481D491E4A4FF4AB73EC
:102EA000FEF75AFBFB7DDBB2002BFBD0FB7A032B3A
:102EB00024D801A252F823F0D32E0010C92E0010FE
:102EC000DD2E0010ED2E00107B68FA68126A1A6081
:102ED00014E07B681A68FB681A620FE0FB68DB7914
:102EE00023F00203DAB2FB68DA7107E0FB68DB79F2
:102EF00043F00203DAB2FB68DA7100BF4FF000035F
:102F0000184607F11807BD4680BD00BFC450001029
:102F1000E45000101C51001090B583B000AFFDF7D5
:102F20000FF9786000F060F8044641E0284B1B6818
:102F3000A3F110033B603B685B6A7A68D21A254BA9
:102F40009A423CD8244B1B68002B03D0224B1B68B1
:102F5000386898473B6803F110031846FFF776FE80
:102F60003B689B693A68D26910469847FDF7E8F8D4
:102F700078603B68DB7903F00203002B11D03B68DB
:102F8000DB7903F00103DBB2002B0AD03B68DB796D
:102F900023F00103DAB23B68DA713868FFF7DCFE30
:102FA00006E03B68DB7923F00103DAB23B68DA71B3
:102FB0000748FFF765FE0346002BB7D000E000BFCF
:102FC000204600F015F807F10C07BD4690BD00BF84
:102FD0008C540010FEFFFF7F0057001080B400AF3C
:102FE000BD4680BC704700BFEFF3108072B67047DB
:102FF00080F310887047284A1368012B04D04FF0E3
:1030000001031360254A1060254A116025482649AE
:1030100001607047EFF3108272B61F48016891B1EA
:103020004FF0000101601D48016829B1EFF30981EB
:1030300021E9F00F00680160194909680968B1E8E1
:10304000F00F81F3098882F310884EF0040E704768
:103050001349086011494FF0000008600E494FF015
:103060000100086011481249D0F8002041EA02012D
:1030700001600C480C49016062B6704700BFEFF375
:10308000098000B500F0A0F85DF804EB4EF0040EE6
:103090007047EFF3058070476C7000106870001087
:1030A0006470001004ED00E00000001020ED00E06E
:1030B0000000FF0080B487B000AFF860B9607A60AC
:1030C0003B607B687B617B694FF080721A607B6933
:1030D000A3F104037B61FA687B691A607B69A3F141
:1030E00004037B613A687B691A607B69A3F104037E
:1030F0007B617B694FF000021A607B69A3F10403D6
:103100007B617B694FF000021A607B69A3F10403C5
:103110007B617B694FF000021A607B69A3F10403B5
:103120007B617B694FF000021A607B69A3F10403A5
:103130007B61BA687B691A607B69A3F104037B61D8
:103140007B694FF000021A607B69A3F104037B6185
:103150007B694FF000021A607B69A3F104037B6175
:103160007B694FF000021A607B69A3F104037B6165
:103170007B694FF000021A607B69A3F104037B6155
:103180007B694FF000021A607B69A3F104037B6145
:103190007B694FF000021A607B69A3F104037B6135
:1031A0007B694FF000021A607B69A3F104037B6125
:1031B0007B694FF000021A607B69184607F11C0713
:1031C000BD4680BC704700BF80B582B000AF78605C
:1031D0007B68DB691A481946FEF7BEF97B689B6974
:1031E00018481946FEF7B8F97B685B691648194616
:1031F000FEF7B2F97B681B6914481946FEF7ACF973
:103200007B68DB6812481946FEF7A6F97B689B6865
:1032100010481946FEF7A0F97B685B680E4819460E
:10322000FEF79AF97B681B680C481946FEF794F97B
:103230000B4B1B680B481946FEF78EF9FEE700BFE3
:10324000505100106051001070510010805100105A
:1032500090510010A0510010B0510010C05100104A
:1032600054700010D051001080B400AFBD4680BC37
:10327000704700BF80B483B000AF786039607B686E
:103280005B683A681A607B685A683B685A607B687A
:103290003A685A603B687A681A6007F10C07BD46C5
:1032A00080BC704780B483B000AF78607B681A68D8
:1032B0007B689A4214BF00230123184607F10C07CC
:1032C000BD4680BC704700BF80B58AB000AFF860D3
:1032D000B9607A603B60FB68002B0DD14FF00003B2
:1032E000FB7485488549864A4FF09F03FEF734F901
:1032F000FB7CDBB2002BFBD0BB68002B0DD14FF069
:103300000003BB747C487F497D4A4FF0A003FEF761
:1033100023F9BB7CDBB2002BFBD07B68002B0DD1EB
:103320004FF000037B7474487749754A4FF0A1034E
:10333000FEF712F97B7CDBB2002BFBD04FF00003D1
:103340003B62FFF765FAF861FB681B8803F1FF3306
:103350007B83FFF749FE03467B6257E03B68002B07
:1033600003D16FF001033B62AFE0FFF73DFE7861F0
:10337000FDF7F8FA0346002B11D064486049FEF7C8
:10338000EBF84FF000033B745B4861495C4A4FF037
:10339000B203FEF7E1F83B7CDBB2002BFBD078698F
:1033A000FFF726FEFB694FF00002DA62F869FFF7CB
:1033B0005FFBFB6803F11802FB6903F11003104681
:1033C0001946FFF757FF3B68002B0FDDFB6903F140
:1033D00048023B4610464FF000011A46FFF74EFDEB
:1033E000FB6903F148031846FFF7B6FC7B6A1846F1
:1033F000FFF7FEFDFEF740FFFB69DB6A3B62FFF76C
:10340000F3FD03467B623B6A002B5DD1FB681A89A2
:10341000FB685B899A42A1D0FB68DA68FB6819896E
:103420007B8B01EA03039BB24FEAC303D3181A68EC
:10343000BB681A60FB68DA68FB6819897B8B01EA54
:1034400003039BB24FEAC303D3185A687B681A6020
:10345000FB681B8903F101039AB2FB681A81FB68C0
:103460005B68012B31D1FB685B891A46FB681B89BD
:10347000D21AFB685B889A4227DCFB684FF0000297
:103480005A60FB6803F110031846FFF70BFF034671
:10349000002B0DD1FB681B69A3F11003FB61F869D8
:1034A000FFF71EFB7B6A1846FFF7A2FDFEF7E4FE5E
:1034B000FB681B6A002B05D0FB681B6AF8684FF09D
:1034C000030198473B6A12E000BF7B6A1846FFF78A
:1034D0008FFD3B6A002B09D1FB681B6A002B05D0CE
:1034E000FB681B6AF8684FF0010198473B6A184671
:1034F00007F12807BD4680BD205200104052001041
:10350000A05200107C520010905200105452001033
:103510007852001080B584B000AF78600B46FB7025
:10352000FFF762FDF8607B68B3F840307A68F9789D
:10353000D1547B68B3F8403003F101039BB203F030
:103540003F039AB27B68A3F840207B68B3F8402021
:103550007B68B3F842309A420BD17B68B3F84230B3
:1035600003F101039BB203F03F039AB27B68A3F817
:103570004220F868FFF73CFD07F11007BD4680BD0B
:1035800080B584B000AF7860FFF72EFDF8607B68EF
:10359000B3F840301A467B68B3F84230D31A03F0D0
:1035A0003F03BB60F868FFF723FDBB68184607F1CF
:1035B0001007BD4680BD00BF80B584B000AF786005
:1035C0004FF0FF33FB607B685B8A03F48073002B52
:1035D0000DD14FF00003FB7211481249124A4FF40B
:1035E000CA73FDF7B9FFFB7ADBB2002BFBD07B6817
:1035F000DB6BDB6878689847F860FB68B3F1FF3FE6
:1036000008D07B689A6CFB68DBB210461946FFF75E
:1036100081FFECE700BF07F11007BD4680BD00BF8A
:10362000B4520010245300106C53001080B586B0C3
:1036300000AF78604FF0FF337B617B685B8A03F4F7
:103640008073002B0DD14FF00003FB7319481A490A
:103650001A4A4FF4D473FDF77FFFFB7BDBB2002BDC
:10366000FBD07B68DB6BDB687868984778617B69A7
:10367000B3F1FF3F04D17B689B69002B09D114E0B3
:103680007B689A6C7B69DBB210461946FFF742FFF4
:10369000E7E77B689B6C1846FFF772FF38617B6831
:1036A0009B697A6810463969984707F11807BD4643
:1036B00080BD00BFB45200102453001050530010BE
:1036C00080B584B000AF78607B6803F1500107F1EA
:1036D0000C0207F10803084611461A464FF0000392
:1036E000FFF7F2FD0346002B08D17B68DB6B1B69FB
:1036F000FA681146BA687868984703E07B684FF02B
:1037000000025A677B68DB69002B06D07B68DB69A7
:103710007A6810464FF00001984707F11007BD4640
:1037200080BD00BF80B487B000AF0346FB71FB795A
:10373000002B0ED1204BD3F82C317B611E4BD3F8DC
:1037400028313B611C4BD3F8243103F10103FB60AA
:103750000DE0194BD3F818317B61174BD3F81431B6
:103760003B61154BD3F8103103F10103FB607A691B
:103770003B699A4202D14FF0000316E07B69002BAF
:1037800008D1FB6803F1FF323B699A4202D14FF046
:1037900002030AE03B6903F101027B699A4202D10C
:1037A0004FF0020301E04FF00103184607F11C0738
:1037B000BD4680BC704700BF0040082080B483B085
:1037C00000AF094BD3F828317B607B6803F10063BD
:1037D00003F116034FEA83031B68184607F10C0731
:1037E000BD4680BC704700BF0040082080B483B055
:1037F00000AF094BD3F818317B607B6803F180631D
:1038000003F104034FEAC3031B68184607F10C07D2
:10381000BD4680BC704700BF0040082080B483B024
:1038200000AF0C4BD3F818317B607B6803F18063E9
:1038300003F104034FEAC3031B684FEA43534FEA03
:10384000535303F10103184607F10C07BD4680BC32
:10385000704700BF0040082080B483B000AF084B21
:10386000D3F818317B607B6803F180634FEAC303B0
:103870001B68184607F10C07BD4680BC704700BFA7
:103880000040082080B483B000AF0B4BD3F8183150
:103890007B607B6803F101037B607B68042B02D1B2
:1038A0004FF000037B60044B7A68C3F8182107F1DE
:1038B0000C07BD4680BC70470040082090B589B019
:1038C00000AFA4E1974BFA69C3F8E82FFB6903F056
:1038D0000303002B78D0FFF789FFF8604FF0000357
:1038E000BB60FB6803F40003002B02D04FF0100311
:1038F00001E04FF00003BA6842EA0303BB60FB68D3
:1039000003F08073002B02D04FF0080301E04FF06A
:103910000003BA6842EA0303BB60FB6803F000736C
:10392000002B02D04FF0040301E04FF00003BA680F
:1039300042EA0303BB60FB6803F00063002B02D084
:103940004FF0010301E04FF00003BA6842EA0303BD
:10395000BB60FB6803F08053002B02D04FF04003A4
:1039600001E04FF00003BA6842EA0303BB60FB6862
:1039700003F00053002B02D04FF0200301E04FF082
:103980000003BA6842EA0303BB60FB6803F48013D8
:10399000002B02D04FF4805301E04FF00003BA68CF
:1039A00042EA0303BB60BB68002B04D1FB6923F030
:1039B0000203FB6108E05C4B1B6A002B04D05A4BEE
:1039C0001B6ABA6810469847FB6903F03003002B66
:1039D00054D0FFF7F3FE78604FF000033B607B6844
:1039E00003F08063002B02D04FF4007301E04FF02E
:1039F00000033A6842EA03033B607B6803F000631C
:103A0000002B02D04FF4807301E04FF000033A68BE
:103A100042EA03033B607B6803F08053002B02D033
:103A20004FF0800301E04FF000033A6842EA0303DD
:103A30003B607B6803F00053002B02D04FF480639F
:103A400001E04FF000033A6842EA03033B607B6801
:103A500003F08043002B02D04FF4006301E04FF0ED
:103A600000033A6842EA03033B602F4B1B6A002BBA
:103A700004D02D4B1B6A3A6810469847FB6903F047
:103A80000803002B00F09F804FF00100FFF74AFE73
:103A90000346002B00F09780FFF7C0FE0346BB6192
:103AA000BB69002B40F38F80BB69A3F10403BB61AA
:103AB000FFF79CFE02461D4B02EA0303002B40F079
:103AC00082801B491B4B1B781A4613464FEA43035F
:103AD0009B184FEA43231A46174B1B68D3184FEA2B
:103AE0004303CB187B61FFF7B7FE03463B61124BE4
:103AF0001A68BB69D218104B1A600F4B1A6840F253
:103B0000FF539A422AD90C4B4FF000021A60064B21
:103B10001B6A002B57D0044B1B6A4FF004009847D8
:103B200051E000BF00400820045700100000901B27
:103B300030570010346F0010306F00103B691A8846
:103B40007B691A807B6903F102037B613B6903F1A6
:103B500002033B61BB69A3F10203BB61BB69002B9C
:103B6000ECDCFFF743FE034603F08043002B28D034
:103B70002F4B9B69002B11D02D4B9C692D492E4B4F
:103B80001B781A4613464FEA43039B184FEA8323D8
:103B9000CA182A4B1B6810461946A047274B4FF0FE
:103BA00000021A60244B1B7803F10103DAB2224BA6
:103BB0001A70214B1B78012B03D91F4B4FF00002C9
:103BC0001A70FFF75FFEFB6903F04003002B06D07D
:103BD000174BDB69002B02D0154BDB699847FB695B
:103BE00003F48053002B06D0114B9B6A002B02D0AC
:103BF0000F4B9B6A9847FB6903F40053002B06D0D8
:103C00000B4B5B6A002B02D0094B5B6A98470C4B4D
:103C1000D3F8E02F0A4BD3F8E43F02EA0303FB6139
:103C2000FB69002B7FF44EAE07F12407BD4690BD23
:103C30000457001030570010346F0010306F001020
:103C40000040082080B400AF054A054BDB6B23F42D
:103C5000E26323F00A03D363BD4680BC704700BF14
:103C600000000C4080B400AF054A054BDB6B23F429
:103C7000E46323F00A03D363BD4680BC704700BFF2
:103C800000000C4080B483B000AF1B4B5B6B7B60CB
:103C90007B6803F00103DBB2002B03D0164B4FF01F
:103CA00001029A637B6803F00403002B03D0124BDC
:103CB0004FF004029A637B6803F04003002B03D0AB
:103CC0000D4B4FF040029A637B6803F08003002B9A
:103CD00003D0094B4FF080029A637B6803F40063C2
:103CE000002B03D0044B4FF400629A6307F10C07DA
:103CF000BD4680BC704700BF00000C4080B483B05C
:103D000000AF1E4B5B6B7B607B6803F00203002BF4
:103D100003D01A4B4FF002029A637B6803F008034A
:103D2000002B03D0154B4FF008029A637B6803F019
:103D30001003002B03D0114B4FF010029A637B68E5
:103D400003F02003002B03D00C4B4FF020029A63AA
:103D50007B6803F40073002B03D0084B4FF4007210
:103D60009A63074B4FF000021A60064B7A681A609C
:103D700007F10C07BD4680BC704700BF00000C4037
:103D8000386F00103C6F001080B582B000AF144B4C
:103D90005B6B7B607B6803F48073002B10D0104B4F
:103DA0004FF480729A630F4B4FF000021A600E4B73
:103DB0004FF000021A60FFF745FFFFF753FF0AE0DC
:103DC0007B6803F48063002B04D0054B4FF48062C2
:103DD0009A6300E000BF07F10807BD4680BD00BF41
:103DE00000000C40386F00103C6F001080B400AF32
:103DF000BD4680BC704700BF80B582B000AF164B97
:103E00005B6B7B607A6840F23A2302EA0303002B83
:103E100002D0FFF773FF1AE07B6803F4A063002B66
:103E200002D0FFF7B1FF12E07A680C4B02EA0303FD
:103E3000002B02D0FFF7DAFF09E07A6840F6C503ED
:103E400002EA0303002B02D0FFF71CFF00BF07F1BB
:103E50000807BD4680BD00BF00000C4000C40F0035
:103E6000FEE7FEE7FEE7FEE7FEE7FEE7FEE7FEE72A
:103E7000FEE7FEE780B485B000AFA14BD3F8043174
:103E800003F48073002B40F087809D4BD3F80C31F6
:103E900003F00103002B35D1994BD3F8043103F023
:103EA0001F03002B08D0964BD3F8043103F01F03F7
:103EB000944AB2FBF3F301E04FF00003924A13601F
:103EC0008F4BD3F8A83103F01F03002B08D08C4B85
:103ED000D3F8A83103F01F038A4AB2FBF3F301E0E1
:103EE0004FF00003894A1360874B1A68844BD3F85C
:103EF000003103F0010303F10103B2FBF3F2844B41
:103F00001A6012E17E4BD3F8A03103F04003002B7E
:103F10000CD17D4B4FF000021A607C4B4FF0000239
:103F20001A607B4B4FF000021A60FEE0744BD3F82E
:103F3000043103F01F03002B08D0714BD3F8043178
:103F400003F01F036F4AB2FBF3F301E04FF00003ED
:103F50006D4A13606A4BD3F8A83103F01F03002B9E
:103F600008D0674BD3F8A83103F01F03654AB2FBB2
:103F7000F3F301E04FF00003644A1360624B1A68E8
:103F80005F4BD3F8003103F0010303F10103B2FBEF
:103F9000F3F25F4B1A60C8E0594BD3F8883003F452
:103FA0008073002B0CD1584B4FF000021A60574B16
:103FB0004FF000021A60564B4FF000021A60B4E056
:103FC0004F4BD3F80C3103F00103002B47D14C4B7E
:103FD000D3F88830DBB203F01F03DBB203F1010337
:103FE000FB73474BD3F80431DBB203F01F03BB7301
:103FF000434BD3F8A831DBB203F01F037B73404B74
:10400000D3F80031DBB203F00103DBB203F10103AB
:104010003B73BB7B002B07D0FB7B3A4A02FB03F2CE
:10402000BB7BB2FBF3F301E04FF00003364A1360B1
:104030007B7B002B07D0FB7B324A02FB03F27B7BAE
:10404000B2FBF3F301E04FF00003304A13602E4B54
:104050001A683B7BB2FBF3F22D4B1A6065E0284BEC
:10406000D3F8A03103F04003002B0CD1264B4FF0C6
:1040700000021A60254B4FF000021A60244B4FF0EB
:1040800000021A6051E01E4BD3F88830DBB203F017
:104090001F03DBB203F10103FB72194BD3F80431A8
:1040A000DBB203F01F03BB72154BD3F8A831DBB2B0
:1040B00003F01F037B72124BD3F80031DBB203F025
:1040C0000103DBB203F101033B72BB7A002B07D083
:1040D000FB7A0C4A02FB03F2BB7AB2FBF3F301E07A
:1040E0004FF00003084A13607B7A002B12D0FB7A52
:1040F000044A02FB03F27B7AB2FBF3F30CE000BF4D
:1041000000C00F40001BB7009454001098540010DA
:104110009C5400104FF00003414A1360414B1A6851
:104120003B7AB2FBF3F2404B1A60404BD3F80831B4
:1041300003F48073002B41D03C4BD3F8083103F0DB
:104140001F03042B08D0062B06D0002B31D1384B8F
:104150004FF000021A605EE0344BD3F88830DBB2D7
:1041600003F01F03DBB203F10103FB712F4BD3F804
:104170000831DBB203F01F03BB712C4BD3F80C31B9
:1041800003F00103DBB2002B09D0FB79294A02FBC3
:1041900003F2BB79B2FBF3F2254B1A603BE0FB79EB
:1041A000244A02FB03F2BB79B2FBF3F2204B1A6004
:1041B00031E01F4B4FF000021A602CE01B4BD3F88C
:1041C000083103F40073002B21D0184BD3F80C31C5
:1041D00003F00103DBB2002B0CD0144BD3F8A83052
:1041E00003F01F0303F10103124A02FB03F2104B19
:1041F0001A6010E00D4BD3F8883003F01F0303F171
:1042000001030C4A02FB03F2094B1A6003E0084B5E
:104210004FF000021A6007F11407BD4680BC7047DA
:1042200098540010945400109C54001000C00F408B
:10423000A0540010001BB70080B500AF3C4B4FF0FE
:104240002102C3F8A02100BF394BD3F8A03103F0FD
:104250004003002BF8D0364B4FF00102C3F80C217D
:10426000334B4FF00902C3F88420314B4FF0010269
:10427000C3F880202E4B4FF0AA02C3F88C202C4BA1
:104280004FF05502C3F88C2000BF294BD3F888307B
:1042900003F48063002BF8D0254B4FF02302C3F8C2
:1042A000A420234B4FF00102C3F8A020204B4FF075
:1042B000AA02C3F8AC201E4B4FF05502C3F8AC2045
:1042C00000BF1B4BD3F8A83003F48063002BF8D059
:1042D000174B40F20112C3F80421154B40F20122A2
:1042E000C3F80821124B4FF00102C3F80021104B14
:1042F0004FF00202C3F8A8210D4B0E4AC3F8C420A8
:104300000B4B4FF48072C3F8C821094B084AD2F80E
:10431000B02142F00302C3F8B021054B45F23A0246
:104320001A60054B4FF080529A60FFF7A3FD80BDE5
:1043300000C00F40DE87280400ED00E080B483B0A9
:1043400000AF4FF00003FB7112E00F4B1B68002B16
:1043500012D00E4B0E4A126812781A700A4B1B6864
:1043600003F1FF32084B1A60FB7903F10103FB7183
:10437000FB790F2BE9D900E000BFFB79184607F164
:104380000C07BD4680BC70477470001000000140EF
:104390007070001080B584B000AFFCF7B3FA1D4B0D
:1043A0009A6840F2CF3302EA0303FB60FB6803F034
:1043B0000E03BB60BB68062B07D1164B1B7DDBB21F
:1043C0007B607B6803F09E037B60BB68042B06D197
:1043D000114B4FF00E021A701048FFF7EDF8BB6852
:1043E0000C2B06D10C4B4FF00E021A700B48FFF746
:1043F0001DF9BB68022B07D1FFF7A0FF0346002B76
:1044000002D10648FFF75CF9FCF794FA07F11007B0
:10441000BD4680BD00000140406F00107870001064
:1044200080B483B000AF03463960FB7197F9073061
:10443000002B0DDA0E49FB7903F00F03A3F10403FF
:104440003A68D2B24FEAC202D2B2CB181A760AE068
:10445000084997F907303A68D2B24FEAC202D2B29D
:10446000CB1883F8002307F10C07BD4680BC7047CA
:1044700000ED00E000E100E080B582B000AF7860C0
:104480007A686FF07F439A4202D94FF0010316E039
:104490000D4B7A6822F07F4202F1FF325A604FF0F2
:1044A000FF304FF01F01FFF7BBFF074B4FF000023B
:1044B0009A60054B4FF007021A604FF00003184650
:1044C00007F10807BD4680BD10E000E080B500AFF1
:1044D000FCF718FAFBF73EFEFCF72CFA80BD00BF94
:1044E00080B500AF094B1A68094BA3FB02134FEAD2
:1044F000931303F1FF331846FFF7BEFF6FF001007F
:104500004FF01F01FFF78CFF80BD00BF94540010D7
:10451000D34D621080B582B000AF7860FEF7A4FE84
:104520000348FCF7E5FF07F10807BD4680BD00BF63
:104530008453001080B584B000AF78604FF0000362
:10454000FB604FF47A70FEF785FAFB6803F1010314
:10455000FB60F6E780B584B000AF78604FF00003F1
:10456000FB604FF4FA60FEF775FAFB6803F1010394
:10457000FB60F6E780B584B000AF78604FF00003D1
:10458000FB6040F6B830FEF765FAFB6803F1010303
:10459000FB60F6E780B584B002AF4FF00A030093EA
:1045A0004FF0140301932A482A494FF000024FF4B8
:1045B0000063FEF78DF978607B68002B02D0786885
:1045C000FEF730F94FF0090300934FF01403019305
:1045D000214822494FF000024FF40063FEF778F9BA
:1045E00078607B68002B02D07868FEF71BF94FF0EB
:1045F000080300934FF014030193194819494FF031
:1046000000024FF40063FEF763F978607B68002BCB
:1046100002D07868FEF706F94FF0070300934FF0D9
:1046200014030193104811494FF000024FF4006346
:10463000FEF74EF978607B68002B02D07868FEF7B1
:10464000F1F84FF00003184607F10807BD4680BD9A
:104650008C53001015450010945300103545001080
:104660009C53001055450010A453001075450010D0
:1046700080B500AFFFF734FFFCF7ACFA07480849F4
:10468000FDF738F8FDF774FDFFF784FFFEF7A6FC91
:10469000FBF74EFFFDF79EFD80BD00BFF0700010E0
:1046A0000000011080B500AFFEF79EFCFFF7E0FFB1
:1046B0004FF00003184680BD08B500F03DF80748EC
:1046C00000B10068064901B109680022FFF7EAFF5E
:1046D000044B0BB1AFF30080FEE700BF0000000009
:1046E000000000000000000080B51149114A1AE0E6
:1046F00055689368D4689D4209D0002004E0F5E82D
:1047000002670830E3E80267A042F8D100E01B1915
:104710001469002004E0083000260027E3E802675F
:10472000A042F8D114320139E2D2FFF7C5FF00BF31
:1047300001000000CC53001070B545F2B83645F2C8
:10474000B835C1F20006C1F20005761BB61006D0DE
:10475000002455F8043B01349847A642F9D145F2AC
:10476000BC3645F2B835C1F20006C1F20005761B31
:1047700000F01CFEB61006D0002455F8043B0134AE
:104780009847A642F9D170BD28257329206173731B
:10479000657274206661696C65642061742025739C
:1047A0003A2564200A00000064657620213D2052ED
:1047B000545F4E554C4C0000546F20696E6974690B
:1047C000616C697A65206465766963653A25732052
:1047D0006661696C65642E20546865206572726F2D
:1047E0007220636F64652069732025640A000000ED
:1047F00072745F6465766963655F7772697465007A
:1048000072745F6465766963655F636C6F7365007E
:1048100072745F6465766963655F6F70656E0000D2
:1048200046756E6374696F6E5B25735D2073686196
:104830006C6C206E6F74207573656420696E2049FE
:1048400053520A00282573292061737365727420FE
:104850006661696C65642061742025733A25642063
:104860000A000000300000007469646C65000000FC
:1048700072745F7468726561645F69646C655F65BA
:1048800078637574650000002825732920617373AF
:10489000657274206661696C65642061742025739B
:1048A0003A2564200A00000073656D20213D2052E6
:1048B000545F4E554C4C000046756E6374696F6EC4
:1048C0005B25735D207368616C6C206E6F7420755E
:1048D00073656420696E204953520A00300000005D
:1048E0006D7574657820213D2052545F4E554C4CB7
:1048F000000000006576656E7420213D2052545FF3
:104900004E554C4C000000006D6220213D20525459
:104910005F4E554C4C0000006D7120213D205254DB
:104920005F4E554C4C000000627566666572202132
:104930003D2052545F4E554C4C00000073697A651F
:1049400020213D203000000072745F73656D5F743C
:10495000616B650072745F73656D5F696E69740089
:104960000A205C207C202F0A000000002D205254D9
:10497000202D2020202020546872656164204F7013
:1049800065726174696E672053797374656D0A008E
:10499000202F207C205C202020202025642E2564D0
:1049A0002E2564206275696C642025730A0000005E
:1049B0004A616E20313020323031330020323030C5
:1049C00036202D203230313220436F707972696782
:1049D00068742062792072742D7468726561642035
:1049E0007465616D0A000000284E554C4C2900008A
:1049F0003031323334353637383941424344454615
:104A000000000000303132333435363738396162D6
:104A100063646566000000002825732920617373B4
:104A2000657274206661696C656420617420257309
:104A30003A2564200A0000002872745F75696E745C
:104A4000385F74202A296D656D203E3D20686561C0
:104A5000705F7074720000002872745F75696E7404
:104A6000385F74202A296D656D203C202872745FA0
:104A700075696E74385F74202A29686561705F6596
:104A80006E6400006D656D2D3E75736564203D3D5F
:104A90002030000046756E6374696F6E5B25735D30
:104AA000207368616C6C206E6F7420757365642070
:104AB000696E204953520A00300000006865617039
:104AC000000000006D656D20696E69742C206572B0
:104AD000726F7220626567696E20616464726573CB
:104AE0007320307825782C20616E6420656E6420F8
:104AF0006164647265737320307825780A00000061
:104B000028286C66726565203D3D20686561705F90
:104B1000656E6429207C7C2028216C667265652D79
:104B20003E757365642929002872745F75696E7417
:104B300033325F74296D656D202B2053495A454FE0
:104B4000465F5354525543545F4D454D202B2073BF
:104B5000697A65203C3D202872745F75696E7433F4
:104B6000325F7429686561705F656E6400000000E3
:104B70002872745F75696E7433325F7429282872E5
:104B8000745F75696E74385F74202A296D656D20B5
:104B90002B2053495A454F465F5354525543545F57
:104BA0004D454D2920252052545F414C49474E5FC9
:104BB00053495A45203D3D203000000028282872E6
:104BC000745F75696E7433325F74296D656D292069
:104BD00026202852545F414C49474E5F53495A455D
:104BE0002D312929203D3D20300000002828287241
:104BF000745F75696E7433325F7429726D656D29E7
:104C00002026202852545F414C49474E5F53495A51
:104C1000452D312929203D3D203000002872745F48
:104C200075696E74385F74202A29726D656D203E37
:104C30003D202872745F75696E74385F74202A296C
:104C4000686561705F707472202626202872745F18
:104C500075696E74385F74202A29726D656D203C09
:104C6000202872745F75696E74385F74202A296811
:104C70006561705F656E64006D656D2D3E75736571
:104C8000640000006D656D2D3E6D61676963203DB8
:104C90003D20484541505F4D4147494300000000D9
:104CA00072745F667265650072745F6D616C6C6FC3
:104CB0006300000072745F73797374656D5F68657B
:104CC00061705F696E697400706C75675F686F6CA6
:104CD0006573000028257329206173736572742041
:104CE0006661696C65642061742025733A256420CF
:104CF0000A0000006F626A65637420213D205254EF
:104D00005F4E554C4C00000046756E6374696F6EC3
:104D10005B25735D207368616C6C206E6F74207509
:104D200073656420696E204953520A003000000008
:104D300021286F626A6563742D3E74797065202640
:104D40002052545F4F626A6563745F436C61737392
:104D50005F537461746963290000000072745F6FAF
:104D6000626A6563745F69735F73797374656D6F8D
:104D7000626A65637400000072745F6F626A6563E3
:104D8000745F64656C6574650000000072745F6F29
:104D9000626A6563745F616C6C6F63617465000067
:104DA00072745F6F626A6563745F6465746163687F
:104DB00000000000000001000200010003000100EB
:104DC00002000100040001000200010003000100D4
:104DD00002000100050001000200010003000100C3
:104DE00002000100040001000200010003000100B4
:104DF00002000100060001000200010003000100A2
:104E00000200010004000100020001000300010093
:104E10000200010005000100020001000300010082
:104E20000200010004000100020001000300010073
:104E30000200010007000100020001000300010060
:104E40000200010004000100020001000300010053
:104E50000200010005000100020001000300010042
:104E60000200010004000100020001000300010033
:104E70000200010006000100020001000300010021
:104E80000200010004000100020001000300010013
:104E90000200010005000100020001000300010002
:104EA00002000100040001000200010003000100F3
:104EB0000200010028257329206173736572742034
:104EC0006661696C65642061742025733A256420ED
:104ED0000A00000074687265616420213D2052540C
:104EE0005F4E554C4C0000007468726561643A2551
:104EF0007320737461636B206F766572666C6F7775
:104F00000A0000007761726E696E673A202573208F
:104F1000737461636B20697320636C6F73652074B5
:104F20006F20656E64206F6620737461636B20610F
:104F30006464726573732E0A0000000072745F73FC
:104F400063686564756C655F72656D6F76655F74C7
:104F5000687265616400000072745F736368656401
:104F6000756C655F696E736572745F746872656194
:104F7000640000005F72745F7363686564756C65DC
:104F8000725F737461636B5F636865636B000000DD
:104F90002825732920617373657274206661696CBA
:104FA00065642061742025733A2564200A0000009E
:104FB0007072696F72697479203C2052545F544852
:104FC000524541445F5052494F524954595F4D41F7
:104FD0005800000074687265616420213D205254BD
:104FE0005F4E554C4C000000737461636B5F7374CB
:104FF00061727420213D2052545F4E554C4C00008C
:105000007468726561642D3E73746174203D3D2047
:1050100052545F5448524541445F494E4954000040
:105020007468726561642D3E73746174203D3D2027
:1050300052545F5448524541445F53555350454E76
:105040004400000072745F7468726561645F746923
:105050006D656F757400000072745F7468726561CD
:10506000645F726573756D650000000072745F7433
:1050700068726561645F73757370656E64000000CB
:1050800072745F7468726561645F736C65657000EB
:1050900072745F7468726561645F73746172747551
:1050A0007000000072745F7468726561645F696E9D
:1050B000697400005F72745F7468726561645F692F
:1050C0006E697400282573292061737365727420DA
:1050D0006661696C65642061742025733A256420DB
:1050E0000A00000074696D657220213D2052545FF2
:1050F0004E554C4C0000000074696D65722D3E6980
:105100006E69745F7469636B203C2052545F54492C
:10511000434B5F4D41582F320000000072745F74A2
:10512000696D65725F636F6E74726F6C0000000072
:1051300072745F74696D65725F737461727400007C
:1051400072745F74696D65725F696E6974000000E6
:105150007073723A203078253038780A00000000E9
:105160002070633A203078253038780A000000003B
:10517000206C723A203078253038780A0000000020
:105180007231323A203078253038780A0000000039
:105190007230333A203078253038780A0000000029
:1051A0007230323A203078253038780A000000001A
:1051B0007230313A203078253038780A000000000B
:1051C0007230303A203078253038780A00000000FC
:1051D00068617264206661756C74206F6E207468FB
:1051E000726561643A2025730A0000007368757463
:1051F000646F776E2E2E2E0A00000000282573297A
:1052000020617373657274206661696C65642061E6
:10521000742025733A2564200A0000003000000045
:105220002825732920617373657274206661696C27
:1052300065642061742025733A2564200A0000000B
:10524000717565756520213D2052545F4E554C4C5B
:105250000000000046756E6374696F6E5B25735DB8
:10526000207368616C6C206E6F74207573656420A8
:10527000696E204953520A00300000006461746175
:105280005F70747220213D2052545F4E554C4C008B
:1052900073697A6520213D2052545F4E554C4C0075
:1052A00072745F646174615F71756575655F706F5D
:1052B00070000000282573292061737365727420C3
:1052C0006661696C65642061742025733A256420E9
:1052D0000A00000064657620213D2052545F4E553F
:1052E0004C4C000030203D3D20286465762D3E6604
:1052F0006C616720262052545F4445564943455F00
:10530000464C41475F53545245414D29000000002F
:1053100073657269616C20213D2052545F4E554C7B
:105320004C00000073657269616C2D3E706172659E
:105330006E742E666C616720262052545F44455679
:105340004943455F464C41475F494E545F525800C0
:1053500072745F68775F73657269616C5F74696DA1
:10536000656F75745F6973720000000072745F6826
:10537000775F73657269616C5F636861725F69739F
:105380007200000073657269616C3100696E697446
:105390000000000064656D6F3000000064656D6F93
:1053A0003100000064656D6F32000000F8B500BF89
:1053B000F8BC08BC9E46704725010010F8B500BF38
:1053C000F8BC08BC9E4670471101001000000000A8
:1053D000E853001000000010C0000000481C00004E
:0853E00004ADFF7F0100000095
:1053E8000000000000000000F0530010F05300100F
:1053F8007800000001000000005400100054001064
:105408001C0000000200000010540010105400108E
:105418002000000003000000205400102054001059
:105428001C0000000400000030540010305400102C
:105438002C000000050000004054001040540010EB
:1054480030000000060000005054001050540010B6
:105458005C00000007000000605400106054001059
:105468003400000008000000705400107054001050
:105478003C00000009000000805400108054001017
:10548800280000008C5400108C540010000E2707D0
:105498000087930300879303006CDC020000000080
:0400000510000000E7
:00000001FF
